:100000000C94AC010C9420130C9459130C94C9015A
:100010000C94C9010C94C9010C94C9010C94C90138
:100020000C94C9010C94C9010C94C9010C94C90128
:100030000C94C9010C94C9010C94C9010C94C90118
:100040000C94450F0C94C9010C94C9010C94C9017E
:100050000C9404110C9452110C94C9010C94C90114
:100060000C94C9010C94C9010C94C9010C94C901E8
:100070000C9474120C94C2120C94C9014E414E4956
:100080004E495459494E46CDCCCC3D0AD7233C1756
:10009000B7D13877CC2B329595E6241FB14F0A00A3
:1000A0000020410000C84200401C4620BCBE4CCA93
:1000B0001B0E5AAEC59D7400407A10F35A00A07210
:1000C0004E18090010A5D4E80000E8764817000093
:1000D000E40B54020000CA9A3B000000E1F5050061
:1000E0000080969800000040420F000000A08601AA
:1000F000000000102700000000E80300000000647A
:1001000000000000000A00000000000100000000E4
:10011000002C76D888DC674F0823DFC1DFAE59E1B9
:10012000B1B796E5E3E453C63AE651997696E8E628
:10013000C28426EB898C9B62ED407C6FFCEFBC9CFB
:100140009F40F2BAA56FA5F490055A2AF75C936B0D
:100150006CF9676DC11BFCE0E40D47FEF520E6B5C8
:1001600000D0ED902E0300943577050080841E08A2
:100170000000204E0A000000C80C333333330F98C0
:100180006E12831141EF8D2114893BE65516CFFE87
:10019000E6DB18D1844B381BF77C1D901DA4BBE413
:1001A00024203284725E228100C9F124ECA1E53D55
:1001B000270A426F742053746F702E000A536574BF
:1001C0002053706565643A000A426F74205374616D
:1001D00072742E000A426F742053746F702E0041A7
:1001E0006B6B753A2569005049442D4F75743A255B
:1001F00069004C696E652D5265663A2569004D6F40
:10020000746F72204C6566743A256920526967687C
:10021000743A2569000A4C696E65206973206C6F19
:100220007374210A426F742073746F707065642E4A
:100230000A000A526567656C706172616D6574656C
:10024000722075656265726E6F6D6D656E2E000A47
:10025000536574204B443A20000A536574204B497F
:100260003A20000A536574204B503A20000A504946
:10027000442D5265676C6572706172616D6574655D
:10028000722065696E7374656C6C656E2E000A422F
:100290006174746572793A20000A53706565643A36
:1002A000000A4B443A000A4B493A000A4B503A20A4
:1002B000000A43757272656E742076616C756573A1
:1002C000000A277427202D20536528742920537095
:1002D000656564000A276727202D202847296F209D
:1002E0004472697665000A277327202D2028532938
:1002F000746F7020526F626F74000A277027202D70
:1003000020536574202850296172616D657465728F
:100310002E000A0A50726F6772616D6D2050494459
:100320002D5265676C6572204C696E69656E666FEB
:100330006C6765722E002D44454255472D20002DD7
:100340004552524F522D20004C6F772042617474F9
:100350006572793A2569000011241FBECFEFD0E104
:10036000DEBFCDBF11E0A0E0B1E0E0E9F7E302C0FD
:1003700005900D92A631B107D9F722E0A6E1B1E0D0
:1003800001C01D92A330B207E1F70E9454040C94FF
:10039000C61B0C940000CF93DF9380911701882334
:1003A00009F4ABC0EAEEF1E0808181608083808156
:1003B0008260808380818460808381E00E948A10D3
:1003C000449708F4A5C00E94A5060E940E079093CA
:1003D000BC018093BB0160E070E081E090E00E948E
:1003E0000E106091BB017091BC0148ED51E080E0BE
:1003F00090E00E942909EC01809100019091010197
:10040000BC016C1B7D0B8C0F9D1F0E942008E3ED2F
:10041000F1E028ED31E091E040E081918111942FED
:10042000E217F307D1F7992329F0809116018F5F26
:1004300080931601809116018A3068F0109217019E
:1004400060E080E00E947E0783E00E94500B85E11F
:1004500092E00E944A1284E00E948A108139914001
:1004600040F060E070E084E090E00E940E10109296
:10047000160182E00E948A108536910508F448C072
:10048000E2EAF1E084818F9383818F9382818F935D
:1004900081818F938EEF91E09F938F930E943C0711
:1004A0008091BC018F938091BB018F9382EF91E08B
:1004B0009F938F930E943C07DF93CF9387EE91E049
:1004C0009F938F930E943C070E94130B9F938F93DF
:1004D0008FED91E09F938F930E943C0760E070E066
:1004E00082E090E00E940E108DB79EB742960FB644
:1004F000F8949EBF0FBE8DBF0BC0EAEEF1E0808185
:100500008E7F808380818D7F808380818B7F8083BD
:10051000DF91CF9108950F931F93CF93DF93CDB7C2
:10052000DEB72F970FB6F894DEBF0FBECDBF82E1C6
:1005300093E00E944A128AEF92E00E944A1286EEED
:1005400092E00E944A1284ED92E00E944A1281ECED
:1005500092E00E944A1281EB92E00E944A128BEADA
:1005600092E00E944A126091BD017091BE0180919B
:10057000BF019091C0018E010F5F1F4F21E044E049
:100580000E94C1140E942B1286EA92E00E944A1235
:100590006091B7017091B8018091B9019091BA0151
:1005A00021E044E00E94C1140E942B1281EA92E0F3
:1005B0000E944A126091B3017091B4018091B5011B
:1005C0009091B60121E044E00E94C1140E942B12D8
:1005D00089E992E00E944A12809100019091010104
:1005E0000E947A0C80E00E94500B8EE892E00E94FC
:1005F0004A128091C2019091C3010E947A0C2F96F9
:100600000FB6F894DEBF0FBECDBFDF91CF911F9123
:100610000F9108950F931F93CF93DF938C01C1E047
:10062000DFEFDC0F0E94CC11811521E09207D1F39E
:100630008A3029F4F801ED0FF11D108206C0F8018F
:10064000ED0FF11D8083CF5FEBCFDF91CF911F9135
:100650000F910895CF93DF93CDB7DEB72A970FB6EA
:10066000F894DEBF0FBECDBF8DE692E00E944A1225
:1006700083E692E00E944A12CE0101960E940A038C
:10068000CE0101960E942B12CE0101960E94E11428
:100690006093BD017093BE018093BF019093C00130
:1006A00089E592E00E944A12CE0101960E940A0357
:1006B000CE0101960E942B12CE0101960E94E114F8
:1006C0006093B7017093B8018093B9019093BA0118
:1006D0008FE492E00E944A12CE0101960E940A0322
:1006E000CE0101960E942B12CE0101960E94E114C8
:1006F0006093B3017093B4018093B5019093B601F8
:1007000082E392E00E944A122A960FB6F894DEBF66
:100710000FBECDBFDF91CF9108958F929F92AF9280
:10072000BF92CF92DF92EF92FF921F93CF93DF930E
:10073000CDB7DEB72A970FB6F894DEBF0FBECDBF98
:100740000E94CC118F3F910511F008F09BC0182F2B
:100750000E94CC110A97E1F7103709F049C060E018
:1007600080E00E947E0783E00E94500B0E942A03D3
:1007700020E030E040E053E46091B3017091B401B7
:100780008091B5019091B6010E9401050E94A204DA
:100790004B015C0120E030E040E053E46091B701A0
:1007A0007091B8018091B9019091BA010E94010540
:1007B0000E94A2046B017C0120E030E040E053E4A1
:1007C0006091BD017091BE018091BF019091C00107
:1007D0000E9401050E94A204DC01CB0128ED31E05A
:1007E000A401B6010E94BF0880E00E94500B4AC0DD
:1007F000133781F484ED91E00E944A1260E080E0BA
:100800000E947E070E948B0280E00E94500B109293
:10081000170138C01736D1F488EC91E00E944A12D3
:1008200061E081E00E947E078091000190910101CA
:10083000BC010E94200888ED91E00E94810A81E0BD
:100840000E94500B81E0809317011CC01437D1F433
:100850008CEB91E00E944A1283E00E94500BCE0183
:1008600001960E940A03CE0101960E94E51490931E
:10087000010180930001CE0101960E942B1280E0BD
:100880000E94500B2A960FB6F894DEBF0FBECDBF64
:10089000DF91CF911F91FF90EF90DF90CF90BF90AD
:1008A000AF909F908F9008950E949C0E8BEC91E0EA
:1008B0000E944A0E81E00E948A0B0E94950A80E005
:1008C00090E0A0E0BFE38093BD019093BE01A093B0
:1008D000BF01B093C0011092B7011092B8011092FD
:1008E000B9011092BA018DEC9CECACE4BFE38093AB
:1008F000B3019093B401A093B501B093B6010E94E7
:100900008B0228ED31E046E650E060E070E080E4E4
:1009100090E00E94BF08E1ECF1E08081816080837B
:100920000E948E0E0E948D031B99FACF81EB91E0FD
:100930000E944A1260E080E00E947E0780E00E94F0
:10094000500BEECF0E94A9046894B1110C94FB04E3
:1009500008950E94E00488F09F5798F0B92F9927D6
:10096000B751B0F0E1F0660F771F881F991F1AF09A
:10097000BA95C9F714C0B13091F00E94FA04B1E001
:1009800008950C94FA04672F782F8827B85F39F000
:10099000B93FCCF3869577956795B395D9F73EF433
:1009A00090958095709561957F4F8F4F9F4F0895DB
:1009B00057FD9058440F551F59F05F3F71F0479510
:1009C000880F97FB991F61F09F3F79F087950895F5
:1009D000121613061406551FF2CF4695F1DF08C014
:1009E000161617061806991FF1CF86957105610531
:1009F00008940895E894BB2766277727CB0197F9D9
:100A000008950E9414050C9485050E94770538F01E
:100A10000E947E0520F0952311F00C946E050C9435
:100A2000740511240C94FB040E94D80470F3959F64
:100A3000C1F3950F50E0551F629FF001729FBB27D5
:100A4000F00DB11D639FAA27F00DB11DAA1F649F71
:100A50006627B00DA11D661F829F2227B00DA11D24
:100A6000621F739FB00DA11D621F839FA00D611DAA
:100A7000221F749F3327A00D611D231F849F600DCB
:100A8000211D822F762F6A2F11249F5750409AF0F4
:100A9000F1F088234AF0EE0FFF1FBB1F661F771F80
:100AA000881F91505040A9F79E3F510580F00C944B
:100AB0006E050C94FB045F3FE4F3983ED4F38695F7
:100AC00077956795B795F795E7959F5FC1F7FE2BEB
:100AD000880F911D9695879597F9089597F99F67C7
:100AE00080E870E060E008959FEF80EC08950024B6
:100AF0000A941616170618060906089500240A9483
:100B000012161306140605060895092E0394000C08
:100B100011F4882352F0BB0F40F4BF2B11F460FF97
:100B200004C06F5F7F4F8F4F9F4F0895CF93DF9328
:100B3000CDB7DEB7A1970FB6F894DEBF0FBECDBF1D
:100B400089A389A1803109F0F3C080E00E948A0B5B
:100B500080E090E0A8E4B4E489839A83AB83BC830B
:100B60002BEA3AEA4AEA50E469817A818B819C81D6
:100B70000E940105DC01CB018D839E83AF83B88782
:100B800020E030E040E850E469817A818B819C81EB
:100B90000E940105DC01CB0189879A87AB87BC875E
:100BA00020E030E040E85FE36D817E818F819885B1
:100BB0000E94921388231CF481E08D87B2C020E04C
:100BC0003FEF4FE757E469857A858B859C850E94C6
:100BD0006A1418160CF07BC020E030E04AE754E4B9
:100BE00069817A818B819C810E949713DC01CB0102
:100BF0008E879F87A88BB98B20E030E04AE755E4C9
:100C00006E857F85888999890E940105DC01CB0169
:100C10008A8B9B8BAC8BBD8B20E030E040E85FE3A0
:100C20006A897B898C899D890E94921388232CF480
:100C300081E090E09F8B8E8B3FC020E03FEF4FE73D
:100C400057E46A897B898C899D890E946A141816E9
:100C50004CF520E030E040E251E46E857F858889E4
:100C600099890E940105DC01CB01BC01CD010E94E4
:100C7000A904DC01CB019F8B8E8B0FC080E991E032
:100C8000998F888F888D998D0197F1F7998F888F2B
:100C90008E899F8901979F8B8E8B8E899F89892B47
:100CA00069F73FC06A897B898C899D890E94A90464
:100CB000DC01CB019F8B8E8B8E899F899B8F8A8FC6
:100CC0008A8D9B8D0197F1F79B8F8A8F2AC020E038
:100CD00030E04FE753E46D817E818F8198850E94DB
:100CE0006A141816ACF469857A858B859C850E94F8
:100CF000A904DC01CB019D8F8C8F8C8D9D8D9F8FE6
:100D00008E8F8E8D9F8D0197F1F79F8F8E8F13C0E1
:100D10006D817E818F8198850E94A904DC01CB01C1
:100D20008D878D8588A388A18A95F1F788A303C054
:100D300080E00E94020C0000A1960FB6F894DEBF7E
:100D40000FBECDBFDF91CF9108950F931F93CF9327
:100D5000DF9300D000D0CDB7DEB780E10E949605CA
:100D6000198213C08981082F10E089818D5F0E944C
:100D7000E30A9C01C801880F991F87539E4FFC010D
:100D80003183208389818F5F89838981853050F306
:100D90008AE00E9496058091D1019091D2019C83B6
:100DA0008B838091CF019091D0019093D201809359
:100DB000D1018B819C819093D0018093CF011A82C5
:100DC00020C08A81882F90E0880F991F87539E4FFB
:100DD000FC0180819181813A91054CF08A81882FB4
:100DE00090E08D529E4F21E0FC01208307C08A8154
:100DF000882F90E08D529E4FFC0110828A818F5F78
:100E00008A838A818530E8F200000F900F900F905E
:100E10000F90DF91CF911F910F910895CF93DF93A2
:100E200000D0CDB7DEB72091C9013091CA018091C1
:100E3000CB019091CC01280F391F8091CF01909167
:100E4000D001281B390B8091D1019091D201A901C9
:100E5000481B590BCA019A83898389819A81959588
:100E60008795959587959A83898389819A810F9033
:100E70000F90DF91CF910895CF93DF9300D0CDB73E
:100E8000DEB786E393E00E944A12CE0109969A8368
:100E9000898349815A818091FD019091FE012F81C2
:100EA0003885B9010E943B158AE00E9400120000BB
:100EB0000F900F90DF91CF910895CF93DF9300D0E3
:100EC000CDB7DEB78FE393E00E944A12CE010996B8
:100ED0009A83898349815A818091FD019091FE0115
:100EE0002F813885B9010E943B158AE00E940012CB
:100EF00000000F900F90DF91CF910895CF93DF9373
:100F000000D0CDB7DEB789836A8389818130C9F487
:100F100088E290E028E230E0F90120812860FC01BD
:100F2000208388E290E028E230E0F90120812F7EE2
:100F3000FC0120838091A2018C7F81608093A201BB
:100F40002AC089818230C9F488E290E028E230E04A
:100F5000F90120812061FC01208388E290E028E2F1
:100F600030E0F9012081277FFC0120838091A201DC
:100F70008C7F82608093A2010EC088E290E028E21C
:100F800030E0F9012081277EFC0120838091A201BD
:100F90008C7F8093A2018A818130C9F488E290E03D
:100FA00028E230E0F90120812B7FFC0120838BE2D5
:100FB00090E02BE230E0F90120812061FC012083E8
:100FC0008091A201837F84608093A20133C08A81D3
:100FD0008230C9F488E290E028E230E0F901208113
:100FE0002460FC0120838BE290E02BE230E0F901E9
:100FF00020812F7EFC0120838091A201837F886065
:101000008093A20117C088E290E028E230E0F90165
:1010100020812B7FFC0120838BE290E02BE230E0EB
:10102000F90120812F7EFC0120838091A201837F22
:101030008093A20100000F900F90DF91CF9108954F
:10104000CF93DF9300D000D0CDB7DEB79A838983EA
:101050007C836B838B819C819093A6018093A501F7
:101060008091A701282F880F330B89819A81820FE5
:10107000931F9093A4018093A3018091A301909169
:10108000A4018F3F910541F03CF08FEF90E09093E9
:10109000A4018093A3010AC08091A3019091A401AF
:1010A000992324F41092A4011092A3018091A50128
:1010B0009091A6018F3F910541F03CF08FEF90E0B9
:1010C0009093A6018093A5010AC08091A5019091FB
:1010D000A601992324F41092A6011092A50183EB96
:1010E00090E02091A3013091A401FC01208384EBC6
:1010F00090E02091A5013091A601FC012083000021
:101100000F900F900F900F90DF91CF910895CF9394
:10111000DF93CDB7DEB760E080E00E947E0780EB12
:1011200090E020EB30E0F9012081236AFC0120836C
:1011300081EB90E021EB30E0F90120812260FC019D
:10114000208383EB90E0FC01108284EB90E0FC01B3
:1011500010828DEC9CECA4E9B0E48093AE019093F6
:10116000AF01A093B001B093B10185E58093B201C6
:1011700083EF8093A7010000DF91CF910895CF9373
:10118000DF93CDB7DEB728970FB6F894DEBF0FBE5A
:10119000CDBF9A8389837C836B835E834D8338873D
:1011A0002F838F819885FC0112821382148215820D
:1011B0008F819885FC01118210828F819885298109
:1011C0003A81FC01378326838F8198852B813C816E
:1011D000FC01318720878F8198852D813E81FC011C
:1011E000338722878F819885FC01868197819C01B6
:1011F0002F5F3F4F8FEF9FE7B9010E947F14CB0114
:101200009C018F819885FC01358724878F81988583
:10121000FC01808591859C012F5F3F4F8FEF9FE3FD
:10122000B9010E947F14CB01092E000CAA0BBB0B45
:101230002F813885F90186879787A08BB18B0000B5
:1012400028960FB6F894DEBF0FBECDBFDF91CF91C9
:101250000895CF93DF93CDB7DEB768970FB6F894B4
:10126000DEBF0FBECDBF9C8B8B8B7E8B6D8B588F63
:101270004F8B2B893C898D899E89A901481B590B6D
:10128000CA019C878B878F89988DFC0124853585C1
:101290008B859C85281739072CF48FEF9FE79A835D
:1012A000898323C08F89988DFC01848595852227A9
:1012B0003327281B390B8B859C85821793072CF4C9
:1012C00081E090E89A83898310C08F89988DFC0112
:1012D000468157812B853C85429FC001439F900DDD
:1012E000529F900D11249A8389838F89988DFC01D8
:1012F00022813381448155818B859C85092E000C88
:10130000AA0BBB0B820F931FA41FB51F8D879E874F
:10131000AF87B88B8F89988DFC01268537854089EA
:1013200051898D859E85AF85B889281739074A0769
:101330005B07BCF48FEF9FE3A0E0B0E08B839C835E
:10134000AD83BE838F89988DFC0186859785A089A2
:10135000B1892F89388DF90182839383A483B58362
:101360005AC08F89988DFC0186859785A089B1899F
:1013700022273327A901281B390B4A0B5B0B8D85CC
:101380009E85AF85B88982179307A407B507F4F443
:1013900081E090ECAFEFBFEF8B839C83AD83BE8386
:1013A0008F89988DFC0186859785A089B189B09534
:1013B000A095909581959F4FAF4FBF4F2F89388D46
:1013C000F90182839383A483B58325C02F89388D47
:1013D0008D859E85AF85B889F90182839383A48327
:1013E000B5838F89988DFC01808591859C01990F2B
:1013F000440B550B8F89988DFC0182819381A481C8
:10140000B581BC01CD010E946F14DC01CB018B833F
:101410009C83AD83BE838F89988DFC014285538563
:101420008F89988DFC01208131818D899E89281BAF
:10143000390B429FC001439F900D529F900D112484
:101440009A8B898B8F89988D2D893E89FC013183F8
:10145000208389819A819C01990F440B550B8B81C4
:101460009C81AD81BE81280F391F4A1F5B1F89896E
:101470009A89092E000CAA0BBB0B820F931FA41F85
:10148000B51FBB2324F481589F4FAF4FBF4F6894C3
:1014900016F8B595A795979587951694D1F78F83EC
:1014A0009887A987BA878F819885A985BA8581157C
:1014B0009048A105B1054CF08FEF9FE7A0E0B0E0A8
:1014C0008F839887A987BA8711C08F819885A9854E
:1014D000BA8581309048AF4FBF4F44F481E090E827
:1014E000AFEFBFEF8F839887A987BA878F819885E1
:1014F00068960FB6F894DEBF0FBECDBFDF91CF91D7
:101500000895CF93DF9300D0CDB7DEB79A83898358
:1015100089819A81FC011282138214821582000053
:101520000F900F90DF91CF910895CF93DF931F928B
:10153000CDB7DEB719828091EA0181608093EA011C
:1015400020C081E00E948A10853F9140D0F09981AF
:1015500081E08927882F90E021E0892B09F420E0A1
:1015600029838981882321F080E00E94500B03C0E9
:101570008AE00E94500B60E070E081E090E00E9401
:101580000E1083E290E0FC018081882F90E0807152
:101590009927892BB1F68091C10181608093C101A7
:1015A00060E070E081E090E00E940E108091EA011E
:1015B0008E7F8093EA018AE00E94500B00000F901A
:1015C000DF91CF910895CF93DF931F92CDB7DEB710
:1015D00089838CE790E02CE730E0F9012081322FFD
:1015E000307E29812F71232BFC0120838AE790E034
:1015F0002AE730E0F90120812064FC01208300000B
:101600008AE790E0FC018081882F90E08074992720
:10161000892BB1F788E790E0FC01808191810F90E0
:10162000DF91CF910895CF93DF9300D000D0CDB755
:10163000DEB782E00E94E30ACC01A0E0B0E089833B
:101640009A83AB83BC8389819A81AB81BC81880FEB
:10165000991FAA1FBB1F89839A83AB83BC832981EF
:101660003A814B815C8188E893E1DC010E94A214FD
:10167000DC01CB01072E7AE0B695A7959795879563
:101680007A95D1F7702D89839A83AB83BC83898146
:101690009A810F900F900F900F90DF91CF91089546
:1016A000CF93DF931F92CDB7DEB7898385E290E0B9
:1016B00025E230E0F90120812360FC01208389814B
:1016C000813051F485E290E025E230E0F90120819B
:1016D0002D7FFC01208319C08981882351F485E284
:1016E00090E025E230E0F90120812E7FFC0120838B
:1016F0000CC08981833049F485E290E025E230E036
:10170000F90120812C7FFC01208300000F90DF91E4
:10171000CF910895CF93DF931F92CDB7DEB7898322
:101720008981882F90E08130910509F457C082307B
:10173000910524F4892B09F442C05FC083309105E0
:1017400079F18F3F910509F058C085E290E025E2DC
:1017500030E0F90120812B7FFC01208388E290E0BA
:1017600028E230E0F90120812068FC01208388E232
:1017700090E028E230E0F90120812F7DFC012083F8
:101780008091C10184608093C1018091C101806119
:101790008093C1018091C80182608093C8012DC0EF
:1017A00085E290E025E230E0F90120812B7FFC0109
:1017B00020838091C10180618093C1011EC088E2B5
:1017C00090E028E230E0F90120812068FC012083CC
:1017D0008091C80182608093C8010FC088E290E0C8
:1017E00028E230E0F90120812F7DFC0120838091E7
:1017F000C10184608093C101000000000F90DF915F
:10180000CF910895CF93DF931F92CDB7DEB7898331
:101810008981882F90E08130910509F457C082308A
:10182000910524F4892B09F442C05FC083309105EF
:1018300079F18F3F910509F058C085E290E025E2EB
:1018400030E0F90120812460FC01208388E290E0EF
:1018500028E230E0F90120812F77FC01208388E223
:1018600090E028E230E0F90120812062FC01208331
:101870008091C1018B7F8093C1018091C1018F7ED6
:101880008093C1018091C8018D7F8093C8012DC0D4
:1018900085E290E025E230E0F90120812460FC013E
:1018A00020838091C1018F7E8093C1011EC088E298
:1018B00090E028E230E0F90120812F77FC012083BD
:1018C0008091C8018D7F8093C8010FC088E290E0AD
:1018D00028E230E0F90120812062FC012083809120
:1018E000C1018B7F8093C101000000000F90DF9148
:1018F000CF910895CF93DF93CDB7DEB72C970FB676
:10190000F894DEBF0FBECDBF9C878B878B859C85EF
:101910004AE050E09E012F5F3F4FB9010E9403153E
:10192000CE0101960E942B1200002C960FB6F8945F
:10193000DEBF0FBECDBFDF91CF910895CF93DF9370
:10194000CDB7DEB70000DF91CF910895CF93DF933D
:10195000CDB7DEB76D970FB6F894DEBF0FBECDBF23
:101960008091EA0180648093EA0180E40E948A10F9
:10197000853F9140C0F060E070E080E490E00E941C
:101980000E100E94130B9093C3018093C2018091AB
:10199000C2019091C30180399A4128F48091C1011C
:1019A00088608093C1018091C1018870882309F407
:1019B00049C18091020190910301FC01099560E009
:1019C00080E00E947E0783E00E94020C80E00E947B
:1019D000020C88E290E028E230E0F90120812F7BC0
:1019E000FC0120838091C1018E7F8093C1018AE038
:1019F0000E94500B0E94130B9C0188E493E0432F3C
:101A00004F932F93292F2F938F930E945D070F9051
:101A10000F900F900F901982EDC081E00E94500B43
:101A200080E090E0A8E4B3E48A839B83AC83BD8329
:101A300020E030E04AE755E46A817B818C819D811A
:101A40000E940105DC01CB018C8B9D8BAE8BBF8B83
:101A500020E030E040E85FE36C897D898E899F89D2
:101A60000E94921388232CF481E090E0998F888F54
:101A70003FC020E03FEF4FE757E46C897D898E89B6
:101A80009F890E946A1418164CF520E030E040E26D
:101A900051E46A817B818C819D810E940105DC017A
:101AA000CB01BC01CD010E94A904DC01CB01998FBF
:101AB000888F0FC080E991E09B8F8A8F8A8D9B8DE4
:101AC0000197F1F79B8F8A8F888D998D0197998F58
:101AD000888F888D998D892B69F714C06C897D89D1
:101AE0008E899F890E94A904DC01CB01998F888F80
:101AF000888D998D9D8F8C8F8C8D9D8D0197F1F7A1
:101B00009D8F8C8F8AE00E94500B80E090E0A8E4CB
:101B1000B3E48E839F83A887B98720E030E04AE74B
:101B200055E46E817F81888599850E940105DC01DD
:101B3000CB018A879B87AC87BD8720E030E040E8F7
:101B40005FE36A857B858C859D850E94921388233F
:101B50002CF481E090E09F878E873FC020E03FEF2C
:101B60004FE757E46A857B858C859D850E946A14C2
:101B700018164CF520E030E040E251E46E817F81A0
:101B8000888599850E940105DC01CB01BC01CD014E
:101B90000E94A904DC01CB019F878E870FC080E9DA
:101BA00091E0998B888B888999890197F1F7998BB6
:101BB000888B8E859F8501979F878E878E859F85D1
:101BC000892B69F714C06A857B858C859D850E9469
:101BD000A904DC01CB019F878E878E859F859B8B17
:101BE0008A8B8A899B890197F1F79B8B8A8B8981E4
:101BF0008F5F89838981843108F40FCF8FEF0E9432
:101C0000020C8AE00E94500B83E590E023E530E06F
:101C1000F9012081217F2460FC01208383E590E08D
:101C200023E530E0F90120812160FC0120838895C3
:101C300083E590E023E530E0F90120812E7FFC016F
:101C40002083ECCF00006D960FB6F894DEBF0FBE78
:101C5000CDBFDF91CF910895CF93DF93CDB7DEB79E
:101C60000000DF91CF910895CF93DF93CDB7DEB71A
:101C70008091040190910501FC0109950000DF911C
:101C8000CF910895CF93DF93CDB7DEB70000DF91FA
:101C9000CF910895CF93DF9300D0CDB7DEB79A836D
:101CA000898389819A8190930701809306010000BE
:101CB0000F900F90DF91CF910895CF93DF93CDB721
:101CC000DEB78091A20180718823F1F08091C1017B
:101CD00081708823C9F080E20E948A109C01809163
:101CE000AC019091AD012817390770F060E080E0F9
:101CF0000E947E078091A2018F7E8093A201809135
:101D0000EA018F7D8093EA0180910601909107019D
:101D1000FC0109950000DF91CF910895CF93DF93E7
:101D2000CDB7DEB70E94A60C0E94340E0E945D0E55
:101D30000000DF91CF910895CF93DF93CDB7DEB749
:101D4000F89484E290E024E230E0F90120812760F9
:101D5000FC01208387E290E027E230E0F901208156
:101D60002C6FFC0120838AE290E02AE230E0F90146
:101D70002081206FFC01208385E290E025E230E0A5
:101D8000F90120812861FC01208380E00E94020C7F
:101D900081E00E948A0B8CE790E02CE730E0F901AB
:101DA00020812064FC0120838AE790E02AE730E06C
:101DB000F90120812768FC0120838AE790E02AE767
:101DC00030E0F90120812064FC01208300008AE7D3
:101DD00090E0FC018081882F90E080749927892B06
:101DE000B1F788E790E0FC018081918184E490E084
:101DF00024E430E0F90120812260FC01208385E4A5
:101E000090E025E430E0F90120812360FC0120838B
:101E10008EE690E02EE630E0F90120812260FC01A0
:101E2000208387E490E029EFFC0120830E94130BBC
:101E30009093C3018093C2011092C4011092C50116
:101E40001092C6011092C7011092C10188E290E081
:101E500028E230E0F90120812F7BFC0120838AE019
:101E60000E94500B0E9487080E94061380E190E0B8
:101E70000E94961188E091E09093FE018093FD010D
:101E800078940000DF91CF9108951F920F920090F7
:101E90005F000F9211248F939F93AF93BF93CF93C3
:101EA000DF93CDB7DEB78091C4019091C501A091B9
:101EB000C601B091C7010196A11DB11D8093C40157
:101EC0009093C501A093C601B093C7018091EA0128
:101ED000882F90E081709927892B49F08091EB0140
:101EE0009091EC0101969093EC018093EB0180912D
:101EF000EA01882F90E082709927892B49F0809120
:101F0000ED019091EE0101969093EE018093ED0129
:101F10008091EA01882F90E084709927892B49F0FD
:101F20008091EF019091F00101969093F0018093E0
:101F3000EF018091EA01882F90E088709927892B22
:101F400049F08091F1019091F20101969093F20194
:101F50008093F1018091EA01882F90E080719927A8
:101F6000892B49F08091F3019091F40101969093AF
:101F7000F4018093F3018091EA01882F90E0807250
:101F80009927892B49F08091F5019091F6010196EE
:101F90009093F6018093F5018091EA01882F90E0FB
:101FA00080749927892B49F08091F7019091F8016D
:101FB00001969093F8018093F7018091EA018823BC
:101FC0004CF48091F9019091FA0101969093FA01F5
:101FD0008093F9010000DF91CF91BF91AF919F9164
:101FE0008F910F9000925F000F901F901895CF93E4
:101FF000DF93CDB7DEB7F89481E0DF91CF910895FC
:10200000CF93DF9300D0CDB7DEB79A8389837894DE
:1020100000000F900F90DF91CF910895CF93DF9341
:1020200000D000D000D0CDB7DEB79C838B837E83F9
:102030006D831A820E94F70F89835AC08B819C811D
:102040008830910589F18930910548F482309105F5
:10205000E9F08430910509F1019789F048C0803298
:10206000910581F18132910518F4409721F13FC02B
:102070008034910571F18038910591F138C08D81DE
:102080009E819093EC018093EB0131C08D819E8104
:102090009093EE018093ED012AC08D819E819093F3
:1020A000F0018093EF0123C08D819E819093F20116
:1020B0008093F1011CC08D819E819093F4018093E7
:1020C000F30115C08D819E819093F6018093F501F7
:1020D0000EC08D819E819093F8018093F70107C017
:1020E0008D819E819093FA018093F90100001982FD
:1020F0008981882309F0A2CFCE0102960E940010A8
:10210000000026960FB6F894DEBF0FBECDBFDF915C
:10211000CF910895CF93DF9300D000D01F92CDB719
:10212000DEB78D831C820E94F70F8B835BC08D818D
:10213000882F90E08830910589F1893091054CF421
:1021400082309105E9F08430910509F1019789F019
:1021500048C08032910581F1813291051CF440978D
:1021600021F13FC08034910571F18038910591F1E2
:1021700038C08091EB019091EC019A83898331C042
:102180008091ED019091EE019A8389832AC080911C
:10219000EF019091F0019A83898323C08091F1012E
:1021A0009091F2019A8389831CC08091F3019091F0
:1021B000F4019A83898315C08091F5019091F6010D
:1021C0009A8389830EC08091F7019091F8019A83D8
:1021D000898307C08091F9019091FA019A838983DC
:1021E00000001B828B81882309F0A1CFCE010496C9
:1021F0000E94001089819A810F900F900F900F908C
:102200000F90DF91CF9108951F920F9200905F0081
:102210000F9211242F938F939F93EF93FF93CF935C
:10222000DF9300D000D0CDB7DEB780EC90E0FC01AA
:1022300080818A8386EC90E0FC0180818B838A8197
:102240008C71898380915A018F5F8F718C8380910B
:102250005B019C81981719F482E089830BC08C8103
:1022600080935A018C81882F90E0885C9E4F2B814F
:10227000FC01208390915C018981892B80935C0112
:1022800000000F900F900F900F90DF91CF91FF9172
:10229000EF919F918F912F910F9000925F000F907F
:1022A0001F9018951F920F9200905F000F921124BB
:1022B0002F933F938F939F93EF93FF93CF93DF934E
:1022C0001F92CDB7DEB790915801809159019817B0
:1022D000A1F0809159018F5F8F71898389818093EB
:1022E000590186EC90E02981222F30E0285E3E4F94
:1022F000F9012081FC01208309C081EC90E021ECF0
:1023000030E0F90120812F7DFC01208300000F9037
:10231000DF91CF91FF91EF919F918F913F912F91FD
:102320000F9000925F000F901F901895CF93DF934E
:1023300000D0CDB7DEB79A838983109258011092EE
:10234000590110925A0110925B0189819A81992357
:102350002CF480EC90E022E0FC01208385EC90E0FE
:1023600029813A81232F33272078FC01208384ECB4
:1023700090E02981FC01208381EC90E028E9FC01B8
:10238000208382EC90E026E0FC01208300000F9087
:102390000F90DF91CF910895CF93DF9300D01F92DC
:1023A000CDB7DEB790915A0180915B01981719F46F
:1023B00080E091E01FC080915B018F5F8F71898306
:1023C0008981882F90E0885C9E4FFC0180818A8300
:1023D00080915C018B83898180935B0110925C0109
:1023E0008B81882F90E0382F22278A81882F90E0D8
:1023F000820F931F0F900F900F90DF91CF91089550
:10240000CF93DF9300D0CDB7DEB78A838091580198
:102410008F5F8F718983000080915901998198178E
:10242000D9F38981882F90E0885E9E4F2A81FC0134
:10243000208389818093580181EC90E021EC30E089
:10244000F90120812062FC01208300000F900F9091
:10245000DF91CF910895CF93DF9300D0CDB7DEB752
:102460009A8389830BC089819A819C012F5F3F4F9A
:102470003A832983FC0180810E94001289819A811C
:10248000FC018081882379F700000F900F90DF9185
:10249000CF9108951F93CF93DF9300D000D01F9268
:1024A000CDB7DEB79D838C8303C0812F0E940012BD
:1024B0008C819D819C012F5F3F4F3D832C839A83AC
:1024C000898389819A81FC0184918B838B81182F68
:1024D000112359F700000F900F900F900F900F905D
:1024E000DF91CF911F9108951F920F9200905F008E
:1024F0000F9211242F938F939F93EF93FF93CF937A
:10250000DF9300D000D0CDB7DEB788EC90E0FC01BF
:1025100080818A838EEC90E0FC0180818B838A81AC
:102520008C71898380919F018F5F8F718C838091E3
:10253000A0019C81981719F482E089830BC08C81DB
:1025400080939F018C81882F90E083589E4F2B8130
:10255000FC0120839091A1018981892B8093A101A5
:1025600000000F900F900F900F90DF91CF91FF918F
:10257000EF919F918F912F910F9000925F000F909C
:102580001F9018951F920F9200905F000F921124D8
:102590002F933F938F939F93EF93FF93CF93DF936B
:1025A0001F92CDB7DEB790919D0180919E01981743
:1025B000A1F080919E018F5F8F71898389818093C3
:1025C0009E018EEC90E02981222F30E0235A3E4F6D
:1025D000F9012081FC01208309C089EC90E029ECFD
:1025E00030E0F90120812F7DFC01208300000F9055
:1025F000DF91CF91FF91EF919F918F913F912F911B
:102600000F9000925F000F901F901895CF93DF936B
:10261000CDB7DEB789E690E029E630E0F901208108
:102620002560FC0120838DE390E02DE330E0F9018B
:1026300020812360FC0120830000DF91CF91089569
:102640001F920F9200905F000F9211248F939F931F
:10265000CF93DF93CDB7DEB78091C101807188231E
:10266000E9F08091A2018370813051F48091A8013A
:102670009091A90101969093A9018093A8010EC0A1
:102680008091A2018370823049F48091A8019091D9
:10269000A90101979093A9018093A8010000DF91FF
:1026A000CF919F918F910F9000925F000F901F909C
:1026B00018951F920F9200905F000F9211248F9334
:1026C0009F93CF93DF93CDB7DEB78091C101807127
:1026D0008823E9F08091A2018C70843051F48091BC
:1026E000AA019091AB0101969093AB018093AA014E
:1026F0000EC08091A2018C70883049F48091AA01AB
:102700009091AB0101979093AB018093AA010000D7
:10271000DF91CF919F918F910F9000925F000F906A
:102720001F9018950E94461408F481E008950E94B5
:10273000AB130C9485050E947E0558F00E94770526
:1027400040F029F45F3F29F00C946E0551110C9470
:10275000FB040C9474050E94D80468F39923B1F328
:10276000552391F3951B550BBB27AA2762177307B7
:10277000840738F09F5F5F4F220F331F441FAA1F4B
:10278000A9F335D00E2E3AF0E0E832D09150504007
:10279000E695001CCAF72BD0FE2F29D0660F771FB5
:1027A000881FBB1F261737074807AB07B0E809F09B
:1027B000BB0B802DBF01FF2793585F4F3AF09E3F20
:1027C000510578F00C946E050C94FB045F3FE4F324
:1027D000983ED4F3869577956795B795F7959F5F63
:1027E000C9F7880F911D9695879597F90895E1E0AF
:1027F000660F771F881FBB1F621773078407BA070E
:1028000020F0621B730B840BBA0BEE1F88F7E09568
:102810000895E89409C097FB3EF4909580957095D3
:1028200061957F4F8F4F9F4F9923A9F0F92F96E91C
:10283000BB279395F695879577956795B795F11191
:10284000F8CFFAF4BB0F11F460FF1BC06F5F7F4F2E
:102850008F4F9F4F16C0882311F096E911C0772340
:1028600021F09EE8872F762F05C0662371F096E849
:10287000862F70E060E02AF09A95660F771F881F18
:10288000DAF7880F9695879597F90895990F0008BC
:10289000550FAA0BE0E8FEEF16161706E807F90732
:1028A000C0F012161306E407F50798F0621B730BCD
:1028B000840B950B39F40A2661F0232B242B252B4E
:1028C00021F408950A2609F4A140A6958FEF811DF1
:1028D000811D08950E94461408F48FEF0895DB01CE
:1028E0008F939F930E94A214BF91AF91A29F800DDE
:1028F000911DA39F900DB29F900D1124089597FBF9
:10290000072E16F4009407D077FD09D00E94AD146D
:1029100007FC05D03EF4909581959F4F08957095E2
:1029200061957F4F0895A29FB001B39FC001A39FFF
:10293000700D811D1124911DB29F700D811D1124F8
:10294000911D08950E949314A59F900DB49F900D22
:10295000A49F800D911D11240895AA1BBB1B51E15A
:1029600007C0AA1FBB1FA617B70710F0A61BB70BFF
:10297000881F991F5A95A9F780959095BC01CD01A4
:102980000895EF920F931F93CF93DF93E80147FDD4
:1029900002C034E001C034E1042E000C550B57FF97
:1029A00003C0519541955109E32E022F242FAE010A
:1029B0000E942B17CE01DF91CF911F910F91EF90C5
:1029C0000895662777270C948518FC018827992796
:1029D000E89421912032E9F3293010F02E30C8F329
:1029E0002B3241F02D3239F4689404C00E9419153D
:1029F000820F911D219120532A30C0F31EF490952F
:102A000081959F4F08954532510520F4423010F0D2
:102A10000C940E15FB011082CB010895BB274A30A0
:102A200031F4992322F4BDE2909581959F4F0C9447
:102A300022157AE0979F902D879F802D910D11246C
:102A40000895BB27FB015527AA27880F991FAA1FA6
:102A5000A41710F0A41B83955051B9F7A05DAA33B9
:102A600008F0A95DA193009779F7B111B193119284
:102A7000CB010C94E21ACF93DF93EC018B81886039
:102A80008B83CE010E944A152B81277F2B83DF91F8
:102A9000CF910895ABE0B0E0E0E5F5E10C948F1B39
:102AA0006C017B018A01FC0117821682838181FF00
:102AB000CCC1CE0101963C01F6019381F70193FD53
:102AC000859193FF81917F01882309F4BAC18532F2
:102AD00039F493FD859193FF81917F01853229F42B
:102AE000B60190E00E94F21AE7CF912C212C312CF4
:102AF000FFE1F315D8F08B3279F038F4803279F0B9
:102B00008332A1F4232D20611DC08D3261F080330A
:102B100069F4232D216016C0832D8260382EE32DA9
:102B2000E4603E2E2AC0F32DF8601DC037FC2DC096
:102B300020ED280F2A3040F08E32B9F436FC81C1E6
:102B4000232D2064322E19C036FE06C08AE0989EDE
:102B5000200D1124922E11C0EAE02E9E200D11248A
:102B6000222EF32DF0623F2E08C08C3621F4832DE7
:102B70008068382E02C0883641F4F70193FD8591B4
:102B800093FF81917F018111B3CF982F9F7D955441
:102B9000933028F40C5F1F4F9FE399830DC0833659
:102BA00031F0833771F0833509F059C021C0F80145
:102BB000808189830E5F1F4F88248394912C530159
:102BC00013C02801F2E04F0E511CF801A080B18023
:102BD00036FE03C0692D70E002C06FEF7FEFC501C4
:102BE0000E94D71A4C018201F32DFF773F2E16C0A9
:102BF000280122E0420E511CF801A080B18036FE6F
:102C000003C0692D70E002C06FEF7FEFC5010E9425
:102C1000CC1A4C01F32DF0683F2E820133FC1BC00F
:102C2000822D90E088169906B0F4B60180E290E01B
:102C30000E94F21A2A94F4CFF50137FC859137FEF1
:102C400081915F01B60190E00E94F21A21102A944E
:102C500021E0821A91088114910471F7E8C084364A
:102C600011F0893641F5F80137FE07C060817181A6
:102C7000828193810C5F1F4F08C060817181072E94
:102C8000000C880B990B0E5F1F4FF32DFF763F2E24
:102C900097FF09C090958095709561957F4F8F4FF4
:102CA0009F4FF0683F2E2AE030E0A3010E942E1BC8
:102CB000882E861845C0853731F4232D2F7EB22EFD
:102CC0002AE030E025C0932D997FB92E8F36C1F0D0
:102CD00018F4883579F0B5C0803719F0883721F0BD
:102CE000B0C0E92FE061BE2EB4FE0DC0FB2DF46034
:102CF000BF2E09C034FE0AC0292F2660B22E06C09E
:102D000028E030E005C020E130E002C020E132E000
:102D1000F801B7FE07C060817181828193810C5FE9
:102D20001F4F06C06081718180E090E00E5F1F4FF1
:102D3000A3010E942E1B882E8618FB2DFF773F2EA5
:102D400036FE0DC0232D2E7FA22E891458F434FE9A
:102D50000BC032FC09C0832D8E7EA82E05C0B82C76
:102D6000A32C03C0B82C01C0B92CA4FE0FC0FE01D7
:102D7000E80DF11D8081803321F49A2D997EA92ED2
:102D800009C0A2FE06C0B394B39404C08A2D86780D
:102D900009F0B394A3FC11C0A0FE06C0B21488F4DD
:102DA000280C922C9B180EC0B21460F4B60180E27D
:102DB00090E00E94F21AB394F7CFB21418F42B18D3
:102DC00002C0982C212CA4FE10C0B60180E390E034
:102DD0000E94F21AA2FE17C0A1FC03C088E790E08F
:102DE00002C088E590E0B6010CC08A2D867859F0C3
:102DF000A1FE02C08BE201C080E2A7FC8DE2B60119
:102E000090E00E94F21A891438F4B60180E390E051
:102E10000E94F21A9A94F7CF8A94F301E80DF11DFB
:102E20008081B60190E00E94F21A8110F5CF222035
:102E300009F442CEB60180E290E00E94F21A2A9490
:102E4000F6CFF6018681978102C08FEF9FEF2B9618
:102E5000E2E10C94AB1BA9E0B0E0E1E3F7E10C94F4
:102E6000951B6A01122FB02E2BE3201720F0FF24B0
:102E7000F394F00E02C02CE3F22E0F2D27E0AE01EA
:102E80004F5F5F4F0E94D319BC014981842F897025
:102E9000813031F0E1FC06C0E0FE06C090E205C0E2
:102EA0009DE203C09BE201C090E05E2D507143FFA4
:102EB0003CC0911102C083E001C084E0811718F486
:102EC000212F281B01C020E051110BC0F601822FD9
:102ED00030E2882319F031938150FBCFC20ED11C10
:102EE00020E0992329F0D6019C93F60131966F01D9
:102EF000C6010396E2FE0AC03EE4D6013C9341E4DB
:102F000011964C93119712963C9306C03EE6F6013B
:102F1000308341E641833283FC01322F40E2332388
:102F200009F442C041933150FACF42FF44C091119D
:102F300002C083E001C084E0811718F4212F281B10
:102F400001C020E051110BC0F601822F30E288232E
:102F500019F031938150FBCFC20ED11C20E0992390
:102F600029F0D6019C93F60131966F01C6010396B4
:102F7000E2FE0BC039E4D6013C933EE411963C934B
:102F8000119736E412963C9307C039E6F601308378
:102F90003EE6318336E63283FC01322F40E23323B2
:102FA00019F041933150FBCFFC01E20FF11D10826B
:102FB0008EEF9FEFA6C021E030E0911102C020E02B
:102FC00030E0161617061CF4FB01319602C0E1E052
:102FD000F0E02E0F3F1FBB2021F0EB2DF0E03196EB
:102FE00002C0E0E0F0E02E0F3F1FE12FF0E02E17CF
:102FF0003F071CF4121B212F01C020E08E2D887189
:1030000059F4F601822F30E2882319F03193815070
:10301000FBCFC20ED11C20E0992329F0D6019C934E
:10302000F60131966F0151110BC0F601822F90E32A
:10303000882319F091938150FBCFC20ED11C20E060
:103040000F2D060F9A81342F307144FF03C0913346
:1030500009F40150101624F4093018F008E001C0FA
:1030600001E0AB0177FF02C040E050E0FB01E41B50
:10307000F50BA1E0B0E0AC0FBD1FEA0FFB1F8EE225
:10308000A82E4B01801A91080B2D10E01195019587
:1030900011094F3FBFEF5B0721F4D601AC921196A7
:1030A0006D01641775072CF08416950614F4818160
:1030B00001C080E3415051093196D60111967D013E
:1030C0004017510724F0D6018C936701E2CF6417B3
:1030D000750739F4963320F4953319F4311101C092
:1030E00081E3F6018083F701822F90E2882319F0B3
:1030F00091938150FBCFF701E20FF11D108280E028
:1031000090E02996ECE00C94B11BA0E0B0E0EBE875
:10311000F8E10C94951BEC016B016115710519F038
:10312000FB01918380837E01FFEFEF1AFF0A088184
:10313000802F90E00E94AB1A892B11F0E701F3CFAA
:103140000D3239F47E0182E0E80EF11C098111E0B4
:1031500008C00B3229F47E0192E0E90EF11C0981CE
:1031600010E0E701219743E050E064E870E0CE0111
:103170000E94B41A892BC1F4239645E050E06FE712
:1031800070E0CE010E94B41A892B09F42596C1146F
:10319000D10419F0F601D183C0831111F6C060E0AB
:1031A00070E080E89FE7FAC043E050E06CE770E031
:1031B000CE010E94B41A892B59F4C114D10409F428
:1031C000E9C0F2E0EF0EF11CF601F182E082E2C00C
:1031D00020E030E0A901C0E0D0E0F70180EDA82EAA
:1031E000A00E89E08A1530F1912F9260B92E812FBF
:1031F000887012FF04C0811124C0219622C0811161
:103200002197A5E0B0E00E94A214DC01CB01880F59
:10321000991FAA1FBB1F9C01AD012A0D311D411D25
:10322000511D283989E93807480789E1580748F0CE
:10323000166006C09EEFA9120AC013FD40C01860B8
:10324000B12E8FEFE81AF80A00811B2DC6CF802F10
:103250008F7D8534A1F580818D3211F4106106C017
:103260008B3221F0319661E070E004C081813296AA
:1032700062E070E080538A3018F0E61BF70B1FC045
:1032800060E070E060389CE079075CF4DB01AA0F35
:10329000BB1FAA0FBB1F6A0F7B1F660F771F680F2C
:1032A000711D3196DF0111978C9180538A3050F354
:1032B00014FF03C0719561957109C60FD71F11FFE7
:1032C00008C0C114D10429F0CF010197F601918300
:1032D0008083CA01B9010E940914212F2370233071
:1032E00019F04B015C0106C04B015C01B7FAB094C8
:1032F000B7F8B09420E030E0A901C501B4010E9404
:103300009213882309F43EC0D7FF06C0D195C1951A
:10331000D1090BE910E002C003EB10E06801F8E10D
:10332000CF1AD10890E2E92EF12CCE15DF0574F00A
:10333000F8012591359145915491C501B4010E9440
:1033400001054B015C01CE19DF09EFCF04501109D3
:10335000F594E7940C151D0541F78A2D880F8B2DE8
:10336000881F8F3F49F020E030E0A901C501B4017A
:103370000E949213811106C082E290E090930202B3
:1033800080930102C501B40109C060E070E080E8EB
:103390009FEF04C060E070E080EC9FE7CDB7DEB740
:1033A000ECE00C94B11B283008F027E03327DA0159
:1033B000990F311D87FD916000966105710539F403
:1033C00032602E5F3D9330E32A95E1F708959F3FE9
:1033D00030F080387105610509F03C5F3C5F3D933A
:1033E000913008F08068911DDF93CF931F930F9366
:1033F000FF92EF92192F987F9695E92F96959695C3
:10340000E90FFF27EF5EFE4F99273327EE24FF24B5
:10341000A701E70105900894079428F4360FE71EEA
:10342000F81E491F511D660F771F881F991F0694AC
:10343000A1F70590079428F4E70EF81E491F561FC0
:10344000C11D770F881F991F661F0694A1F705906D
:10345000079428F4F80E491F561FC71FD11D880F67
:10346000991F661F771F0694A1F70590079420F413
:10347000490F561FC71FD81F990F661F771F881F38
:103480000694A9F784911095177041F0D695C795C9
:1034900057954795F794E7941A95C1F7E7EBF0E055
:1034A00068941590159135916591959105907FE2FD
:1034B0007395E118F10A430B560BC90BD009C0F7FD
:1034C000E10CF11E431F561FC91FD01D7EF470333F
:1034D00011F48A95E6CFE894015030F0080F0AF411
:1034E0000027021708F4202F2395022F7A3328F0A3
:1034F00079E37D932A95E9F710C07D932A9589F6A3
:10350000069497956795379517951794E118F10AE2
:10351000430B560BC90BD00998F023957E917395F8
:103520007A3308F070E37C932013B8F77E917061D2
:103530007D9330F0839571E37D9370E32A95E1F7F5
:103540001124EF90FF900F911F91CF91DF91992758
:1035500087FD9095089591110C948C1B803219F081
:1035600089508550C8F70895FB01DC014150504057
:1035700088F08D9181341CF08B350CF4805E659160
:1035800061341CF06B350CF4605E861B611171F3C5
:10359000990B0895881BFCCFFC0105906150704089
:1035A0000110D8F7809590958E0F9F1F0895FC010C
:1035B0006150704001900110D8F7809590958E0F62
:1035C0009F1F0895DC01FC01672F71917723E1F7BC
:1035D000329704C07C916D9370836291AE17BF07E0
:1035E000C8F308950F931F93CF93DF93FB012381BB
:1035F00021FD03C08FEF9FEF2CC022FF16C0468134
:103600005781248135814217530744F4A081B18149
:103610009D012F5F3F4F318320838C93268137811B
:103620002F5F3F4F3783268314C08B01EC01FB01D2
:103630000084F185E02D0995892BE1F6D8011696D5
:103640008D919C911797019617969C938E93169740
:10365000CE01DF91CF911F910F910895FA01AA2712
:10366000283051F1203181F1E8946F936E7F6E5FC5
:103670007F4F8F4F9F4FAF4FB1E03ED0B4E03CD073
:10368000670F781F891F9A1FA11D680F791F8A1F56
:10369000911DA11D6A0F711D811D911DA11D20D0BD
:1036A00009F468943F912AE0269F11243019305D77
:1036B0003193DEF6CF010895462F4770405D419368
:1036C000B3E00FD0C9F7F6CF462F4F70405D4A33B5
:1036D00018F0495D31FD4052419302D0A9F7EACF7D
:1036E000B4E0A6959795879577956795BA95C9F7AC
:1036F00000976105710508959B01AC010A2E06949F
:103700005795479537952795BA95C9F7620F731F57
:10371000841F951FA01D08959927882708952F922B
:103720003F924F925F926F927F928F929F92AF9251
:10373000BF92CF92DF92EF92FF920F931F93CF939E
:10374000DF93CDB7DEB7CA1BDB0B0FB6F894DEBF35
:103750000FBECDBF09942A88398848885F846E845B
:103760007D848C849B84AA84B984C884DF80EE80A5
:10377000FD800C811B81AA81B981CE0FD11D0FB6AE
:10378000F894DEBF0FBECDBFED010895F894FFCFD2
:1037900064009E0C2C0E420E00000002000000008F
:0637A00000120000000011
:00000001FF
