:100000000C94B0040C9451110C947D110C94CD04FB
:100010000C94CD040C94CD040C94CD040C94CD041C
:100020000C94CD040C94CD040C94CD040C94CD040C
:100030000C94CD040C94CD040C94CD040C94CD04FC
:100040000C94CC160C94CD040C94CD040C94CD04DB
:100050000C9457180C9485180C94CD040C94CD0472
:100060000C94CD040C94CD040C94CD040C94CD04CC
:100070000C941C190C944A190C94CD046E616E00FA
:10008000696E660000407A10F35A00A0724E18099B
:100090000010A5D4E80000E87648170000E40B54EF
:1000A000020000CA9A3B000000E1F50500008096BE
:1000B0009800000040420F000000A08601000000F0
:1000C000102700000000E8030000000064000000AA
:1000D00000000A00000000000100000000002C7673
:1000E000D888DC674F0823DFC1DFAE59E1B1B7968E
:1000F000E5E3E453C63AE651997696E8E6C28426EB
:10010000EB898C9B62ED407C6FFCEFBC9C9F40F2C6
:10011000BAA56FA5F490055A2AF75C936B6CF96742
:100120006DC11BFCE0E40D47FEF520E6B500D0ED07
:10013000902E0300943577050080841E080000206F
:100140004E0A000000C80C333333330F986E12830D
:100150001141EF8D2114893BE65516CFFEE6DB18E1
:10016000D1844B381BF77C1D901DA4BBE4242032A6
:1001700084725E228100C9F124ECA1E53D274E4145
:100180004E494E495459494E46CDCCCC3D0AD72311
:100190003C17B7D13877CC2B329595E6241FB14F59
:1001A0000A000020410000C84200401C4620BCBE9E
:1001B0004CCA1B0E5AAEC59D7452202025336900CF
:1001C0004C2020253369004D545F50574D0052207C
:1001D000253469004C202534690052202534693AC1
:1001E0002531690052432534693A2531690043209D
:1001F0002534693A253169004C432534693A253163
:1002000069004C202534693A253169002A4C494E51
:1002100045413A4420454E43202A004C494E453A38
:100220002569004552523A20256900456E633A20FF
:10023000256900424C54483A256900424C45443AED
:10024000256900506F773A2025690054494D453A99
:10025000202532696D202532697300424154543A99
:10026000202533692525002A53595354454D2053E1
:10027000415455532A000A536574205370656564D0
:100280003A000A426F742053746172742E000A425D
:100290006F742053746F702E00416B6B753A256933
:1002A000005049442D4F75743A2569004C696E65BC
:1002B0002D5265663A2569004D6F746F72204C654A
:1002C00066743A25692052696768743A2569000A9C
:1002D0004C696E65206973206C6F7374210A426FDC
:1002E000742073746F707065642E0A000A5265671B
:1002F000656C706172616D657465722075656265AB
:10030000726E6F6D6D656E2E000A536574204B44DE
:100310003A20000A536574204B493A20000A53657D
:1003200074204B503A20000A5049442D5265676CA6
:100330006572706172616D657465722065696E7356
:1003400074656C6C656E2E000A4261747465727916
:100350003A20000A53706565643A000A4B443A003B
:100360000A4B493A000A4B503A20000A4375727210
:10037000656E742076616C756573000A277427209A
:100380002D205365287429205370656564000A2761
:100390006727202D202847296F2044726976650041
:1003A0000A277327202D20285329746F7020526F3D
:1003B000626F74000A277027202D2053657420284F
:1003C00050296172616D657465722E000A0A50725F
:1003D0006F6772616D6D205049442D5265676C6581
:1003E00072204C696E69656E666F6C6765722E006F
:1003F000240400001D045F0A0E045E0A0004790A4A
:100400003E4261636B20746F204D61696E003E4314
:100410006F6E66696720506172616D2E003E537485
:10042000617274002A504944204C696E6520466F01
:100430006C2A00B2040000A4040C0C9804190C8A65
:10044000043D0C7C047D0B6E047E0B61047F0B531A
:1004500004800B3E546573742050726F6772616D37
:10046000003E436F6E666967205379732E003E4DE0
:10047000617A6520536F6C762E4949003E4D617A52
:100480006520536F6C762E2049003E4C696E6520C6
:10049000466F6C6C776572003E536F756E642054C6
:1004A000657374003E52656D6F746520436F6E74A2
:1004B0002E002A537065656479426F7456322A00A3
:1004C0002A455849542A00000000000000005F003F
:1004D000000007000700147F147F14242A7F2A12CB
:1004E00023130864623649552250000503000000BA
:1004F0001C2241000041221C0014083E0814080878
:100500003E08080050300000080808080800606035
:10051000000020100804023E5149453E00427F4041
:100520000042615149462141454B311814127F1058
:1005300027454545393C4A4949300171090503368B
:1005400049494936064949291E00363600000056F9
:10055000360000081422410014141414140041221F
:1005600014080201510906324979413E7E111111E8
:100570007E7F494949363E414141227F4141221C0B
:100580007F494949417F090909013E4149497A7F2B
:100590000808087F00417F41002040413F017F085B
:1005A0001422417F404040407F020C027F7F0408BC
:1005B000107F3E4141413E7F090909063E415121DC
:1005C0005E7F09192946464949493101017F0101E8
:1005D0003F4040403F1F2040201F3F4038403F6386
:1005E0001408146307087008076151494543007FE8
:1005F00041410002040810200041417F0004020133
:100600000204404040404000010204002054545481
:10061000787F484444383844444420384444487F30
:100620003854545418087E0901020C5252523E7F2D
:100630000804047800447D40002040443D007F10C1
:1006400028440000417F40007C041804787C0804A2
:10065000047838444444387C1414140808141418DA
:100660007C7C080404084854545420043F4440202F
:100670003C4040207C1C2040201C3C4030403C44FE
:10068000281028440C5050503C4464544C440008FA
:1006900036410000007F00000041360800100808C5
:1006A000100800000000003507000029076E0F2128
:1006B00007730F1607780F09077D0FFE06820FF1EB
:1006C00006870FE9068C0FDD06910FCF06960F3EC9
:1006D0004261636B20746F204D61696E003E42651C
:1006E000657020536F756E64003E5061636D616E7E
:1006F000003E4D6172696F2042726F742E003E4B56
:100700006E6967687420522E003E4D6F6E6B65797E
:100710002049736C2E003E42656574686F76656E85
:10072000003E546574726973003E496E6469616E7F
:1007300061204A2E002A536F756E642054657374CD
:100740002A002D4552524F522D20002D444542552E
:10075000472D2000F1B4656F6568676543256F63B9
:100760006F63616E0C63616F616F4E0C4F656F5507
:1007700068676543256F67686F686F4A4F476F68A2
:1007800067656367686F686F4700F03F85A6A56C73
:100790008E15AE16AE156C85A6A58C8E154E136FF4
:1007A00000F1648585AF658165686F6E086F618F44
:1007B0006E088F6E058F6E0A6E0C8E0B6E0A9E0889
:1007C00085886A86686581836E0C8F618F6E088F5D
:1007D0006E058F6E0A6E0C8E0B6E0A9E0885886AF7
:1007E00086686581836E0C6F888786848F858F8E7F
:1007F000098E0A818F8E0A81836F888786848F8510
:100800008F8E218F8E218E214F888786848F858FB2
:100810008E098E0A818F8E0A81836F846F836F8128
:1008200000F07D4586682E11438506488A6C2E1699
:100830004A8C4E114E134E154586680E114E138E7E
:10084000152E1648884E154E13884E154E13884E99
:10085000164E158E132E1100F170AE0CAFACAFA773
:10086000AFA4AFACA78F848FA1AFAE21AFA8AFA5C7
:10087000AFAE21A88F858FAE0CAFACAFA7AFA4AF42
:10088000ACA78F848FA4A5A6AFA6A7A8AFA8A9AA36
:10089000AFBC00F1A0456E0C61638583616E0C4EA8
:1008A0000A6E0A614563614E0C6E0C614345414E10
:1008B0000A2E0A6F43664A68664565614563614E64
:1008C0000C6E0C614345414E0A4E0A00F0C4686844
:1008D00068246F666666236F68686864696969681A
:1008E0006E146E146E142E116F6666666369696904
:1008F000686E166E166E162E136F6E186E186E16C4
:100900002E146E116E186E186E162E146E116E184F
:100910006E186E162E142E112E1800F1FA666166EE
:1009200000767069635E58534F4A46423E3B373407
:10093000312E2C29272523211F1D1B1A18171514AA
:10094000131211100F0E0D0C0C0B0A0A09080807E0
:10095000074C6F7720426174746572793A2569009B
:1009600011241FBECFEFD0E1DEBFCDBF11E0A0E06C
:10097000B1E0E4E8F6E402C005900D92A432B107BC
:10098000D9F725E0A4E2B1E001C01D92A832B20778
:10099000E1F70E945A0D0C9440230C94000081E76B
:1009A0000E94E2170E944C1880937C040E94311828
:1009B0000895EF92FF920F931F93CF93DF93CDB7DC
:1009C000DEB764970FB6F894DEBF0FBECDBF0E94AE
:1009D000BD0D20917E0430917F04C901A0E0B0E0FC
:1009E0009C01AD0120593A4141095109A4E6B0E00A
:1009F0000E94611D20EB34E040E050E00E94111D98
:100A0000E22EF32E042F152F60E080E00E94250FC8
:100A100040E061E087E692E00E940B0F68E080E032
:100A20000E94250F8E2D9F2DA02FB12F8536910569
:100A3000A105B10520F084E690E0A0E0B0E09F932E
:100A40008F938BE592E09F938F938E010F5F1F4FE3
:100A50001F930F930E945F1F41E061E0C8010E9455
:100A6000F40E60E180E00E94250F0E94A5157C0134
:100A70000E94A515AC019701A9E8B8E80E94521D93
:100A800096958795929582958F7089279F70892773
:100A90006CE3689F9001699F300D1124E21AF30AFC
:100AA000FF92EF929A010E94521D9695879592951A
:100AB00082958F7089279F7089279F938F938BE4EE
:100AC00092E09F938F931F930F930E945F1F41E0CB
:100AD00061E0C8010E94F40E44E567E180E00E94F5
:100AE0002A0F48E168E18AE20E943F0F68E180E056
:100AF0000E94250F0F2EFDE7EF2EF4E0FF2EF02DC4
:100B0000F701808181701F928F9383E492E09F931D
:100B10008F931F930F930E945F1F41E061E0C80114
:100B20000E94F40E60E280E00E94250FF7018081B0
:100B3000869581701F928F938BE392E09F938F93A2
:100B40001F930F930E945F1F41E061E0C8010E9464
:100B5000F40E68E280E00E94250FF701808182FB9D
:100B6000882780F91F928F9383E392E09F938F935E
:100B70001F930F930E945F1F0FB6F894DEBF0FBE46
:100B8000CDBF41E061E0C8010E94F40E68E180E35E
:100B90000E94250FF7018081829581701F928F93AB
:100BA0008BE292E09F938F931F930F930E945F1F9E
:100BB00041E061E0C8010E94F40E60E280E30E941F
:100BC000250FF701808185FB882780F91F928F937D
:100BD00083E292E09F938F931F930F930E945F1F76
:100BE00041E061E0C8010E94F40E68E280E30E94E7
:100BF000250F80918404869581701F928F938BE1DD
:100C000092E09F938F931F930F930E945F1F41E089
:100C100061E0C8010E94F40E0E94540F0FB6F894D0
:100C2000DEBF0FBECDBF64960FB6F894DEBF0FBE19
:100C3000CDBFDF91CF911F910F91FF90EF9008955D
:100C4000EF92FF920F931F93CF93DF93CDB7DEB751
:100C500064970FB6F894DEBF0FBECDBF0E94BD0DE6
:100C600060E080E00E94250F40E061E08CE092E0CF
:100C70000E940B0F68E080E00E94250F0F2EF4E821
:100C8000EF2EF4E0FF2EF02DF70185891F928F9350
:100C900082818F9381818F9382E092E09F938F93E3
:100CA0008E010F5F1F4F1F930F930E945F1F41E044
:100CB00061E0C8010E94F40E60E180E00E94250F0F
:100CC000F70186891F928F9384818F9383818F93FD
:100CD00088EF91E09F938F931F930F930E945F1F64
:100CE00041E061E0C8010E94F40E68E180E00E94EA
:100CF000250FF70187891F928F9386818F938581B6
:100D00008F938EEE91E09F938F931F930F930E948A
:100D10005F1F41E061E0C8010E94F40E60E280E0E4
:100D20000E94250FF701808D1F928F9380858F93EE
:100D300087818F9384EE91E09F938F931F930F93FE
:100D40000E945F1F0FB6F894DEBF0FBECDBF41E01B
:100D500061E0C8010E94F40E68E280E00E94250F65
:100D6000F701818D1F928F9382858F9381858F9359
:100D70008AED91E09F938F931F930F930E945F1FC3
:100D800041E061E0C8010E94F40E40E360E08FE2C0
:100D90000E943F0F68E080E30E94250F0F2EFBE6C4
:100DA000EF2EF4E0FF2EF02DF70187818F938681DF
:100DB0008F9384ED91E09F938F931F930F930E94E5
:100DC0005F1F41E061E0C8010E94F40E60E180E332
:100DD0000E94250FF70181858F9380858F938EEC7C
:100DE00091E09F938F931F930F930E945F1F41E0A9
:100DF00061E0C8010E94F40E68E180E30E94250FC3
:100E000040E061E087EC91E00E940B0F60E280E33C
:100E10000E94250FF70182818F9381818F9380EC4F
:100E200091E09F938F931F930F930E945F1F41E068
:100E300061E0C8010E94F40E68E280E30E94250F81
:100E4000F70184818F9383818F9389EB91E09F9346
:100E50008F931F930F930E945F1F0FB6F894DEBF0E
:100E60000FBECDBF41E061E0C8010E94F40E0E94B8
:100E7000540F64960FB6F894DEBF0FBECDBFDF915E
:100E8000CF911F910F91FF90EF900895942F990F9C
:100E9000990F990F969F602D1124982F990F890F04
:100EA000880F849F802D11240E94250F08950E9491
:100EB000770D8FEF80937C0480E70E940918809162
:100EC0007C040E943A180E94311844E650E06AE01F
:100ED00070E08FEC94E00E946C14809306050895F6
:100EE000CF93DF9380912501882309F4ABC0EFE015
:100EF000F5E0808181608083808182608083808151
:100F00008460808381E00E949A17449708F4A5C00A
:100F10000E94A9110E94EE119093A7048093A60449
:100F200060E070E081E090E00E9455176091A604B7
:100F30007091A7044CEA54E080E090E00E940E1308
:100F4000EC018091010190910201BC016C1B7D0BB1
:100F50008C0F9D1F0E949412E9E9F4E02EE934E021
:100F600091E040E081918111942FE217F307D1F7CE
:100F7000992329F0809124018F5F8093240180912F
:100F800024018A3068F01092250160E080E00E9420
:100F9000581283E00E944D158FEC92E00E940A19CE
:100FA00084E00E949A178139914040F060E070E03F
:100FB00084E090E00E9455171092240182E00E9484
:100FC0009A178536910508F448C0EBE6F4E0848171
:100FD0008F9383818F9382818F9381818F9388EB0D
:100FE00092E09F938F930E940E128091A7048F939B
:100FF0008091A6048F938CEA92E09F938F930E9436
:101000000E12DF93CF9381EA92E09F938F930E9419
:101010000E120E9432159F938F9389E992E09F935D
:101020008F930E940E1260E070E082E090E00E94D8
:1010300055178DB79EB742960FB6F8949EBF0FBE58
:101040008DBF0BC0EFE0F5E080818E7F80838081D3
:101050008D7F808380818B7F8083DF91CF91089506
:101060000F931F93CF93DF93CDB7DEB72F970FB6B4
:10107000F894DEBF0FBECDBF8CEC93E00E940A193E
:1010800084EB93E00E940A1980EA93E00E940A1917
:101090008EE893E00E940A198BE793E00E940A19F8
:1010A0008BE693E00E940A1985E693E00E940A19F4
:1010B0006091A8047091A9048091AA049091AB0456
:1010C0008E010F5F1F4F21E044E00E94BF1D0E9470
:1010D000FB1880E693E00E940A196091A2047091C7
:1010E000A3048091A4049091A50421E044E00E940F
:1010F000BF1D0E94FB188BE593E00E940A196091C6
:101100009E0470919F048091A0049091A10421E01D
:1011100044E00E94BF1D0E94FB1883E593E00E94FB
:101120000A1980910101909102010E94AF1580E09F
:101130000E944D1588E493E00E940A1980917E0474
:1011400090917F040E94AF152F960FB6F894DEBFE2
:101150000FBECDBFDF91CF911F910F9108950F93D7
:101160001F93CF93DF938C01C1E0DFEFDC0F0E9470
:10117000C818811521E09207D1F38A3029F4F801CB
:10118000ED0FF11D108206C0F801ED0FF11D8083F7
:10119000CF5FEBCFDF91CF911F910F910895CF9348
:1011A000DF93CDB7DEB72A970FB6F894DEBF0FBE38
:1011B000CDBF87E293E00E940A198DE193E00E947F
:1011C0000A19CE0101960E94AF08CE0101960E9435
:1011D000FB18CE0101960E94DF1D6093A804709356
:1011E000A9048093AA049093AB0483E193E00E9446
:1011F0000A19CE0101960E94AF08CE0101960E9405
:10120000FB18CE0101960E94DF1D6093A20470932B
:10121000A3048093A4049093A50489E093E00E9422
:101220000A19CE0101960E94AF08CE0101960E94D4
:10123000FB18CE0101960E94DF1D60939E047093FF
:101240009F048093A0049093A1048CEE92E00E94EE
:101250000A192A960FB6F894DEBF0FBECDBFDF91F4
:10126000CF9108958F929F92AF92BF92CF92DF92CB
:10127000EF92FF921F93CF93DF93CDB7DEB72A97FC
:101280000FB6F894DEBF0FBECDBF0E94C8188F3FC7
:10129000910511F008F09BC0182F0E94C8180A97FA
:1012A000E1F7103709F049C060E080E00E94581271
:1012B00083E00E944D150E94CF0820E030E040E01E
:1012C00053E460919E0470919F048091A0049091DA
:1012D000A1040E94AA100E944B104B015C0120E067
:1012E00030E040E053E46091A2047091A304809147
:1012F000A4049091A5040E94AA100E944B106B01B7
:101300007C0120E030E040E053E46091A80470915B
:10131000A9048091AA049091AB040E94AA100E9493
:101320004B10DC01CB012CEA34E0A401B6010E9491
:10133000E31280E00E944D154AC0133781F48EE815
:1013400092E00E940A1960E080E00E9458120E9418
:10135000300880E00E944D151092250138C01736E4
:10136000D1F482E892E00E940A1961E081E00E94D3
:1013700058128091010190910201BC010E949412C7
:101380008CEA94E00E94BC1381E00E944D1581E03C
:10139000809325011CC01437D1F486E792E00E94A7
:1013A0000A1983E00E944D15CE0101960E94AF08F4
:1013B000CE0101960E94E31D9093020180930101EA
:1013C000CE0101960E94FB1880E00E944D152A96DE
:1013D0000FB6F894DEBF0FBECDBFDF91CF911F9146
:1013E000FF90EF90DF90CF90BF90AF909F908F9045
:1013F0000895CF93DF9380917C048F708F30D9F064
:1014000060E080E00E945812C5E0D5E08C810E9427
:10141000A81440E951E060E070E082E89AE00E94A0
:101420006C148A8344E650E060E070E087EE9AE056
:101430000E946C148B83DF91CF91089580910001FD
:101440008823B9F11092000180E797E00E943116DD
:1014500080E090E0A0E0BFE38093A8049093A9040B
:10146000A093AA04B093AB041092A2041092A30418
:101470001092A4041092A5048DEC9CECACE4BFE3A4
:1014800080939E0490939F04A093A004B093A10422
:101490000E9430082CEA34E046E650E060E070E05C
:1014A00080E490E00E94E312EDE7F4E08081816047
:1014B00080830E9432090E94F909089508950E94CC
:1014C000FF0B44E150E06AE070E08EE19AE00E9498
:1014D0006C14809309050E94BD0D0E94540F2FEFDC
:1014E00089E698E1215080409040E1F700C000007B
:1014F00008950E94FF0B809109050E94A8140E9484
:10150000E60B0895CF92DF92EF92FF920F931F9315
:10151000CF93DF93CDB7DEB760970FB6F894DEBFF9
:101520000FBECDBF8091060186301CF01BEF180F57
:1015300001C010E00E94BD0DC12E110FDD08C601D3
:10154000880F991F880F991F9C0120513C4F7901EA
:1015500000E010E041E0602F80E00E944607F701C4
:1015600065917491CE0101960E94D91E8091060169
:10157000082E000C990B98012C0D3D1D8217930726
:1015800039F440E061E0CE0101960E94F40E06C0FD
:1015900041E061E0CE0101960E94F40E0F5F1F4F03
:1015A00034E0E30EF11C04301105A1F60E94540F43
:1015B00060960FB6F894DEBF0FBECDBFDF91CF911E
:1015C0001F910F91FF90EF90DF90CF900895809141
:1015D0007C0481FD10C080910501882361F0E091B9
:1015E000060184E0E802F0011124EE50FC4F8591E1
:1015F0009491FC01099580917C0482FD09C0909131
:101600000401992329F0909106019F5F90930601B0
:1016100083FD09C080910301882329F08091060190
:1016200081508093060180910601843024F081E08E
:101630008093060105C018161CF083E08093060114
:1016400080917C0481FB992790F99093050182FB9E
:10165000992790F99093040183FB882780F9809360
:101660000301089580917C0481FD10C080910901DF
:10167000882361F0E0910A0184E0E802F00111247E
:10168000EB5CFB4F85919491FC01099580917C0462
:1016900082FD09C090910801992329F090910A01D7
:1016A0009F5F90930A0183FD09C080910701882301
:1016B00029F080910A01815080930A0180910A01EA
:1016C000883024F081E080930A0105C018161CF0D0
:1016D00087E080930A0180917C0481FB992790F92F
:1016E0009093090182FB992790F99093080183FB5D
:1016F000882780F980930701089508950895089533
:101700000895CF92DF92EF92FF920F931F93CF93A2
:10171000DF93CDB7DEB760970FB6F894DEBF0FBE8C
:10172000CDBF80910A0186301CF01BEF180F01C05D
:1017300010E00E94BD0DC12E110FDD08C601880FFB
:10174000991F880F991F9C012D5C3B4F790100E088
:1017500010E041E0602F80E00E944607F7016591AC
:101760007491CE0101960E94D91E80910A01082E23
:10177000000C990B98012C0D3D1D8217930739F42D
:1017800040E061E0CE0101960E94F40E06C041E007
:1017900061E0CE0101960E94F40E0F5F1F4F34E00E
:1017A000E30EF11C06301105A1F60E94540F60965D
:1017B0000FB6F894DEBF0FBECDBFDF91CF911F9162
:1017C0000F91FF90EF90DF90CF900895CF93DF932C
:1017D00044EF51E064E170E081E89BE00E946C140A
:1017E000C5E0D5E08A8344E650E06AE070E082E339
:1017F0009BE00E946C148B83DF91CF910895CF936F
:10180000DF93C5E0D5E08A810E94A8148B810E94F5
:10181000A814DF91CF9108950E94FF0B44E650E099
:1018200060E070E08FE49DE00E946C1480930905F5
:101830000895CF93DF930E94FF0B2FEF89E698E185
:10184000215080409040E1F700C0000040E951E0A5
:1018500060E070E08BE99FE00E946C14C5E0D5E089
:101860008A8344E650E060E070E080E090E10E940E
:101870006C148B83DF91CF910895CF93DF930E94F7
:10188000FF0B2FEF89E698E1215080409040E1F76F
:1018900000C0000040E951E060E070E082E89AE0BA
:1018A0000E946C14C5E0D5E08A8344E650E060E015
:1018B00070E087EE9AE00E946C148B83DF91CF91E9
:1018C00008950E94C818811521E0920709F467C0A5
:1018D0008233E9F030F4803309F44CC0813331F0C5
:1018E00054C0833329F18433A1F14FC080E00E94BA
:1018F0004D1583E00E945E1564EB70E084EB90E090
:101900000E94941261E081E00E945812089583E0E1
:101910000E944D1583E00E947C1560E570E080E533
:1019200090E00E94941262E081E00E9458120895B3
:1019300081E00E944D1583E00E945E1564EB70E02B
:1019400084EB90E00E94941262E082E00E945812C0
:10195000089583E00E944D1583E00E947C1560E5A8
:1019600070E080E590E00E94941261E082E00E94C5
:10197000581208958AE00E944D1583E00E947C155C
:1019800060E080E00E945812089583E00E947C1578
:101990008AE00E944D1560E080E00E945812089590
:1019A0000E94BD0D41E060E080E00E94460740E0FB
:1019B00062E080EC94E00E940B0F0E94540F0895A7
:1019C00080912601811103C00E94D90408958130BD
:1019D00019F40E94200608950E94D00C0895CF9318
:1019E000DF9344E650E064E170E080EE9CE00E940A
:1019F0006C14C5E0D5E08A8342E350E060E070E01B
:101A000081E29DE00E946C148B83109226010E945B
:101A10004811DF91CF910895CF93DF93C5E0D5E0D2
:101A20008A810E94A8148B810E94A8148C810E9434
:101A3000A8140E94E60B81E080930D01DF91CF9105
:101A400008950E94CF0480917C0480FD0EC0909187
:101A50000C01992351F0909126019F5F93301CF463
:101A60009093260102C01092260181FD0DC0809145
:101A70000B01882349F080912601823019F40E94DD
:101A80000C0D02C00E94A91180917C04982F9170C6
:101A900090930C018695817080930B01089580913D
:101AA0000D01882321F00E94EF0C10920D010E947D
:101AB000610C08950E9461160E9457070E94E60B70
:101AC0000E94DF14FDCF8EBD0DB407FEFDCF8EB595
:101AD00008952C98662311F0119A01C011980E9464
:101AE000630D2C9A089560E00E94690D0895CF93CC
:101AF000DF93089A099A249A259A279A80E58CBD43
:101B0000109A2C9A8FE39CE90197F1F700C000002E
:101B100010989FEF2AE683E0915020408040E1F743
:101B200000C00000109A2C9881E20E94730D83E19E
:101B30000E94730D86E00E94730D82EC0E94730D6B
:101B400080E20E94730D89E00E94730D80E80E947C
:101B5000730D80E40E94730DC8EFD1E061E080E076
:101B60000E94690D2197D1F788E00E94730D8CE0E7
:101B70000E94730DDF91CF91089580E80E94730D4C
:101B800080E40E94730D10921F0310922003E7E27D
:101B9000F1E08FE193E01192E817F907E1F708957A
:101BA000262F26952695269590E034E5239F800DD7
:101BB000911D1124442379F0FC01E95DFE4F67700B
:101BC00081E090E002C0880F991F6A95E2F790814A
:101BD000892B80830895FC01E95DFE4F677081E0E9
:101BE00090E002C0880F991F6A95E2F78095908176
:101BF0008923808308953F924F925F926F927F92E4
:101C00008F929F92AF92BF92CF92DF92EF92FF920C
:101C10000F931F93CF93DF9300D000D0CDB7DEB7E3
:101C2000562E442E262F30E03A8329834901880C12
:101C3000991C880C991C820E931E181419040CF020
:101C400063C08901000F111F000F111F000F111F2A
:101C5000021B130B612CA82EB12CC50180975C01CF
:101C6000AA0CBB1CAA0CBB1CA80EB91E0F2EF0E2BE
:101C7000CF2EF3E0DF2EF02D0F2EFFE1EF2EF3E05D
:101C8000FF2EF02D81E0342E38262EC0EB81FC8112
:101C9000249130E0872D652D0E94F11C02C03595FE
:101CA00027958A95E2F720FF0AC0F6016081670D4B
:101CB000F7018081442D860D0E94D00D09C0F601E8
:101CC0006081670DF7018081432D860D0E94D00D44
:101CD0007394872D90E080179107C4F26394862D4A
:101CE00090E08815990584F410161106BCF7862D2E
:101CF000652D0E94F11C9501280F311D29533B4F82
:101D00003C832B83712CC2CF411034C009811A81CE
:101D1000000F111F000F111F000F111F89819A81E1
:101D2000081B190B101611062CF5952D990F990FFC
:101D3000950D9B8319820F2EF0E2CF2EF3E0DF2E5C
:101D4000F02D0F2EFFE1EF2EF3E0FF2EF02DF60128
:101D50006081F9816F0FF701808141E0FB818F0F76
:101D60000E94D00D29812F5F2983822F90E0801758
:101D700091076CF380911F0391E0980F852D880FD8
:101D8000880F850D890F843518F480931F030EC0CA
:101D900010921F03E0E2F3E0808191E0980F852D1F
:101DA000880F880F880F8519890F80838091200301
:101DB000803320F010921F03109220030F900F9099
:101DC0000F900F90DF91CF911F910F91FF90EF90A7
:101DD000DF90CF90BF90AF909F908F907F906F904B
:101DE0005F904F903F9008950F931F93CF93DF9391
:101DF000EC018881882351F0042F162F2196402F63
:101E0000612F0E94FB0D89918111F9CFDF91CF9154
:101E10001F910F9108950F931F93CF93DF93EC01C0
:101E20002196FC018491882359F0042F162F402F0E
:101E3000612F0E94FB0DFE01849121968111F7CF45
:101E4000DF91CF911F910F91089580931F036093AD
:101E5000200308951F93CF93DF93442361F0162F3F
:101E6000C82FD42FD80F41E0612F8C2F0E94D00DA6
:101E7000CF5FCD13F8CFDF91CF911F9108951F93BE
:101E8000CF93DF93442361F0C62F182FD42FD60FA2
:101E900041E06C2F812F0E94D00DCF5FCD13F8CF82
:101EA000DF91CF911F9108950F931F93CF93DF93ED
:101EB00080E80E94730D80E40E94730DC7E2D1E0B8
:101EC0000FE113E061E089910E94690DC017D1070D
:101ED000C9F7DF91CF911F910F91089581E298E0AA
:101EE0000E94D413089583E998E00E94D4130895C2
:101EF0008CEC98E00E94D413089584E597E00E944A
:101F0000D41308958AE897E00E94D413089581EAD3
:101F100097E00E94D413089588E598E00E94D413B6
:101F200008958BE199E00E94D41308950E94FF0B5D
:101F30000E94E60B0895CF92DF92EF92FF920F93EB
:101F40001F93CF93DF93CDB7DEB760970FB6F894AA
:101F5000DEBF0FBECDBF8091110186301CF01BEF9C
:101F6000180F01C010E00E94BD0DC12E110FDD0839
:101F7000C601880F991F880F991F9C012955394F59
:101F8000790100E010E041E0602F80E00E94460708
:101F9000F70165917491CE0101960E94D91E80913E
:101FA0001101082E000C990B98012C0D3D1D821774
:101FB000930739F440E061E0CE0101960E94F40EEF
:101FC00006C041E061E0CE0101960E94F40E0F5F71
:101FD0001F4F34E0E30EF11C06301105A1F60E94FC
:101FE000540F60960FB6F894DEBF0FBECDBFDF91E1
:101FF000CF911F910F91FF90EF90DF90CF900895B8
:1020000080917C0481FD10C080911001882361F0D3
:10201000E091110184E0E802F0011124E755F94F45
:1020200085919491FC01099580917C0482FD09C001
:1020300090910F01992329F0909111019F5F909346
:10204000110183FD09C080910E01882329F0809140
:102050001101815080931101809111018A3024F087
:1020600081E08093110105C018161CF089E080936F
:10207000110180917C0481FB992790F990931001C4
:1020800082FB992790F990930F0183FB882780F9B1
:1020900080930E0108950E9452106894B1110C941F
:1020A000A41008950E94891088F09F5798F0B92FC6
:1020B0009927B751B0F0E1F0660F771F881F991F7D
:1020C0001AF0BA95C9F714C0B13091F00E94A3106C
:1020D000B1E008950C94A310672F782F8827B85F7C
:1020E00039F0B93FCCF3869577956795B395D9F7D5
:1020F0003EF490958095709561957F4F8F4F9F4FDF
:10210000089557FD9058440F551F59F05F3F71F0E7
:102110004795880F97FB991F61F09F3F79F087954E
:102120000895121613061406551FF2CF4695F1DFD7
:1021300008C0161617061806991FF1CF8695710567
:10214000610508940895E894BB2766277727CB019B
:1021500097F908950E94BD100C942E110E94201131
:1021600038F00E94271120F0952311F00C941711DC
:102170000C941D1111240C94A4100E94811070F372
:10218000959FC1F3950F50E0551F629FF001729F1C
:10219000BB27F00DB11D639FAA27F00DB11DAA1F2B
:1021A000649F6627B00DA11D661F829F2227B00D78
:1021B000A11D621F739FB00DA11D621F839FA00D03
:1021C000611D221F749F3327A00D611D231F849F53
:1021D000600D211D822F762F6A2F11249F575040AA
:1021E0009AF0F1F088234AF0EE0FFF1FBB1F661F25
:1021F000771F881F91505040A9F79E3F510580F0EE
:102200000C9417110C94A4105F3FE4F3983ED4F3A0
:10221000869577956795B795F795E7959F5FC1F791
:10222000FE2B880F911D9695879597F9089597F93C
:102230009F6780E870E060E008959FEF80EC08956C
:1022400000240A9416161706180609060895002495
:102250000A9412161306140605060895092E03940F
:10226000000C11F4882352F0BB0F40F4BF2B11F483
:1022700060FF04C06F5F7F4F8F4F9F4F0895E9E667
:10228000F0E08081856080838DB383608DBB08958D
:10229000F894EBE6F4E017821682118610867894A3
:1022A00008951F920F920FB60F9211248F939F9350
:1022B000EF93FF9380917D0484FF16C080916B049F
:1022C0008370813041F4EBE6F4E0868197810196DA
:1022D0009783868309C0823039F4EBE6F4E0868187
:1022E0009781019797838683FF91EF919F918F91BB
:1022F0000F900FBE0F901F9018951F920F920FB660
:102300000F9211248F939F93EF93FF9380917D04FD
:1023100084FF16C080916B048C70843041F4EBE62E
:10232000F4E08085918501969187808709C0883087
:1023300039F4EBE6F4E080859185019791878087F9
:10234000FF91EF919F918F910F900FBE0F901F9073
:102350001895EF92FF920F931F93CF93479A8FE7B1
:102360009CE00197F1F700C0000005E814E0780157
:10237000C3E08C2F0E941E15D7018D939D937D0184
:10238000CF5FC830B1F74798E4E8F4E081859285E3
:10239000278130853287218790878783808180FFDE
:1023A00017C04FE854E061E0D8018D919D918D01F7
:1023B00088539F4F18962D913C91199728173907EC
:1023C00014F4658B01C0158A31960417150761F75F
:1023D000CF911F910F91FF90EF900895E4E8F4E002
:1023E0008381948127813085821B930B95958795F6
:1023F000959587950895CF93DF93C4E8D4E018822C
:102400004AE050E060E070E08FE894E00E94302302
:10241000888181608883DF91CF910895EF92FF9248
:102420000F931F93CF93DF93CDB7DEB78E01075F76
:102430001F4FF801E190F1908F018BE497E00E942B
:102440000A19A801B70180912205909123050E94E5
:10245000811F8AE00E94E618DF91CF911F910F91B2
:10246000FF90EF900895EF92FF920F931F93CF93F9
:10247000DF93CDB7DEB78E01075F1F4FF801E19004
:10248000F1908F0182E497E00E940A19A801B70138
:1024900080912205909123050E94811F8AE00E946D
:1024A000E618DF91CF911F910F91FF90EF90089563
:1024B000813049F4439A4498EBE6F4E080818C7FC4
:1024C0008160808313C0823049F4449A4398EBE6DC
:1024D000F4E080818C7F8260808308C088B1877E31
:1024E00088B9EBE6F4E080818C7F8083613049F429
:1024F00042985C9AEBE6F4E08081837F846080837D
:102500000895623049F4429A5C98EBE6F4E08081E9
:10251000837F88608083089542985C98EBE6F4E0BE
:102520008081837F80830895EBE6F4E07483638386
:102530002581820F911D27FD9A958F3F910541F0CE
:102540003CF08FEF90E090936D0480936C040BC08F
:1025500099232CF090936D0480936C0404C0109226
:102560006D0410926C046F3F710541F03CF08FEFE9
:1025700090E090936F0480936E0406C0772324F458
:1025800010926F0410926E04EBE6F4E08181809368
:10259000B30083818093B400089560E080E00E94DE
:1025A0005812E0EBF0E08081836A8083E1EBF0E099
:1025B0008081876080831092B3001092B40083EF13
:1025C000809370040895CF93DF93EB01F901128299
:1025D00013821482158211821082978386837187F9
:1025E000608753874287BC016F5F7F4F8FEF9FE704
:1025F0000E94FD1C75876487BE016F5F7F4F8FEF60
:102600009FE30E94FD1CCB01770FAA0BBB0B8687B3
:102610009787A08BB18BDF91CF910895EF92FF92B6
:102620000F931F93CF93DF938B01FA01861B970BB8
:10263000248535852817390784F03195219531098E
:10264000821793076CF026813781829FE001839F78
:10265000D00D929FD00D112405C0CFEFDFE702C04F
:10266000C1E0D0E8092E000CAA0BBB0B42815381BC
:10267000648175819A01AB01280F391F4A1F5B1FC6
:1026800086859785A089B18982179307A407B50726
:102690004CF482839383A483B5836FEF7FE380E060
:1026A00090E01DC0B095A095909581959F4FAF4F3C
:1026B000BF4F281739074A075B074CF4828393837F
:1026C000A483B58361E070EC8FEF9FEF08C0228395
:1026D000338344835583A085B1850E946C1D20817E
:1026E0003181201B310BA285B3852A9F70012B9F5E
:1026F000F00C3A9FF00C1124118300838E01DD0F42
:10270000220B330BAB01BC01400F511F621F731F23
:10271000C701FF0CAA0BBB0B480F591F6A1F7B1F79
:10272000DB01CA01772324F481589F4FAF4FBF4F7D
:10273000689416F8B595A795979587951694D1F74F
:10274000813020E892072FEFA207B20724F481E03E
:1027500090E8AFEFBFEF811520E89207A105B10522
:1027600024F08FEF9FE7A0E0B0E0DF91CF911F91C1
:102770000F91FF90EF900895FC0112821382148252
:1027800015820895E0E8F0E0808180648083E1E8CC
:10279000F0E0808188608083109289001092880028
:1027A00080818B7F808308958F929F92AF92BF929A
:1027B000DF92EF92FF921F93CF93DF93EC01FC0126
:1027C00014911F703196249130E040E050E060E6B3
:1027D0007AEE80E090E00E94331DFE0132968491F3
:1027E000882309F46EC062E070E0D12E0F2EF4E869
:1027F000EF2EF12CF02D0F2EF8E88F2E912CF02DCE
:10280000A1E8B0E05B014FEFA41AB40AE4918E2F67
:10281000829586958770A90102C0569547958A953D
:10282000E2F7CA01E4FF06C0440F551F840F951F4D
:10283000969587954E2F4F704E3051F46E5F7F4FB7
:10284000FE01EA0DFB1DE4914E2F42954F7002C030
:102850004D2DB5011E2F1F701F30D1F0F7011182D1
:10286000108250E0FA01EE0FFF1FE40FF51FEE0F8C
:10287000FF1FEE0FFF1FE10FF11DE05EF64FE49129
:102880004E2F50E0F401518340834C9144604C93AF
:10289000019741F0EFE7FEE33197F1F700C0000048
:1028A0000197C1F78C918B7F8C938FE79EE3019703
:1028B000F1F700C00000FE01E60FF71F84918111BF
:1028C000A1CFDF91CF911F91FF90EF90DF90BF904C
:1028D000AF909F908F9008950F931F93CF93DF93A6
:1028E0008C018091BF049091C004892BA1F0EFEB83
:1028F000F4E021E030E0922FE901A781B0852F5F5D
:102900003F4F3796AB2BB9F79A3041F481E0809373
:10291000BE048AE018C0C0E0D0E090E0FE01EE0FF7
:10292000FF1FEE0FFF1FEE0FFF1FEC1BFD0BE1540F
:10293000FB4F118300836F5F7F4F738362835583E7
:1029400044831682892FDF91CF911F910F910895B3
:102950008A3020F081E08093BE040895282F30E073
:1029600097E0899FF0011124E154FB4F8081918110
:10297000892B29F482E08093BE0481E001C080E0CD
:10298000F901EE0FFF1FEE0FFF1FEE0FFF1FE21BFF
:10299000F30BE154FB4F11821082138212821582D5
:1029A000148216820895CF93C0E08C2F0E94A81441
:1029B000CF5FCA30D1F71092BE04CF9108951F9314
:1029C000CF93DF93CFEBD4E010E08E81882369F0C2
:1029D000E881F98109958E8181508E838C819D815A
:1029E000892B19F4812F0E94A8141F5F27961A3093
:1029F00061F7DF91CF911F910895EFEBF4E025E0AF
:102A000035E041E080819181892B89F086818111B7
:102A10000EC082819381019793838283892B39F43D
:102A2000468384819581009711F093838283379642
:102A3000E217F30739F7089508950895ECE7F0E0F9
:102A40009081907E8F71892B8083EAE7F0E080810E
:102A500080648083808186FDFDCF80917800909195
:102A60007900089582E00E941E15A0E0B0E09C016C
:102A7000AD01220F331F441F551FA8E8B3E10E9488
:102A8000611DDC01CB01072E7AE0B695A7959795DD
:102A900087957A95D1F7702D089595B1936095B982
:102AA000813011F429980895811102C02898089561
:102AB000833019F485B18C7F85B90895833071F026
:102AC0008F3F19F08130B9F410C02A984598EDE78E
:102AD000F4E0808184608061808308952A98EDE726
:102AE000F4E080818061808308954598EDE7F4E00B
:102AF0008081846080830895833071F08F3F19F066
:102B00008130B9F410C02A9A459AEDE7F4E080814B
:102B10008B7F8F7E808308952A9AEDE7F4E0808191
:102B20008F7E80830895459AEDE7F4E080818B7F66
:102B300080830895F894609180047091810480915D
:102B4000820490918304789408950E949A1528EE47
:102B500033E040E050E00E94111DC9010895CF9379
:102B6000DF93CDB7DEB72A970FB6F894DEBF0FBE5E
:102B7000CDBF4AE0BE016F5F7F4F0E94F61ECE01BF
:102B800001960E94FB182A960FB6F894DEBF0FBE7E
:102B9000CDBFDF91CF910895CF930E9432159093CE
:102BA0007F0480937E0480399A4128F4EDE7F4E0B5
:102BB00080818860808380917D0483FF50C0E09194
:102BC0002201F0912301099560E080E00E945812F3
:102BD00083E00E947C154698EDE7F4E080818E7FCB
:102BE00080838AE00E944D150E9432159F938F9337
:102BF00081E599E09F938F930E9433120F900F907D
:102C00000F900F90C4E181E00E944D158FEF93EC7F
:102C100029E0815090402040E1F700C000008AE0A8
:102C20000E944D158FEF93EC29E081509040204099
:102C3000E1F700C00000C15031F78FEF0E947C1512
:102C40008AE00E944D1583B7817F846083BF83B77C
:102C5000816083BF889583B78E7F83BFF8CFCF9184
:102C600008959093210180932001089580916B0431
:102C700084FF1CC080917D0480FF18C080E80E9402
:102C80009A1720917504309176048217930770F09B
:102C900060E080E00E945812EBE6F4E080818F7ED5
:102CA0008083EFE0F5E080818F778083E0912001E1
:102CB000F0912101099508950E94CC150E943616C5
:102CC0000895CF93DF93F89484B1876084B987B176
:102CD0008C6F87B98AB1806F8AB981E00E945E15D6
:102CE00083E00E947C15ECE7F0E0808180648083C3
:102CF000EAE7F0E080818768808380818064808358
:102D0000808186FDFDCF809178009091790084B517
:102D1000826084BD85B5836085BDEEE6F0E080818C
:102D20008260808389EF87BD0E943215CDE7D4E0B1
:102D30009A8389831B821C821D821E8218821092B4
:102D400084040E94FB1146988AE00E944D150E945F
:102D5000CD120E943F1188E090E00E94AF1882E1FE
:102D600091E090932305809322050E94C2130E9454
:102D7000D3140E94DC178881816088834AE050E088
:102D800060E070E08CE596E10E946C14809305058C
:102D90007894DF91CF9108951F920F920FB60F9202
:102DA00011242F933F934F935F936F937F938F9350
:102DB0009F93AF93BF93EF93FF93EDE7F4E083818D
:102DC0009481A581B6810196A11DB11D8383948351
:102DD000A583B68380910F0580FF07C0EFE0F5E083
:102DE0008181928101969283818380910F0581FF79
:102DF00007C0EFE0F5E0838194810196948383839B
:102E000080910F0582FF07C0EFE0F5E08581968194
:102E100001969683858380910F0583FF07C0EFE0BD
:102E2000F5E08781908501969087878380910F05D3
:102E300084FF07C0EFE0F5E08185928501969287D7
:102E4000818780910F0585FF07C0EFE0F5E083855E
:102E5000948501969487838780910F0586FF07C02C
:102E6000EFE0F5E0858596850196968785878091C8
:102E70000F0588233CF4EFE0F5E087859089019603
:102E8000908B87870E94FD14FF91EF91BF91AF91C6
:102E90009F918F917F916F915F914F913F912F9172
:102EA0000F900FBE0F901F901895F89488309105E1
:102EB00039F148F482309105C9F084309105D9F098
:102EC0000197B1F50EC08032910521F118F44097B9
:102ED000E1F02EC08034910511F18038910521F187
:102EE00027C0709311056093100522C070931305DD
:102EF000609312051DC0709315056093140518C0EA
:102F0000709317056093160513C0709319056093AD
:102F100018050EC070931B0560931A0509C07093C5
:102F20001D0560931C0504C070931F0560931E056A
:102F300078940895F894883011F138F48230A9F02B
:102F40008430C1F08130A1F50BC0803211F118F44A
:102F50008031D1F02DC0803409F1803821F128C0B2
:102F6000809110059091110525C0809112059091D6
:102F7000130520C080911405909115051BC0809108
:102F800016059091170516C08091180590911905A6
:102F900011C080911A0590911B050CC080911C05F1
:102FA00090911D0507C080911E0590911F0502C0DC
:102FB00080E090E0789408951092B90088E48093BE
:102FC000B800089594EA9093BC00ECEBF0E0908197
:102FD0009923ECF79091B900987F983011F09031D7
:102FE000A1F48093BB0084E88093BC00ECEBF0E09C
:102FF00080818823ECF79091B900987F983139F05F
:1030000081E0903429F480E0089581E0089580E023
:103010000895CF93DF93ECEBF0E024EAA9EBB0E066
:10302000CBEBD0E034E844E9208390819923ECF79E
:103030009C91987F983011F09031B1F7888330835C
:1030400090819923ECF79C91987F903211F09835FC
:1030500029F44083908194FDFDCFE6CFDF91CF919D
:10306000089584E98093BC00ECEBF0E0808184FD5E
:10307000FDCF08958093BB0084E88093BC00ECEB07
:10308000F0E080818823ECF79091B900987F81E08F
:10309000983209F480E0089584E88093BC00ECEB5A
:1030A000F0E080818823ECF78091BB0008951F92A7
:1030B0000F920FB60F9211242F938F939F93EF933C
:1030C000FF938091C0002091C6008C71E091C803ED
:1030D000EF5FEF719091C703E91739F0E093C803F0
:1030E000F0E0E553FC4F208301C082E09091C603DD
:1030F000892B8093C603FF91EF919F918F912F9120
:103100000F900FBE0F901F9018951F920F920FB641
:103110000F9211248F939F93EF93FF939091CA0383
:103120008091C903981769F0E091C903EF5FEF77C9
:10313000E093C903F0E0E551FC4F80818093C60025
:1031400005C0E1ECF0E080818F7D8083FF91EF91FD
:103150009F918F910F900FBE0F901F901895109216
:10316000CA031092C9031092C8031092C70399238F
:103170001CF422E02093C00090789093C5008093C7
:10318000C40088E98093C10086E08093C20008955E
:103190009091C8038091C7039817A9F09091C70335
:1031A0009F5F9F71E92FF0E0E553FC4F20818091F4
:1031B000C6039093C7031092C60390E0982F882708
:1031C000820F911D089580E091E008952091CA0337
:1031D0002F5F2F779091C9032917E1F3E22FF0E0D9
:1031E000E551FC4F80832093CA03E1ECF0E080813D
:1031F000806280830895CF93DF93EC0188818823D8
:1032000031F021960E94E61889918111FBCFDF9160
:10321000CF910895CF93DF93EC012196FC01849127
:10322000882339F00E94E618FE01849121968111CD
:10323000F9CFDF91CF9108951F920F920FB60F92A1
:1032400011242F938F939F93EF93FF938091C80046
:103250002091CE008C71E0912303EF5FEF7190918C
:103260002203E91739F0E0932303F0E0EA5DFC4F15
:10327000208301C082E090912103892B8093210358
:10328000FF91EF919F918F912F910F900FBE0F9013
:103290001F9018951F920F920FB60F9211248F93C3
:1032A0009F93EF93FF9390912503809124039817A8
:1032B00069F0E0912403EF5FEF77E0932403F0E0FF
:1032C000EA5BFC4F80818093CE0005C0E9ECF0E022
:1032D00080818F7D8083FF91EF919F918F910F90DF
:1032E0000FBE0F901F901895A0E1B0E0EAE7F9E15A
:1032F0000C94741D7C011B016A01FC01178216826B
:10330000838181FF44C39E012F5F3F4F3901F70145
:103310009381F10193FD859193FF81911F01882392
:1033200009F431C3853239F493FD859193FF81917E
:103330001F01853239F4B70190E00E94231F560126
:103340006501E5CF10E0512C912CFFE1F915D8F083
:103350008B3279F038F4803279F08332A1F4F92D90
:10336000F0612EC08D3261F0803369F4292D216027
:103370002DC0392D3260932E892D8460982E2AC05D
:10338000E92DE86015C097FC2DC020ED280F2A30EC
:1033900088F496FE06C03AE0139F200D1124122FE8
:1033A00019C08AE0589E200D1124522EE92DE062AA
:1033B0009E2E10C08E3231F496FCE5C2F92DF064D9
:1033C0009F2E08C08C3621F4292D2068922E02C031
:1033D000883641F4F10193FD859193FF81911F019E
:1033E0008111B3CF9BEB980F933020F4992D90610E
:1033F000805E07C09BE9980F933008F066C1992D55
:103400009F7E96FF16E09F73992E853619F490647F
:10341000992E08C0863621F4392F3068932E02C0C9
:103420001111115097FE07C01C3350F444244394EB
:10343000410E27E00BC0183038F027E017E005C038
:1034400027E09CE3492E02C0212F412C560184E045
:10345000A80EB11CF6016081718182819381042DD7
:10346000A3010E94011E6C01F981FC87F0FF02C0DC
:10347000F3FF06C091FC06C092FE06C000E205C044
:103480000DE203C00BE201C000E08C858C7019F0E6
:1034900001115AC29BC297FE10C04C0CFC85F4FF70
:1034A00004C08A81813309F44A94141474F528E025
:1034B000241578F588E0482E2CC096FC2AC0812F70
:1034C00090E08C159D059CF03CEFC3163FEFD306B2
:1034D00074F0892D8068982E0AC0E2E0F0E0EC0FCD
:1034E000FD1FE10FF11D8081803319F4115011117E
:1034F000F4CF97FE0EC044244394410E812F90E0F8
:10350000C816D9062CF41C1904C04424439401C0E5
:1035100010E097FE06C01C141D0434F4C601019689
:1035200005C085E090E002C081E090E001110196C5
:10353000112331F0212F30E02F5F3F4F820F931F77
:10354000252D30E08217930714F4581A01C0512C2E
:10355000892D897049F4552039F0B70180E290E057
:103560000E94231F5A94F7CF002329F0B701802F20
:1035700090E00E94231F93FC09C0552039F0B70149
:1035800080E390E00E94231F5A94F7CF97FE4CC02F
:103590004601D7FE02C0812C912CC60188199909D9
:1035A000F301E80FF91FFE87ED8796012419310911
:1035B000388B2F87012F10E01195019511093FEFEE
:1035C0008316930629F4B7018EE290E00E94231F30
:1035D000C814D9044CF08F8598898815990524F46E
:1035E000ED85FE85818101C080E3F1E08F1A9108AD
:1035F0002D853E852F5F3F4F3E872D878016910694
:103600002CF0B70190E00E94231FD9CFC814D90431
:1036100041F49A81963320F4953319F43C8534FFB4
:1036200081E3B70190E04EC08A81813319F09C8517
:103630009F7E9C87B70190E00E94231F111105C057
:1036400094FC18C085E690E017C0B7018EE290E0C8
:103650000E94231F1E5F82E001E0080FF301E80FC4
:10366000F11D8081B70190E00E94231F802F01137C
:10367000F3CFE6CF85E490E0B7010E94231FD7FC8B
:1036800006C0C114D10441F4EC85E4FF05C0D19417
:10369000C194D1088DE201C08BE2B70190E00E9495
:1036A000231F80E32AE0C216D1042CF08F5FFAE0DA
:1036B000CF1AD108F7CFB70190E00E94231FB701BE
:1036C000C601C0960E94231F54C1833631F0833750
:1036D00079F0833509F056C020C0560132E0A30EC0
:1036E000B11CF6018081898301E010E0630112C002
:1036F0005601F2E0AF0EB11CF601C080D18096FEFB
:1037000003C0612F70E002C06FEF7FEFC6010E941F
:10371000EB1E8C01F92DFF7714C0560122E0A20E9A
:10372000B11CF601C080D18096FE03C0612F70E00D
:1037300002C06FEF7FEFC6010E94E01E8C01F92DE1
:10374000F0689F2EF3FD1AC0852D90E00817190729
:10375000A8F4B70180E290E00E94231F5A94F4CFAE
:10376000F60197FC859197FE81916F01B70190E07A
:103770000E94231F51105A9401501109011511057F
:1037800079F7F7C0843611F0893661F5560197FE56
:1037900009C024E0A20EB11CF60160817181828112
:1037A00093810AC0F2E0AF0EB11CF6016081718115
:1037B000072E000C880B990BF92DFF769F2E97FF93
:1037C00009C090958095709561957F4F8F4F9F4F61
:1037D000F0689F2E2AE030E0A3010E94901FC82EBF
:1037E000C6183FC0092D853721F40F7E2AE030E04E
:1037F0001DC0097F8F3691F018F4883559F0C3C089
:10380000803719F0883711F0BEC0006104FF09C08D
:10381000046007C094FE08C0066006C028E030E0DF
:1038200005C020E130E002C020E132E0560107FF90
:1038300009C084E0A80EB11CF6016081718182810B
:10384000938108C0F2E0AF0EB11CF6016081718176
:1038500080E090E0A3010E94901FC82EC6180F7749
:10386000902E96FE0BC0092D0E7FC11650F494FECB
:103870000AC092FC08C0092D0E7E05C0DC2C092D63
:1038800003C0DC2C01C0D12E04FF0DC0FE01EC0DE5
:10389000F11D8081803311F4097E09C002FF06C04A
:1038A000D394D39404C0802F867809F0D39403FD79
:1038B00011C000FF06C01C2DD51480F4150D1D1974
:1038C0000DC0D51458F4B70180E290E00E94231F88
:1038D000D394F7CFD51410F45D1801C0512C04FF18
:1038E00010C0B70180E390E00E94231F02FF17C0C1
:1038F00001FD03C088E790E002C088E590E0B701D1
:103900000CC0802F867859F001FF02C08BE201C005
:1039100080E207FD8DE2B70190E00E94231FC116EF
:1039200038F4B70180E390E00E94231F1150F7CFD5
:10393000CA94F301EC0DF11D8081B70190E00E9463
:10394000231FC110F5CF15C0F4E0F51560F584E034
:10395000581A93FE1FC0011127C02C8523FF2AC0CF
:103960000CE710E0392D3071932EF801849181110C
:1039700024C0552009F4E4CCB70180E290E00E9415
:10398000231F5A94F6CFF7018681978126C08FEFC7
:103990009FEF23C0B70180E290E00E94231F5A945A
:1039A0005110F8CFD8CF512CB701802F90E00E9452
:1039B000231FD3CF00E810E0D5CF91108052B7017C
:1039C00090E00E94231F0F5F1F4FCFCF23E02515EC
:1039D00010F483E0BDCF512CC0CF6096E2E10C948F
:1039E000901D991B79E004C0991F961708F0961B4B
:1039F000881F7A95C9F78095089597FB072E16F4CE
:103A0000009407D077FD09D00E94AB1D07FC05D0BC
:103A10003EF4909581959F4F0895709561957F4FE5
:103A20000895A1E21A2EAA1BBB1BFD010DC0AA1FFF
:103A3000BB1FEE1FFF1FA217B307E407F50720F017
:103A4000A21BB30BE40BF50B661F771F881F991F92
:103A50001A9469F760957095809590959B01AC01DB
:103A6000BD01CF010895052E97FB1EF400940E941E
:103A70004A1D57FD07D00E94111D07FC03D04EF4CC
:103A80000C944A1D50954095309521953F4F4F4FCE
:103A90005F4F089590958095709561957F4F8F4FFA
:103AA0009F4F0895A29FB001B39FC001A39F700DC7
:103AB000811D1124911DB29F700D811D1124911D36
:103AC00008950E94521DA59F900DB49F900DA49F34
:103AD000800D911D11240895B7FF0C94611D0E9463
:103AE000611D821B930B08952F923F924F925F921C
:103AF0006F927F928F929F92AF92BF92CF92DF92FE
:103B0000EF92FF920F931F93CF93DF93CDB7DEB762
:103B1000CA1BDB0B0FB6F894DEBF0FBECDBF0994F6
:103B20002A88398848885F846E847D848C849B844D
:103B3000AA84B984C884DF80EE80FD800C811B815B
:103B4000AA81B981CE0FD11D0FB6F894DEBF0FBE8A
:103B5000CDBFED010895AA1BBB1B51E107C0AA1FF1
:103B6000BB1FA617B70710F0A61BB70B881F991F1E
:103B70005A95A9F780959095BC01CD010895EF92D3
:103B80000F931F93CF93DF93E80147FD02C034E00A
:103B900001C034E1042E000C550B57FF03C05195B2
:103BA00041955109E32E022F242FAE010E94EE1FF2
:103BB000CE01DF91CF911F910F91EF90089566276D
:103BC00077270C944821FC0188279927E8942191B4
:103BD0002032E9F3293010F02E30C8F32B3241F0B7
:103BE0002D3239F4689404C00E94011F820F911D88
:103BF000219120532A30C0F31EF4909581959F4F58
:103C00000895283008F027E03327DA01990F311D95
:103C100087FD916000966105710539F432602E5F71
:103C20003D9330E32A95E1F708959F3F30F08038C7
:103C30007105610509F03C5F3C5F3D93913008F0F0
:103C40008068911DDF93CF931F930F93FF92EF92A4
:103C5000192F987F9695E92F96959695E90FFF274E
:103C6000E252FF4F99273327EE24FF24A701E701F3
:103C700005900894079428F4360FE71EF81E491F94
:103C8000511D660F771F881F991F0694A1F7059095
:103C9000079428F4E70EF81E491F561FC11D770F21
:103CA000881F991F661F0694A1F70590079428F4B2
:103CB000F80E491F561FC71FD11D880F991F661F79
:103CC000771F0694A1F70590079420F4490F561F1B
:103CD000C71FD81F990F661F771F881F0694A9F763
:103CE00084911095177041F0D695C79557954795D3
:103CF000F794E7941A95C1F7E4E8F0E0689415901A
:103D0000159135916591959105907FE27395E11834
:103D1000F10A430B560BC90BD009C0F7E10CF11E99
:103D2000431F561FC91FD01D7EF4703311F48A95AE
:103D3000E6CFE894015030F0080F0AF4002702178C
:103D400008F4202F2395022F7A3328F079E37D930E
:103D50002A95E9F710C07D932A9589F606949795E0
:103D60006795379517951794E118F10A430B560B91
:103D7000C90BD00998F023957E9173957A3308F09A
:103D800070E37C932013B8F77E9170617D9330F0DF
:103D9000839571E37D9370E32A95E1F71124EF9009
:103DA000FF900F911F91CF91DF91992787FD9095FB
:103DB0000895FB01DC0105900D920020E1F70895C4
:103DC000FC010590615070400110D8F780959095E6
:103DD0008E0F9F1F0895FC016150704001900110EB
:103DE000D8F7809590958E0F9F1F0895BB274A3076
:103DF00031F4992322F4BDE2909581959F4F0C9464
:103E00000A1F7AE0979F902D879F802D910D112496
:103E10000895BB27FB015527AA27880F991FAA1FC2
:103E2000A41710F0A41B83955051B9F7A05DAA33D5
:103E300008F0A95DA193009779F7B111B1931192A0
:103E4000CB010C94B7220F931F93CF93DF93FB0109
:103E5000238121FD03C08FEF9FEF2CC022FF16C0EE
:103E600046815781248135814217530744F4A0814C
:103E7000B1819D012F5F3F4F318320838C93268139
:103E800037812F5F3F4F3783268314C08B01EC01AE
:103E9000FB010084F185E02D0995892BE1F6D8011D
:103EA00016968D919C911797019617969C938E93D9
:103EB0001697CE01DF91CF911F910F910895AEE03B
:103EC000B0E0E5E6FFE10C94821D0D891E898EE0CD
:103ED0008C831A8309838FEF9FE79E838D83AE01C6
:103EE000475E5F4F6F89788DCE0101960E947419ED
:103EF000EF81F885E00FF11F10822E96E4E00C941C
:103F00009E1DCF93DF93EC018B8188608B83CE0164
:103F10000E9474192B81277F2B83DF91CF91089505
:103F2000FA01AA27283051F1203181F1E8946F93EA
:103F30006E7F6E5F7F4F8F4F9F4FAF4FB1E03ED090
:103F4000B4E03CD0670F781F891F9A1FA11D680F2E
:103F5000791F8A1F911DA11D6A0F711D811D911D61
:103F6000A11D20D009F468943F912AE0269F1124D6
:103F70003019305D3193DEF6CF010895462F47703A
:103F8000405D4193B3E00FD0C9F7F6CF462F4F7095
:103F9000405D4A3318F0495D31FD4052419302D0F3
:103FA000A9F7EACFB4E0A695979587957795679599
:103FB000BA95C9F700976105710508959B01AC0199
:103FC0000A2E06945795479537952795BA95C9F7C0
:103FD000620F731F841F951FA01D0895A9E0B0E014
:103FE000E4EFFFE10C947A1D6A01122FB02E2BE34F
:103FF000201720F0FF24F394F00E02C02CE3F22EE1
:104000000F2D27E0AE014F5F5F4F0E94011EBC01E4
:104010004981842F8970813031F0E1FC06C0E0FED7
:1040200006C090E205C09DE203C09BE201C090E0A3
:104030005E2D507143FF3CC0911102C083E001C06E
:1040400084E0811718F4212F281B01C020E05111B2
:104050000BC0F601822F30E2882319F03193815092
:10406000FBCFC20ED11C20E0992329F0D6019C93EE
:10407000F60131966F01C6010396E2FE0AC03EE4E6
:10408000D6013C9341E411964C93119712963C93C0
:1040900006C03EE6F601308341E641833283FC01EF
:1040A000322F40E2332309F442C041933150FACF1A
:1040B00042FF44C0911102C083E001C084E0811737
:1040C00018F4212F281B01C020E051110BC0F6016C
:1040D000822F30E2882319F031938150FBCFC20E3A
:1040E000D11C20E0992329F0D6019C93F60131964A
:1040F0006F01C6010396E2FE0BC039E4D6013C9382
:104100003EE411963C93119736E412963C9307C017
:1041100039E6F60130833EE6318336E63283FC0130
:10412000322F40E2332319F041933150FBCFFC0191
:10413000E20FF11D10828EEF9FEFA6C021E030E06C
:10414000911102C020E030E0161617061CF4FB01A6
:10415000319602C0E1E0F0E02E0F3F1FBB2021F0BE
:10416000EB2DF0E0319602C0E0E0F0E02E0F3F1FB3
:10417000E12FF0E02E173F071CF4121B212F01C086
:1041800020E08E2D887159F4F601822F30E28823C9
:1041900019F031938150FBCFC20ED11C20E099233E
:1041A00029F0D6019C93F60131966F0151110BC095
:1041B000F601822F90E3882319F091938150FBCF71
:1041C000C20ED11C20E00F2D060F9A81342F3071C2
:1041D00044FF03C0913309F40150101624F4093050
:1041E00018F008E001C001E0AB0177FF02C040E039
:1041F00050E0FB01E41BF50BA1E0B0E0AC0FBD1FEC
:10420000EA0FFB1F8EE2A82E4B01801A91080B2D9E
:1042100010E01195019511094F3FBFEF5B0721F4A5
:10422000D601AC9211966D01641775072CF08416B7
:10423000950614F4818101C080E341505109319603
:10424000D60111967D014017510724F0D6018C93B9
:104250006701E2CF6417750739F4963320F495337C
:1042600019F4311101C081E3F6018083F701822F37
:1042700090E2882319F091938150FBCFF701E20F70
:10428000F11D108280E090E02996ECE00C94961DE0
:10429000A0E0B0E0EEE4F1E20C947A1DEC016B01D9
:1042A0006115710519F0FB01918380837E01FFEF99
:1042B000EF1AFF0A0881802F90E00E949622892B36
:1042C00011F0E701F3CF0D3239F47E0182E0E80E00
:1042D000F11C098111E008C00B3229F47E0192E043
:1042E000E90EF11C098110E0E701219743E050E05D
:1042F00066E871E0CE010E949F22892BC1F42396CB
:1043000045E050E061E871E0CE010E949F22892BD8
:1043100009F42596C114D10419F0F601D183C083A4
:104320001111F6C060E070E080E89FE7FAC043E05A
:1043300050E06EE771E0CE010E949F22892B59F474
:10434000C114D10409F4E9C0F2E0EF0EF11CF6014A
:10435000F182E082E2C020E030E0A901C0E0D0E0DC
:10436000F70180EDA82EA00E89E08A1530F1912F7B
:104370009260B92E812F887012FF04C0811124C071
:10438000219622C081112197A5E0B0E00E94611D15
:10439000DC01CB01880F991FAA1FBB1F9C01AD0137
:1043A0002A0D311D411D511D283989E9380748075B
:1043B00089E1580748F0166006C09EEFA9120AC0AE
:1043C00013FD40C01860B12E8FEFE81AF80A008183
:1043D0001B2DC6CF802F8F7D8534A1F580818D3236
:1043E00011F4106106C08B3221F0319661E070E06B
:1043F00004C08181329662E070E080538A3018F008
:10440000E61BF70B1FC060E070E060389CE07907A6
:104410005CF4DB01AA0FBB1FAA0FBB1F6A0F7B1F37
:10442000660F771F680F711D3196DF0111978C9110
:1044300080538A3050F314FF03C071956195710960
:10444000C60FD71F11FF08C0C114D10429F0CF0136
:104450000197F60191838083CA01B9010E94CC22A1
:10446000212F2370233019F04B015C0106C04B0152
:104470005C01B7FAB094B7F8B09420E030E0A9013D
:10448000C501B4010E94C722882309F43EC0D7FFAA
:1044900006C0D195C195D1090DE911E002C005EB27
:1044A00011E06801F8E1CF1AD10890E2E92EF12C71
:1044B000CE15DF0574F0F8012591359145915491A1
:1044C000C501B4010E94AA104B015C01CE19DF099D
:1044D000EFCF04501109F594E7940C151D0541F731
:1044E0008A2D880F8B2D881F8F3F49F020E030E008
:1044F000A901C501B4010E94C722811106C082E250
:1045000090E09093270580932605C501B40109C06A
:1045100060E070E080E89FEF04C060E070E080EC55
:104520009FE7CDB7DEB7ECE00C94961D91110C948B
:104530002D23803219F089508550C8F70895FB016A
:10454000DC014150504088F08D9181341CF08B3556
:104550000CF4805E659161341CF06B350CF4605E88
:10456000861B611171F3990B0895881BFCCFDC0148
:10457000FC01672F71917723E1F7329704C07C919A
:104580006D9370836291AE17BF07C8F308950E94C0
:10459000092308F481E00895E89409C097FB3EF4EC
:1045A00090958095709561957F4F8F4F9F4F992380
:1045B000A9F0F92F96E9BB279395F69587957795FE
:1045C0006795B795F111F8CFFAF4BB0F11F460FFBE
:1045D0001BC06F5F7F4F8F4F9F4F16C0882311F016
:1045E00096E911C0772321F09EE8872F762F05C02A
:1045F000662371F096E8862F70E060E02AF09A95C5
:10460000660F771F881FDAF7880F9695879597F9B9
:104610000895990F0008550FAA0BE0E8FEEF161653
:104620001706E807F907C0F012161306E407F507A6
:1046300098F0621B730B840B950B39F40A2661F01A
:10464000232B242B252B21F408950A2609F4A140BD
:10465000A6958FEF811D811D0895992788270895BC
:10466000DC01CB01FC01F999FECF06C0F2BDE1BD32
:10467000F89A319600B40D9241505040B8F7089521
:04468000F894FFCFDC
:1046840001640001010101010101010101010101B4
:1046940001010000000200000000E6180000000014
:0446A4001D151C15AF
:00000001FF
