:100000000C94D3020C9463120C948F120C94F00293
:100010000C94F0020C94F0020C94F0020C94F00298
:100020000C94F0020C94F0020C94F0020C94F00288
:100030000C94F0020C94F0020C94F0020C94F00278
:100040000C94F5190C94F0020C94F0020C94F0024C
:100050000C940B1B0C94391B0C94F0020C94F002C2
:100060000C94F0020C94F0020C94F0020C94F00248
:100070000C94A31B0C94D11B0C94F0026E616E00C7
:10008000696E660000407A10F35A00A0724E18099B
:100090000010A5D4E80000E87648170000E40B54EF
:1000A000020000CA9A3B000000E1F50500008096BE
:1000B0009800000040420F000000A08601000000F0
:1000C000102700000000E8030000000064000000AA
:1000D00000000A00000000000100000000002C7673
:1000E000D888DC674F0823DFC1DFAE59E1B1B7968E
:1000F000E5E3E453C63AE651997696E8E6C28426EB
:10010000EB898C9B62ED407C6FFCEFBC9C9F40F2C6
:10011000BAA56FA5F490055A2AF75C936B6CF96742
:100120006DC11BFCE0E40D47FEF520E6B500D0ED07
:10013000902E0300943577050080841E080000206F
:100140004E0A000000C80C333333330F986E12830D
:100150001141EF8D2114893BE65516CFFEE6DB18E1
:10016000D1844B381BF77C1D901DA4BBE4242032A6
:1001700084725E228100C9F124ECA1E53D272B0A9F
:10018000002B202020002B2D2D2D002B20202000A7
:100190002B2D2D2D00472532690053253269002073
:1001A0005820002B0A002B2D2D2D00454153540AB9
:1001B00000574553540A00534F5554480A004E4FB8
:1001C0005254480A00426F74204F7269656E746120
:1001D00074696F6E3A200044697374616E636520C0
:1001E000436F756E7465723A2025640A000A0A42EC
:1001F0006F7420506F736974696F6E20583A256967
:100200002020593A25690A00426174743A25690030
:10021000556E6B6E6F776E204572726F7200506113
:10022000746820537461636B2046756C6C2E0049B2
:100230006E74657273656374696F6E205265616474
:100240002D4572726F722E00496E7465727365630C
:1002500074696F6E20646F65736E2774206D6174AE
:10026000636820746F2073746F72656420547572B4
:100270006E20696E20506174682D4D656D6F7279C6
:1002800021005374617465204572726F723A2025A3
:10029000690050726573732053746172742D4275D6
:1002A00074746F6E20746F2073746172742074683C
:1002B0006520537065656472756E20616761696E53
:1002C0000A0A0054696D653A2025690A0042617482
:1002D000743A25690A000A2A2A2A2A2A2A2A2A2A54
:1002E0002A2A2A2A4D617A6520536F6C766520662A
:1002F000696E6973686564212A2A2A2A2A2A2A2AA9
:100300002A2A2A2A2A2A2A2A0A0050726573732066
:1003100053746172742D427574746F6E20746F2003
:1003200073746172742074686520537065656472BB
:10033000756E0A0054696D653A2025690A004261AC
:1003400074743A25690A000A2A2A2A2A2A2A2A2A99
:100350002A2A4D617A652053656172636820666957
:100360006E6973686564212A2A2A2A2A2A2A2A2A77
:100370002A2A2A2A2A2A2A0A004E657874204D6FD2
:1003800076653A20256300546573742046696E696A
:10039000736865642E00743A25696D7320453A25AB
:1003A00069207325303564004C696E69656E73652C
:1003B0006E736F722054696D696E67205465737433
:1003C000005374617274204D617A652073656172A7
:1003D0006368210A0043616C6962726174696F6EBF
:1003E0002066696E69736865642E0A002D50726517
:1003F000737320535441525420666F72204D617ABA
:1004000065205365617263682E0A2D50726573739F
:10041000205553455220666F72206E6577206361C8
:100420006C6962726174696F6E0A0042617474650E
:1004300072793A2569200A005049442D5061726151
:100440006D3D204B503A25312E326620204B493AE3
:1004500025312E326620204B443A25312E3266203B
:100460000A000A0A50726F6772616D6D204D617AE1
:10047000652053656172636820616E64206D6170F0
:1004800070696E672E0A00556E646572466C6F77F0
:100490000A50726F6772616D205465726D696E618A
:1004A0007465640A004F766572466C6F770A507205
:1004B0006F6772616D205465726D696E61746564F9
:1004C0000A0025693A202569004B616C69627261F6
:1004D00074696F6E20446174610A002D4552524F59
:1004E000522D20002D494E464F2D20002D444542CF
:1004F00055472D2000F07D4586682E11438506481E
:100500008A6C2E164A8C4E114E134E154586680E77
:10051000114E138E152E1648884E154E13884E1503
:100520004E13884E164E158E132E1100F170AE0C20
:10053000AFACAFA7AFA4AFACA78F848FA1AFAE21F4
:10054000AFA8AFA5AFAE21A88F858FAE0CAFACAF73
:10055000A7AFA4AFACA78F848FA4A5A6AFA6A7A86A
:10056000AFA8A9AAAFBC00767069635E58534F4A22
:1005700046423E3B3734312E2C29272523211F1D8F
:100580001B1A18171514131211100F0E0D0C0C0B4B
:100590000A0A09080807074C6F77204261747465DE
:1005A00072793A25690011241FBECFEFD0E1DEBF7A
:1005B000CDBF11E0A0E0B1E0E0EBF6E402C00590B1
:1005C0000D92AE35B107D9F723E0AEE5B1E001C039
:1005D0001D92A339B207E1F70E9466110C945623CD
:1005E0000C9400001092F102E3E1F3E0108211821A
:1005F0008EE190E00E94E9119093B6028093B502DB
:100600001092F00210926101E8ECF2E020EF32E08B
:100610008FEF1082818312828383148285831682F6
:1006200087833896E217F307A1F780E090E0FC019A
:10063000EE0FFF1FEE0FFF1FEE0FFF1FDF01A8538E
:10064000BD4F2C9122602C93E253FD4F20812160FD
:10065000208301968530910551F7E8EEF2E0808124
:1006600084608083EAECF2E0808188608083EAEE37
:10067000F2E0808184608083ECECF2E0808188602D
:100680008083ECEEF2E0808184608083EEECF2E027
:10069000808188608083EEEEF2E0808184608083D8
:1006A000E8ECF2E080818664886080830895209180
:1006B000140330E0492F50E0B9016F5F7F4F64179A
:1006C0007507B1F0215031094217530799F0209175
:1006D000130330E090E0A9014F5F5F4F48175907BF
:1006E00059F0215031098217930741F483E00895AE
:1006F00080E0089582E0089581E0089584E00895FF
:10070000CF93DF93EC010E9457039091F102891778
:1007100039F1911107C0823029F1833029F18130FC
:1007200029F139C0933041F4813011F1823011F157
:10073000882311F190E02FC0923041F48823F1F02A
:100740008130F1F08330F1F090E025C09130E1F498
:100750008330E1F08823E1F08230E1F492E51BC0C0
:1007600093E519C095E517C09CE415C092E513C048
:1007700095E511C09CE40FC092E50DC095E50BC056
:100780009CE409C092E507C090E005C095E503C070
:100790009CE401C090E08093F102D0931403C093D5
:1007A0001303892FDF91CF910895E3E1F3E02081D6
:1007B00091818130C1F048F1823019F08330B9F174
:1007C00047C08091F102811102C09F5F41C0823019
:1007D00011F491503DC0813011F42F5F39C0833046
:1007E000B9F5215035C08091F102811102C02F5F0F
:1007F0002FC0823011F421502BC0813011F4915060
:1008000027C0833029F59F5F23C08091F1028111B9
:1008100002C021501DC0823011F42F5F19C08130F9
:1008200011F49F5F15C0833099F4915011C08091ED
:10083000F102811102C091500BC0823011F49F5F10
:1008400007C0813011F4215003C0833009F42F5FB9
:10085000822F08959091F102913009F43FC138F050
:10086000923009F4AAC0933009F4C9C108958111E6
:1008700013C0E3E1F3E08081E181F0E094E0899F3F
:10088000E00DF11D1124EE0FFF1FE853FD4F808195
:100890008560886080830895873099F4E3E1F3E010
:1008A0008081E181F0E094E0899FE00DF11D112449
:1008B000EE0FFF1FE853FD4F8081846088608083C6
:1008C0000895813099F4E3E1F3E08081E181F0E083
:1008D00094E0899FE00DF11D1124EE0FFF1FE853F6
:1008E000FD4F80818160846080830895823099F417
:1008F000E3E1F3E08081E181F0E094E0899FE00DA5
:10090000F11D1124EE0FFF1FE853FD4F8081816020
:10091000886080830895853091F4E3E1F3E080817D
:10092000E181F0E094E0899FE00DF11D1124EE0FCC
:10093000FF1FE853FD4F80818860808308958630D3
:1009400091F4E3E1F3E08081E181F0E094E0899FBC
:10095000E00DF11D1124EE0FFF1FE853FD4F8081C4
:10096000886080830895833091F4E3E1F3E080812F
:10097000E181F0E094E0899FE00DF11D1124EE0F7C
:10098000FF1FE853FD4F8081816080830895883088
:1009900009F0C4C1E3E1F3E08081E181F0E094E09B
:1009A000899FE00DF11D1124EE0FFF1FE853FD4F4D
:1009B00080818660886080830895811113C0E3E19F
:1009C000F3E08081E181F0E094E0899FE00DF11D8A
:1009D0001124EE0FFF1FE853FD4F80818660886071
:1009E00080830895873099F4E3E1F3E08081E18129
:1009F000F0E094E0899FE00DF11D1124EE0FFF1F40
:100A0000E853FD4F80818460886080830895813041
:100A100099F4E3E1F3E08081E181F0E094E0899FE3
:100A2000E00DF11D1124EE0FFF1FE853FD4F8081F3
:100A30008260886080830895823099F4E3E1F3E076
:100A40008081E181F0E094E0899FE00DF11D1124A7
:100A5000EE0FFF1FE853FD4F80818260846080832A
:100A60000895853091F4E3E1F3E08081E181F0E0E5
:100A700094E0899FE00DF11D1124EE0FFF1FE85354
:100A8000FD4F8081886080830895863091F4E3E192
:100A9000F3E08081E181F0E094E0899FE00DF11DB9
:100AA0001124EE0FFF1FE853FD4F80818460808387
:100AB0000895833009F032C1E3E1F3E08081E18100
:100AC000F0E094E0899FE00DF11D1124EE0FFF1F6F
:100AD000E853FD4F8081826080830895811113C0A7
:100AE000E3E1F3E08081E181F0E094E0899FE00DB3
:100AF000F11D1124EE0FFF1FE853FD4F808185602B
:100B0000826080830895873099F4E3E1F3E0808187
:100B1000E181F0E094E0899FE00DF11D1124EE0FDA
:100B2000FF1FE853FD4F80818160826080830895BC
:100B3000813099F4E3E1F3E08081E181F0E094E039
:100B4000899FE00DF11D1124EE0FFF1FE853FD4FAB
:100B500080818260846080830895823099F4E3E12B
:100B6000F3E08081E181F0E094E0899FE00DF11DE8
:100B70001124EE0FFF1FE853FD4F808181608460D8
:100B800080830895853091F4E3E1F3E08081E18191
:100B9000F0E094E0899FE00DF11D1124EE0FFF1F9E
:100BA000E853FD4F8081826080830895863091F400
:100BB000E3E1F3E08081E181F0E094E0899FE00DE2
:100BC000F11D1124EE0FFF1FE853FD4F808181605E
:100BD00080830895833009F0A1C0E3E1F3E08081D0
:100BE000E181F0E094E0899FE00DF11D1124EE0F0A
:100BF000FF1FE853FD4F8081846080830895811139
:100C000013C0E3E1F3E08081E181F0E094E0899FAB
:100C1000E00DF11D1124EE0FFF1FE853FD4F808101
:100C20008360886080830895873099F4E3E1F3E07E
:100C30008081E181F0E094E0899FE00DF11D1124B5
:100C4000EE0FFF1FE853FD4F80818160826080833B
:100C50000895813099F4E3E1F3E08081E181F0E0EF
:100C600094E0899FE00DF11D1124EE0FFF1FE85362
:100C7000FD4F80818160886080830895823099F47F
:100C8000E3E1F3E08081E181F0E094E0899FE00D11
:100C9000F11D1124EE0FFF1FE853FD4F808182608C
:100CA000886080830895853091F4E3E1F3E08081EA
:100CB000E181F0E094E0899FE00DF11D1124EE0F39
:100CC000FF1FE853FD4F8081816080830895863047
:100CD00091F4E3E1F3E08081E181F0E094E0899F29
:100CE000E00DF11D1124EE0FFF1FE853FD4F808131
:100CF000826080830895833089F4E3E1F3E08081AA
:100D0000E181F0E094E0899FE00DF11D1124EE0FE8
:100D1000FF1FE853FD4F80818860808308958130F4
:100D200049F1E0F0823019F0833061F02FC08091FA
:100D3000F102882369F1823069F1813069F18330F1
:100D400069F508958091F102882351F1823051F1C3
:100D5000813051F1833051F581E008958091F102A5
:100D6000882331F1823031F1813031F1833031F536
:100D700082E008958091F102882311F1823011F10F
:100D8000813011F1833011F580E0089584E00895F9
:100D900080E0089582E0089581E0089584E0089558
:100DA00082E0089580E0089583E0089584E0089546
:100DB00083E0089581E0089580E0089584E0089537
:100DC00081E0089583E0089582E0089584E0089525
:100DD000823009F44AC028F4882351F0813081F12F
:100DE00057C08330C1F0843009F052C081E00895CB
:100DF000E3E1F3E08081E181F0E0319694E0899FC6
:100E0000E00DF11D1124EE0FFF1FE853FD4F80810F
:100E1000829581700895A3E1B3E0EC91F0E0319701
:100E200011968C91EE0FFF1FEE0FFF1FE80FF11DC3
:100E3000EE0FFF1FE853FD4F80818295817008956A
:100E4000A3E1B3E0EC91F0E0319611968C91EE0FB6
:100E5000FF1FEE0FFF1FE80FF11DEE0FFF1FE853FE
:100E6000FD4F8081829581700895E3E1F3E08081F8
:100E7000E181F0E0319794E0899FE00DF11D1124AC
:100E8000EE0FFF1FE853FD4F80818295817008951A
:100E900080E00895823009F449C028F4882351F095
:100EA000813079F157C08330B9F0843009F052C0F5
:100EB00080E00895E3E1F3E08081E181F0E094E0F7
:100EC000899FE00DF11D1124EE0FFF1FE853FD4F28
:100ED0008081809581700895E3E1F3E08081E18174
:100EE000F0E094E0899FE00DF11D1124EE0FFF1F4B
:100EF000E853FD4F808183FB992790F981E0892792
:100F00000895E3E1F3E08081E181F0E094E0899FDE
:100F1000E00DF11D1124EE0FFF1FE853FD4F8081FE
:100F200082FB992790F981E089270895E3E1F3E0B6
:100F30008081E181F0E094E0899FE00DF11D1124B2
:100F4000EE0FFF1FE853FD4F80818695817091E081
:100F50008927089581E008952F923F924F925F92E2
:100F60006F927F928F929F92AF92BF92CF92DF92B9
:100F7000EF92FF920F931F93CF93DF93E3E1F3E0A0
:100F800081811F928F9380811F928F938DEE91E0CC
:100F90009F938F930E949B22809161011F928F9358
:100FA00087ED91E09F938F930E949B2285EC91E0C7
:100FB0000E94911B8091F1022DB73EB7265F3F4FF3
:100FC0000FB6F8943EBF0FBE2DBF811105C08EEB4A
:100FD00091E00E94911B5EC1823029F487EB91E081
:100FE0000E94911B57C1833029F481EB91E00E944C
:100FF000911B50C1813009F04DC18BEA91E00E94F4
:10100000911B48C186EA91E00E94911BC150D1F723
:1010100083EA91E00E94911B0F2EFEECAF2EF2E0CE
:10102000BF2EF02D0F2EF3E08F2E912CF02D0F2ED2
:10103000F3E1EF2EF3E0FF2EF02D0F2EFEE14F2E09
:10104000F1E05F2EF02D0F2EFFE96F2EF1E07F2EE5
:10105000F02D0F2EF2E42F2EF02D8CE70E947C1B3A
:101060008501C0E0D0E064013C2EF70180818C1343
:101070001CC0818190E088169906B9F4F80181813D
:10108000282F082E000C330B3F938F931F922F9223
:1010900028E131E03F932F930E9485220F900F901B
:1010A0000F900F900F900F9067C0FE01EE0FFF1F83
:1010B000EE0FFF1FE80DF91DEE0FFF1FE853FD4F68
:1010C000208122233CF47F926F920E949B220F90FA
:1010D0000F9052C0FE01EE0FFF1FEE0FFF1FE80D35
:1010E000F91DEE0FFF1FE853FD4F208126FF13C0AF
:1010F000F8018181282F082E000C330B3F938F932A
:101100002AE931E03F932F930E949B220F900F908A
:101110000F900F9031C0FE01EE0FFF1FEE0FFF1F6B
:10112000EC0DFD1DEE0FFF1FE853FD4F808185FF85
:1011300013C0F8018181282F082E000C330B3F9338
:101140008F9325E931E03F932F930E949B220F90CC
:101150000F900F900F9010C0F8018181282F082E5A
:10116000000C330B3F938F935F924F920E94852226
:101170000F900F900F900F90F3E0F31528F1FE0100
:10118000EE0FFF1FEE0FFF1FE80DF91DEE0FFF1F03
:10119000E853FD4F808182FD0FC0FE013196EE0FB6
:1011A000FF1FEE0FFF1FE80DF91DEE0FFF1FE853A5
:1011B000FD4F808183FF04C08CE70E947C1B07C029
:1011C00080E20E947C1B03C08CE70E947C1B21965E
:1011D000085F1F4FC530D10509F046CF8AE00E9455
:1011E0007C1B00E010E0E4012197181434F5F801AD
:1011F000EE0FFF1FEE0FFF1FE80DF91DEE0FFF1F93
:10120000E853FD4F808181FD0EC0F801EE0FFF1FF6
:10121000EE0FFF1FEC0FFD1FEE0FFF1FE853FD4FFA
:10122000808180FF05C080E991E00E94911B1CC075
:101230008BE891E00E94911B17C0F801EE0FFF1F91
:10124000EE0FFF1FE80DF91DEE0FFF1FE853FD4FD6
:10125000808181FF05C086E891E00E94911B04C057
:1012600081E891E00E94911B0F5F1F4F053011052F
:1012700009F0BBCF8EE791E00E94911B21E0821A1A
:10128000910832E0A31AB1088FEF8816980609F08A
:10129000E4CE02C0C5E0B6CEDF91CF911F910F9191
:1012A000FF90EF90DF90CF90BF90AF909F908F9086
:1012B0007F906F905F904F903F902F90089589306E
:1012C00089F4E3E1F3E09081E181F0E024E0929F92
:1012D000E00DF11D1124EE0FFF1FE853FD4F90812B
:1012E00090629083E3E1F3E09081E181F0E024E01B
:1012F000929FE00DF11D1124EE0FFF1FE853FD4FEB
:10130000908194FF0E942A04E3E1F3E08081E1816F
:10131000F0E094E0899FE00DF11D1124EE0FFF1F16
:10132000E853FD4F808180618083809161018183DA
:1013300008959F92AF92BF92CF92DF92EF92FF9269
:101340000F931F93CF93DF9311E0C3E1D3E00F2EF0
:10135000F3E0FF2EF02D04E031C1823009F45DC0CE
:1013600030F4882359F0813009F478C0F6CF833007
:1013700009F419C1843009F424C1EFCF8881E981CF
:10138000F0E094E0899FE00DF11D1124EE0FFF1FA6
:10139000E853FD4F80818061808385FF04C0F09217
:1013A000F00280E009C182E00E948F06D82E0E94E0
:1013B0004A07882351F08D2D0E94E806811105C04F
:1013C00082E00E94D5036C01FEC0812F0E948F062F
:1013D000D82E0E944A07882351F08D2D0E94E806DE
:1013E000811105C0812F0E94D5036C01ECC080E003
:1013F0000E948F06D82E0E944A07882349F08D2D1F
:101400000E94E806811104C00E94D5036C01DBC074
:1014100082E08093F00280E0CFC08881E981F0E033
:1014200094E0899FE00DF11D1124EE0FFF1FE8539A
:10143000FD4F8081806880838091B5029091B602D3
:101440000E942D122091610121502093610110937F
:10145000F0020E948003E82E812FAEC08881C980EF
:10146000D12CA82EB12CF60194E0899FE00DF11D3E
:101470001124EE0FFF1FE853FD4F808186FF07C048
:101480000093F0021092F102812FE12C95C082E0CE
:101490000E948F06982E0E944A07882329F0892DE2
:1014A0000E94E8068823D1F0812F0E948F06982E93
:1014B0000E944A07882329F0892D0E94E806882384
:1014C00069F080E00E948F06982E0E944A078823C8
:1014D000A1F0892D0E94E80681110FC01092F00240
:1014E00080915E01882309F466C0109360018091A9
:1014F000610180935F0180E05FC080915E01811196
:1015000020C0F501EE0FFF1FEE0FFF1FEC0DFD1DBC
:10151000EE0FFF1FE853FD4F80818068808380912C
:10152000B5029091B6020E942D12209161012150C6
:10153000209361011093F0020E948003E82E812F16
:101540003BC0809160018823D1F02091610130E09F
:1015500080915F01082E000C990B821793077CF491
:10156000F501EE0FFF1FEE0FFF1FEC0DFD1DEE0F3F
:10157000FF1FE853FD4F80818068808302C0109276
:1015800060018091B5029091B6020E942D122091C7
:1015900061012150209361011093F0020E948003A9
:1015A000E82E812F09C010935E0110926001109304
:1015B000F00280E001C080E081111CC08091F00247
:1015C000CCCEE12C17C01092F002809161018F5FA8
:1015D0008093610160911303709114038091B502AF
:1015E0009091B6020E940612C6010E948003E82E66
:1015F000812FE2CF8E2DDF91CF911F910F91FF9020
:10160000EF90DF90CF90BF90AF909F900895CF93D1
:10161000DF93809161018F5F80936101E3E1F3E0EB
:10162000C081D1812D2F30E04C2F50E0F90194E0A2
:10163000C99FE00DF11D1124EE0FFF1FE853FD4F70
:10164000908196FF06C08C2F91E09D0F0E94800331
:10165000AFC0FA01EE0FFF1FEE0FFF1FE20FF31FE7
:10166000EE0FFF1FE853FD4F908195FDA0C0B9011B
:101670006F5F7F4F90E0FA01EE0FFF1FEE0FFF1F2D
:10168000E60FF71FEE0FFF1FE853FD4FE1810E2E0F
:10169000000CFF0BE817F907A1F4FA01EE0FFF1F8A
:1016A000EE0FFF1FE60FF71FEE0FFF1FE853FD4F72
:1016B0006081662334F0DF5F8C2F9D2F0E948003B2
:1016C00071C0D9011197FA01EE0FFF1FEE0FFF1F36
:1016D000EA0FFB1FEE0FFF1FE853FD4F6181062E3F
:1016E000000C770B8617970749F46081662334F066
:1016F000D1508C2F9D2F0E94800354C0BA016F5F80
:101700007F4FFB01EE0FFF1FEE0FFF1FE20FF31FD6
:10171000EE0FFF1FE853FD4FE1810E2E000CFF0B73
:101720008E179F07A1F4FB01EE0FFF1FEE0FFF1FA7
:10173000E20FF31FEE0FFF1FE853FD4F608166239A
:1017400034F0CF5F8C2F9D2F0E9480032BC041501F
:101750005109FA01EE0FFF1FEE0FFF1FE20FF31FFB
:10176000EE0FFF1FE853FD4F6181062E000C770B33
:1017700086179707A1F4FA01EE0FFF1FEE0FFF1F68
:10178000E20FF31FEE0FFF1FE853FD4F8081882308
:1017900044F0C1508C2F9D2F0E94800303C084E031
:1017A00001C084E0E3E1F3E0C083D18301C080E0C5
:1017B000DF91CF910895FC01808186FF05C088E00C
:1017C000838380818F7B808308950895FC018081CD
:1017D00086FF05C088E0838380818F7B80830895A6
:1017E000089521E4FC0120838FEF0E94C61881E058
:1017F0000E94A818469825E133E046E650E060E0F4
:1018000070E089E990E00E942D1685E193E00E9446
:1018100006170E94F2020E94AC0781E00895CF9360
:10182000DF93EC0160E070E081E090E00E947E1ABE
:10183000E8E7F3E08081816080838881877F8F7E05
:101840008883DF91CF91089582E694E00E94911BF6
:101850008FE38F939CE49F939CEC9F939DEC9F93CD
:101860001F921F921F921F928F9389E98F938F93DC
:101870008AE98F9388E394E09F938F930E949B2241
:101880000E947C189F938F938BE294E09F938F9399
:101890000E949B2260E070E081E090E00E947E1A4E
:1018A00060E070E082E090E00E947E1A81E00E9499
:1018B000A81880E00E949718E2EFF2E08081816032
:1018C0008083E9EFF2E08081816080838CEE93E099
:1018D0009F938F930E949B228DB79EB744960FB61D
:1018E000F8949EBF0FBE8DBF08958AE00E9497189E
:1018F000E8E7F3E080818E7F808380818D7F808325
:1019000008951F93CF93DF93EC018091B70284FD7C
:1019100005C0E8E7F3E080818160808381E00E9478
:10192000C31AC29738F08881882334F48F7788836C
:1019300018E003C015E001C013E082E00E94C31A62
:1019400085369105C0F0888185FB222720F991E03A
:10195000922790FB85F9888385FF04C080E00E9470
:10196000971803C08AE00E94971860E070E082E058
:1019700090E00E947E1A812FDF91CF911F910895F0
:10198000CF93DF93EC0182E00E94C31A853F914020
:10199000A0F0888185FB222720F991E0922790FB17
:1019A00085F9888385FF02C0469A01C0469860E0A9
:1019B00070E082E090E00E947E1A1C9909C0E8E77E
:1019C000F3E0808181608083469A81E00E949718CD
:1019D00081E00E94C31A813D974010F087E001C06A
:1019E00088E0DF91CF91089581E00E94C31A853F7E
:1019F000914048F081E00E94971860E070E081E03B
:101A000090E00E947E1A89E00895CF931C990FC040
:101A1000E8E7F3E080818160808383E00E9497188B
:101A20008CE295E00E941E1783E00E9497181B9994
:101A300008C0E8E7F3E080818260808383E00E9451
:101A4000971881E00E94C31A813D974028F081E0F9
:101A50000E949718C6E001C0C1E082E00E94C31A4C
:101A6000813D9740A8F00E94501385ED93E09F932D
:101A70008F930E949B22E8E7F3E080818D7F808333
:101A800060E070E082E090E00E947E1A0F900F907C
:101A90008C2FCF9108950E94F91881EC93E09F93C9
:101AA0008F930E949B228AE00E949718E8E7F3E058
:101AB00080818E7F80830F900F9008950E94F91887
:101AC0008AE00E9497184698E8E7F3E080818E7FCD
:101AD0008083089587E893E09F938F930E94B914C1
:101AE00060E070E080E090E00E94641560E080E0DB
:101AF0000E942815E8E7F3E080818E7F8083808153
:101B00008D7F808380818B7F80838081877F8083AE
:101B100080818F7E80830F900F90089583E00E94D4
:101B2000C61868E770E088E790E00E946415E8E76F
:101B3000F3E080818E7F808380818D7F80838081B0
:101B40008B7F80838AE00E9497180895CF93DF935C
:101B5000EC0188EA93E09F938F930E94B91461E0AF
:101B600081E00E94281568E770E088E790E00E9415
:101B7000641585E193E00E94061783E00E949718A0
:101B800088818B7F888360E070E081E090E00E9434
:101B90007E1AC8E7D3E088818160888360E070E0C6
:101BA00082E090E00E947E1A88818260888388812A
:101BB0008B7F888360E070E084E090E00E947E1A72
:101BC00088818860888360E070E088E090E00E940F
:101BD0007E1A88818F7E888360E070E080E190E0EB
:101BE0000E947E1A0E94BB120F900F90DF91CF913E
:101BF0000895CF93DF93EC0183E00E94A81861E081
:101C000081E00E94281568E770E088E790E00E9474
:101C100064151E821D8285E193E00E94061783E011
:101C20000E94971888818B7F888360E070E081E054
:101C300090E00E947E1AC8E7D3E0888181608883A3
:101C400060E070E082E090E00E947E1A888182600D
:101C500088838881846088830E94BB120E945A1204
:101C6000DF91CF910895EF92FF921F93CF93DF936F
:101C7000EC01E7EBF2E02681378180859185820FC8
:101C8000931F9E838D83889728F088818460888342
:101C900014E001C013E082E00E94C31A8A3F91055C
:101CA00030F180910E03811104C0809112038823CA
:101CB00041F088818460888380910E03811116C071
:101CC00014E080910F03811112C0809110038111E3
:101CD0000EC08091110381110AC0809112038111FD
:101CE00006C088818460888314E001C014E081E02C
:101CF0000E94C31A8897F8F0888182FD1CC00E9458
:101D0000BB120E9400137C0160E070E081E090E073
:101D10000E947E1AB7016A50710945E153E080E0E4
:101D200090E00E94581668E770E0681B790B8858AD
:101D30009F4F0E94641584E00E94C31A8536910566
:101D4000C0F0888185FB222720F991E0922790FB43
:101D500085F9888385FF04C083E00E94971803C03B
:101D60008AE00E94971860E070E084E090E00E94B2
:101D70007E1A812FDF91CF911F91FF90EF900895F0
:101D8000CF93DF93EC01888183FD0DC081E00E9439
:101D9000C31AC29740F00E94BB120E94A51189830A
:101DA000888188608883888184FD0EC081E00E94DC
:101DB000C31A883C910540F00E94BB120E94A511F5
:101DC0008A8388818061888381E00E94C31A8C3273
:101DD000914048F060E080E00E942815888180FDF5
:101DE00004C087E003C084E001C086E0DF91CF91AA
:101DF0000895EF92FF920F931F93CF93DF93EC011F
:101E0000888182FD1EC080910E03811104C08091E3
:101E100012038823B1F083E00E94A81868E770E0FD
:101E200088E790E00E946415E8E7F3E08081846031
:101E300080838081806180838881846088830E9420
:101E40005A1281E00E94C31A8897F8F0888182FDB7
:101E50001CC00E94BB120E9400138C0160E070E065
:101E600081E090E00E947E1AB8016A50710945E154
:101E700053E080E090E00E94581668E770E0681B2D
:101E8000790B88589F4F0E94641584E00E94C31A02
:101E90004497F0F1888182FF3DC060E070E084E00B
:101EA00090E00E947E1A0E94BB120E94A5118983B5
:101EB00090E00E947F11F82EE92EE7EBF2E0068118
:101EC000178180859185080F191F80E10E94C31A30
:101ED000EF92FF921F930F939F938F9386E993E066
:101EE0009F938F930E94B91480E10E94C31A2DB76B
:101EF0003EB7285F3F4F0FB6F8943EBF0FBE2DBFD1
:101F0000853F914048F083E00E94C61810E005C06C
:101F100012E003C012E001C012E088E00E94C31A80
:101F200085369105C0F0888185FB222720F991E054
:101F3000922790FB85F9888385FF04C083E00E9487
:101F4000971803C08AE00E94971860E070E088E06C
:101F500090E00E947E1A812FDF91CF911F910F9107
:101F6000FF90EF900895CF93DF93EC016A81898110
:101F70000E94BD118B83E8E7F3E080818E7F808330
:101F800060E070E081E090E00E947E1A8AE00E94AA
:101F90009718DF91CF910895CF93DF93EC0180E004
:101FA0000E9497188C818C3439F441E062E771E02B
:101FB00080E00E949D1511C0823539F441E062E74E
:101FC00071E081E00E949D1508C0853531F441E043
:101FD00060E273E081E00E949D15C8E7D3E088814C
:101FE0008E7F888360E070E081E090E00E947E1A3E
:101FF000888182608883DF91CF910895CF93DF93AA
:10200000EC018B810E945F090E94AC078B810E94CA
:1020100099098C831F928F9389E793E09F938F9305
:102020000E94B9148C810F900F900F900F90811126
:1020300007C085E58C8388818068888385E005C03A
:10204000833511F085E001C083E0DF91CF910895E1
:10205000CF93DF93EC018B810E945F090E94AC0754
:10206000E3E1F3E08081E181F0E094E0899FE00D1D
:10207000F11D1124EE0FFF1FE853FD4F808185FDF8
:1020800006C08B810E94070B8C8385E001C088E02D
:10209000DF91CF910895CF93DF93EC01888180FF8A
:1020A00033C087E493E09F938F930E949B220E940A
:1020B0007C189F938F938EE393E09F938F930E945E
:1020C0009B220E94EF189F938F9384E393E09F934A
:1020D0008F930E949B228AE093E09F938F930E94AC
:1020E0009B22469A85EF94E00E941E1788818E7F7E
:1020F0008260806488838DB79EB70C960FB6F89483
:102100009EBF0FBE8DBF2DC081FF2BC086ED92E01C
:102110009F938F930E949B220E947C189F938F9382
:102120008DEC92E09F938F930E949B220E94EF1868
:102130009F938F9383EC92E09F938F930E949B22B7
:1021400082E992E09F938F930E949B228881806412
:1021500088838DB79EB70C960FB6F8949EBF0FBEBE
:102160008DBF469A80E00E94971860E070E081E0A1
:1021700090E00E947E1AC8E7D3E088818E7F888332
:1021800060E070E082E090E00E947E1A88818260C8
:102190008883DF91CF910895CF93DF93EC01469828
:1021A0008F811F928F9382E892E09F938F930E947A
:1021B00003150F900F900F900F908F81813069F071
:1021C00018F0823099F01BC088E492E09F938F93BF
:1021D0000E9403150F900F901AC08FE292E09F9318
:1021E0008F930E9403150F900F9011C08EE192E023
:1021F0009F938F930E9403150F900F9008C080E16A
:1022000092E09F938F930E9403150F900F900E946E
:102210007C189F938F9388E092E09F938F930E9406
:10222000DE14E8E7F3E080818160808360E070E0A5
:1022300081E090E00E947E1A0F900F900F900F9017
:10224000DF91CF910895EF92FF920F931F93CF9359
:10225000DF93E82E8B01C82FD0E0FE01EE0FFF1FA9
:10226000E65BFE4F0190F081E02DCB010995F82E41
:10227000E816D9F0CC0FDD1FCC0FDD1FCE5DDE4F91
:10228000EA81FB81309711F0C8010995EF2DF0E04C
:10229000EE0FFF1FEE0FFF1FEE5DFE4F0190F0816E
:1022A000E02D309711F0C80109958F2DDF91CF9166
:1022B0001F910F91FF90EF90089562E671E0809179
:1022C0006A010E94231180936A0108950E94941963
:1022D0004AE050E06AE070E08DE591E10E94B617B7
:1022E000CEE6D3E088834AE050E060E070E08FE81B
:1022F00099E10E94B61789830E942918FDCF0097A3
:1023000001F121E030E040E050E0FC01E170FF2706
:1023100096958795E29FB001E39F700DF29F700D37
:102320001124460F571FB901660F771F220F331F65
:10233000220F331F220F331F260F371F009729F755
:1023400002C040E050E0CA010895EEE0F3E020E072
:1023500030E080E061E070E09191992341F0AB01C1
:10236000022E02C0440F551F0A94E2F7842B2F5F00
:102370003F4F2530310581F70895282F2170982F80
:1023800091719131A9F0211118C084FD1BC082FF09
:1023900002C097E007C09AE005C094E003C095E052
:1023A00001C096E08F3199F46F3189F499E00FC044
:1023B000962F9E7091F793E0F5CF962F9E7079F748
:1023C00091E0F0CF962F9E7061F792E0EBCF892FCE
:1023D00008950F931F93CF93DF938C0186E090E0D5
:1023E0000E943A20EC01198308838FEF9FEF9B83B3
:1023F0008A83C801880F991F0E943A209D838C838D
:10240000CE01DF91CF911F910F910895DC011296BB
:102410002D913C9113978D919C91119701972817BD
:10242000390751F485EA94E09F938F930E949B2291
:1024300081E090E00E9456231496ED91FC9115974F
:102440002F5F3F4F13963C932E931297220F331F0B
:10245000E20FF31F718360830895DC0112962D91C2
:102460003C9113972F3F8FEF380751F487E894E0A2
:102470009F938F930E949B2281E090E00E945623BD
:102480001496ED91FC911597C901019713969C93B1
:102490008E931297220F331FE20FF31F80819181D9
:1024A0000895E9E6F0E08081856080838DB38360E4
:1024B0008DBB0895F894E7EBF2E01782168211863F
:1024C0001086789408951F920F920FB60F921124E0
:1024D0008F939F93EF93FF938091F20284FF16C036
:1024E0008091B7028370813041F4E7EBF2E086819E
:1024F000978101969783868309C0823039F4E7EB90
:10250000F2E086819781019797838683FF91EF910F
:102510009F918F910F900FBE0F901F9018951F9253
:102520000F920FB60F9211248F939F93EF93FF9307
:102530008091F20284FF16C08091B7028C708430C3
:1025400041F4E7EBF2E080859185019691878087E1
:1025500009C0883039F4E7EBF2E080859185019776
:1025600091878087FF91EF919F918F910F900FBE80
:102570000F901F901895EF92FF920F931F93CF9398
:10258000479A8FE79CE00197F1F700C000000AEF3F
:1025900012E07801C3E08C2F0E946818D7018D9358
:1025A0009D937D01CF5FC830B1F74798E9EFF2E026
:1025B000818592852781308532872187908787831F
:1025C000808180FF17C044E053E061E0D8018D9125
:1025D0009D918D0188539F4F18962D913C9119978D
:1025E0002817390714F4658B01C0158A3196041732
:1025F000150761F7CF911F910F91FF90EF9008950C
:10260000E9EFF2E08381948127813085821B930B6F
:1026100095958795959587950895CF93DF93C9EF05
:10262000D2E018824AE050E060E070E084E093E09D
:102630000E942E23888181608883DF91CF91089545
:102640000F931F93CF93DF93C82F8B0162E370E04A
:1026500082E390E00E946415C11105C061E082E050
:102660000E94281506C0C13021F462E081E00E947A
:102670002815C7EBD2E088818061888360E070E034
:1026800080E890E00E947E1AE8E7F3E080818068AD
:1026900080831B870A87DF91CF911F910F91089547
:1026A0004F925F926F927F928F929F92AF92BF9262
:1026B000CF92DF92EF92FF920F931F93CF93DF930E
:1026C000CDB7DEB764970FB6F894DEBF0FBECDBFAF
:1026D000E9EFF2E080818E7F808381E00E9497188D
:1026E0000E94BB120F2EFAEF8F2EF2E09F2EF02DDC
:1026F0008E01055F1F4FCE0101967C010F2EF4E085
:10270000AF2EF3E0BF2EF02D9C01A801F4018191C2
:102710009191DA018D939D93AD01D9018D939D9394
:102720009D01EA15FB0599F760E273E080E00E94E5
:1027300020138091B70284FF31C06E01B5E1CB0E4A
:10274000D11C0F2EF7EB6F2EF2E07F2EF02D0E94A2
:10275000BB122701A401F801DA012D913D91AD01D1
:10276000C901608171812617370710F431832083F6
:10277000D2016D917C9111976817790710F42D9310
:102780003C933296B2E04B0E511CEC15FD0521F73F
:102790000E948F19F301808184FDD9CFFFEF23ECD4
:1027A00089E0F15020408040E1F700C0000060E483
:1027B00076E081E00E9420138091B70284FF31C04F
:1027C0006E0195E1C90ED11C0F2EF7EB6F2EF2E0D2
:1027D0007F2EF02D0E94BB122701A401F801DA011F
:1027E0002D913D91AD01C901608171812617370797
:1027F00010F431832083D2016D917C911197681779
:10280000790710F42D933C933296B2E04B0E511C95
:10281000EC15FD0521F70E948F19F301808184FDDD
:10282000D9CFFFEF23EC89E0F15020408040E1F761
:1028300000C0000060E273E080E00E9420138091FD
:10284000B70284FF31C06E0195E1C90ED11C0F2E75
:10285000F7EB6F2EF2E07F2EF02D0E94BB122701C6
:10286000A401F801DA012D913D91AD01C90160810A
:1028700071812617370710F431832083D2016D91BF
:102880007C9111976817790710F42D933C93329639
:10289000B2E04B0E511CEC15FD0521F70E948F197B
:1028A000F301808184FDD9CF8AE00E94971889ECDA
:1028B00094E09F938F930E94DE140F900F90C12C91
:1028C000D12C0F2EF2EC8F2EF4E09F2EF02DD7019D
:1028D0002D913D917D01F801819191918F01820FA0
:1028E000931F96958795D5018D939D935D019F9339
:1028F0008F93DF92CF929F928F920E94DE14BFEF50
:10290000CB1ADB0A0F900F900F900F900F900F9043
:10291000E5E0CE16D104D9F6FFEF23ED80E3F150C8
:1029200020408040E1F700C000004AE050E060E055
:1029300070E084E093E00E943E23E9EFF2E08081C2
:102940008160808364960FB6F894DEBF0FBECDBF62
:10295000DF91CF911F910F91FF90EF90DF90CF907B
:10296000BF90AF909F908F907F906F905F904F90AF
:102970000895EF92FF920F931F93CF93DF93CDB7FC
:10298000DEB78E01075F1F4FF801E190F1908F01D4
:102990008CEE94E00E94911BA801B70180918F03F7
:1029A000909190030E94C1228AE00E947C1BDF91DB
:1029B000CF911F910F91FF90EF900895EF92FF92AA
:1029C0000F931F93CF93DF93CDB7DEB78E01075FD1
:1029D0001F4FF801E190F1908F0184EE94E00E9486
:1029E000911BA801B70180918F03909190030E94E1
:1029F000C1228AE00E947C1BDF91CF911F910F9131
:102A0000FF90EF900895EF92FF920F931F93CF9353
:102A1000DF93CDB7DEB78E01075F1F4FF801E1905E
:102A2000F1908F018BED94E00E94911BA801B701FA
:102A300080918F03909190030E94C1228AE00E94AE
:102A40007C1BDF91CF911F910F91FF90EF90089524
:102A5000813049F4439A4498E7EBF2E080818C7F1F
:102A60008160808313C0823049F4449A4398E7EB35
:102A7000F2E080818C7F8260808308C088B1877E8D
:102A800088B9E7EBF2E080818C7F8083613049F484
:102A900042985C9AE7EBF2E08081837F84608083D8
:102AA0000895623049F4429A5C98E7EBF2E0808145
:102AB000837F88608083089542985C98E7EBF2E01A
:102AC0008081837F80830895E7EBF2E074836383E2
:102AD0002581820F911D27FD9A958F3F910541F029
:102AE0003CF08FEF90E09093B9028093B8020BC056
:102AF00099232CF09093B9028093B80204C01092ED
:102B0000B9021092B8026F3F710541F03CF08FEFAF
:102B100090E09093BB028093BA0206C0772324F41E
:102B20001092BB021092BA02E7EBF2E0818180932F
:102B3000B30083818093B40008950F931F93CF93C4
:102B4000DF93082FEB01142F64E670E084E690E039
:102B50000E946415111143C001111FC061E082E0A1
:102B60000E94281560E070E080E890E00E947E1AE4
:102B7000E8E7F3E080818068808380E80E94C31AE0
:102B80008C179D07D0F360E080E00E942815E8E7ED
:102B9000F3E080818F77808345C0013009F042C027
:102BA00062E081E00E94281560E070E080E890E03B
:102BB0000E947E1AE8E7F3E080818068808380E8E5
:102BC0000E94C31A8C179D07D0F360E080E00E943A
:102BD0002815E8E7F3E080818F77808323C01130E8
:102BE00009F5011105C061E082E00E94281506C0C8
:102BF000013021F462E081E00E94281507EB12E029
:102C0000F80180818061808360E070E080E890E07E
:102C10000E947E1AE8E7F3E0808180688083F801F3
:102C2000D387C287DF91CF911F910F91089560E004
:102C300080E00E942815E0EBF0E08081836A8083C9
:102C4000E1EBF0E08081876080831092B300109206
:102C5000B40083EF8093BC020895CF93DF93EB0120
:102C6000F9011282138214821582118210829783D5
:102C700086837187608753874287BC016F5F7F4F70
:102C80008FEF9FE70E94781F75876487BE016F5F93
:102C90007F4F8FEF9FE30E94781FCB01770FAA0B26
:102CA000BB0B86879787A08BB18BDF91CF9108955F
:102CB000EF92FF920F931F93CF93DF938B01FA0153
:102CC000861B970B248535852817390784F03195A5
:102CD00021953109821793076CF026813781829FF5
:102CE000E001839FD00D929FD00D112405C0CFEF3E
:102CF000DFE702C0C1E0D0E8092E000CAA0BBB0B35
:102D000042815381648175819A01AB01280F391F7B
:102D10004A1F5B1F86859785A089B1898217930713
:102D2000A407B5074CF482839383A483B5836FEF24
:102D30007FE380E090E01DC0B095A09590958195CF
:102D40009F4FAF4FBF4F281739074A075B074CF417
:102D500082839383A483B58361E070EC8FEF9FEF50
:102D600008C02283338344835583A085B1850E94A4
:102D7000D81F20813181201B310BA285B3852A9F6A
:102D800070012B9FF00C3A9FF00C112411830083EB
:102D90008E01DD0F220B330BAB01BC01400F511F25
:102DA000621F731FC701FF0CAA0BBB0B480F591FF3
:102DB0006A1F7B1FDB01CA01772324F481589F4FD0
:102DC000AF4FBF4F689416F8B595A795979587951F
:102DD0001694D1F7813020E892072FEFA207B207AF
:102DE00024F481E090E8AFEFBFEF811520E892076F
:102DF000A105B10524F08FEF9FE7A0E0B0E0DF91DF
:102E0000CF911F910F91FF90EF900895FC011282D6
:102E10001382148215820895E0E8F0E080818064D6
:102E20008083E1E8F0E080818860808310928900EF
:102E30001092880080818B7F808308958F929F926B
:102E4000AF92BF92DF92EF92FF921F93CF93DF93E7
:102E5000EC01FC0114911F703196249130E040E0A8
:102E600050E060E67AEE80E090E00E94AE1FFE0146
:102E700032968491882309F46EC062E070E0D12E0E
:102E80000F2EF4E8EF2EF12CF02D0F2EF8E88F2EF8
:102E9000912CF02DA1E8B0E05B014FEFA41AB40A29
:102EA000E4918E2F829586958770A90102C0569570
:102EB00047958A95E2F7CA01E4FF06C0440F551F03
:102EC000840F951F969587954E2F4F704E3051F475
:102ED0006E5F7F4FFE01EA0DFB1DE4914E2F429580
:102EE0004F7002C04D2DB5011E2F1F701F30D1F045
:102EF000F7011182108250E0FA01EE0FFF1FE40F7C
:102F0000F51FEE0FFF1FEE0FFF1FE10FF11DEA5936
:102F1000FA4FE4914E2F50E0F401518340834C91DD
:102F200044604C93019741F0EFE7FEE33197F1F7EE
:102F300000C000000197C1F78C918B7F8C938FE7C5
:102F40009EE30197F1F700C00000FE01E60FF71FB6
:102F500084918111A1CFDF91CF911F91FF90EF90CC
:102F6000DF90BF90AF909F908F9008950F931F9325
:102F7000CF93DF938C018091280390912903892BB3
:102F8000A1F0E8E2F3E021E030E0922FE901A7812F
:102F9000B0852F5F3F4F3796AB2BB9F79A3041F48E
:102FA00081E0809327038AE018C0C0E0D0E090E081
:102FB000FE01EE0FFF1FEE0FFF1FEE0FFF1FEC1BBA
:102FC000FD0BE85DFC4F118300836F5F7F4F7383C0
:102FD0006283558344831682892FDF91CF911F919D
:102FE0000F9108958A3020F081E08093270308959F
:102FF000282F30E097E0899FF0011124E85DFC4F15
:1030000080819181892B29F482E08093270381E0DC
:1030100001C080E0F901EE0FFF1FEE0FFF1FEE0F62
:10302000FF1FE21BF30BE85DFC4F1182108213823D
:1030300012821582148216820895CF93C0E08C2FDD
:103040000E94F217CF5FCA30D1F710922703CF91B9
:1030500008951F93CF93DF93C8E2D3E010E08E81F1
:10306000882369F0E881F98109958E8181508E83EA
:103070008C819D81892B19F4812F0E94F2171F5F8B
:1030800027961A3061F7DF91CF911F910895E8E2FA
:10309000F3E02EE633E041E080819181892B89F0D5
:1030A000868181110EC082819381019793838283EF
:1030B000892B39F4468384819581009711F093839D
:1030C00082833796E217F30739F708950895089534
:1030D000ECE7F0E09081907E8F71892B8083EAE7A6
:1030E000F0E0808180648083808186FDFDCF8091C7
:1030F000780090917900089582E00E946818A0E01D
:10310000B0E09C01AD01220F331F441F551FA8E8FA
:10311000B3E10E94CD1FDC01CB01072E7AE0B6950A
:10312000A795979587957A95D1F7702D089595B1C4
:10313000936095B9813011F429980895811102C0E6
:1031400028980895833019F485B18C7F85B9089546
:10315000833071F08F3F19F08130B9F410C02A9894
:103160004598E2EFF2E08081846080618083089579
:103170002A98E2EFF2E0808180618083089545988B
:10318000E2EFF2E08081846080830895833071F003
:103190008F3F19F08130B9F410C02A9A459AE2EFB6
:1031A000F2E080818B7F8F7E808308952A9AE2EF00
:1031B000F2E080818F7E80830895459AE2EFF2E00D
:1031C00080818B7F80830895F8946091F5027091DF
:1031D000F6028091F7029091F802789408950E9487
:1031E000E41828EE33E040E050E00E948C1FC90153
:1031F0000895F8941092F5021092F6021092F702D8
:103200001092F80278940895CF930E947C189093BE
:10321000F4028093F30280399A4128F4E2EFF2E05D
:103220008081886080838091F20283FF50C0E091AA
:103230001601F0911701099560E080E00E942815C1
:1032400083E00E94C6184698E2EFF2E080818E7F0C
:1032500080838AE00E9497180E947C189F938F9326
:1032600087E995E09F938F930E9403150F900F902D
:103270000F900F90C4E181E00E9497188FEF93ECBC
:1032800029E0815090402040E1F700C000008AE032
:103290000E9497188FEF93EC29E0815090402040D6
:1032A000E1F700C00000C15031F78FEF0E94C6184F
:1032B0008AE00E94971883B7817F846083BF83B7B9
:1032C000816083BF889583B78E7F83BFF8CFCF910E
:1032D00008958091B70284FF1CC08091F20280FFA4
:1032E00018C080E80E94C31A2091C1023091C20226
:1032F0008217930770F060E080E00E942815E7EBEA
:10330000F2E080818F7E8083E8E7F3E080818F7731
:103310008083E0911401F0911501099508950E94B0
:1033200004190E9469190895CF93DF93F89484B12A
:10333000876084B987B18C6F87B98AB1806F8AB989
:1033400081E00E94A81883E00E94C618ECE7F0E034
:10335000808180648083EAE7F0E0808187688083F1
:10336000808180648083808186FDFDCF809178009C
:103370009091790084B5826084BD85B5836085BDF8
:10338000EEE6F0E080818260808389EF87BD0E9455
:103390007C18C2EFD2E09A8389831B821C821D8233
:1033A0001E8218821092F9020E940D1346988AE03C
:1033B0000E9497180E9417160E94511288E090E010
:1033C0000E94631B86E091E09093900380938F03AB
:1033D0000E940C170E941D180E94051B88818160A5
:1033E00088837894DF91CF9108951F920F920FB642
:1033F0000F9211242F933F934F935F936F937F937B
:103400008F939F93AF93BF93EF93FF93E2EFF2E01D
:1034100083819481A581B6810196A11DB11D83830D
:103420009483A583B6838091780380FF07C0E8E783
:10343000F3E0818192810196928381838091780368
:1034400081FF07C0E8E7F3E08381948101969483CC
:1034500083838091780382FF07C0E8E7F3E08581EA
:1034600096810196968385838091780383FF07C0B8
:10347000E8E7F3E0878190850196908787838091C4
:10348000780384FF07C0E8E7F3E081859285019621
:10349000928781878091780385FF07C0E8E7F3E092
:1034A000838594850196948783878091780386FF2E
:1034B00007C0E8E7F3E085859685019696878587BE
:1034C0008091780388233CF4E8E7F3E087859089CE
:1034D0000196908B87870E944718FF91EF91BF91CB
:1034E000AF919F918F917F916F915F914F913F919C
:1034F0002F910F900FBE0F901F901895F894883061
:10350000910539F148F482309105C9F08430910574
:10351000D9F00197B1F50EC08032910521F118F470
:103520004097E1F02EC08034910511F1803891056B
:1035300021F127C070937A036093790322C07093BE
:103540007C0360937B031DC070937E0360937D03B7
:1035500018C07093800360937F0313C0709382033D
:10356000609381030EC0709384036093830309C04A
:10357000709386036093850304C0709388036093FF
:10358000870378940895F894883011F138F48230E4
:10359000A9F08430C1F08130A1F50BC0803211F167
:1035A00018F48031D1F02DC0803409F1803821F138
:1035B00028C08091790390917A0325C080917B0384
:1035C00090917C0320C080917D0390917E031BC06D
:1035D00080917F039091800316C080918103909128
:1035E000820311C080918303909184030CC0809169
:1035F00085039091860307C080918703909188038B
:1036000002C080E090E0789408951092B90088E4B8
:103610008093B80008951F920F920FB60F92112455
:103620002F938F939F93EF93FF938091C0002091EE
:10363000C6008C71E0911202EF5FEF719091110260
:10364000E91739F0E0931202F0E0EB5EFD4F2083C2
:1036500001C082E090911002892B80931002FF91AB
:10366000EF919F918F912F910F900FBE0F901F9010
:1036700018951F920F920FB60F9211248F939F935C
:10368000EF93FF939091140280911302981769F0C1
:10369000E0911302EF5FEF77E0931302F0E0EB5C51
:1036A000FD4F80818093C60005C0E1ECF0E0808191
:1036B0008F7D8083FF91EF919F918F910F900FBE2F
:1036C0000F901F90189510921402109213021092EE
:1036D00012021092110299231CF422E02093C000E0
:1036E00090789093C5008093C40088E98093C100CE
:1036F00086E08093C2000895209114022F5F2F77F7
:10370000909113022917E1F3E22FF0E0EB5CFD4FFB
:10371000808320931402E1ECF0E08081806280835A
:103720000895CF93DF93EC012196FC0184918823C7
:1037300039F00E947C1BFE01849121968111F9CF02
:10374000DF91CF9108951F920F920FB60F9211241F
:103750002F938F939F93EF93FF938091C8002091B5
:10376000CE008C71E0916D01EF5FEF7190916C0173
:10377000E91739F0E0936D01F0E0E059FE4F208346
:1037800001C082E090916B01892B80936B01FF91C6
:10379000EF919F918F912F910F900FBE0F901F90DF
:1037A00018951F920F920FB60F9211248F939F932B
:1037B000EF93FF9390916F0180916E01981769F0DC
:1037C000E0916E01EF5FEF77E0936E01F0E0E0577C
:1037D000FE4F80818093CE0005C0E9ECF0E080814F
:1037E0008F7D8083FF91EF919F918F910F900FBEFE
:1037F0000F901F901895A0E1B0E0E1E0FCE10C947F
:10380000E01F7C011B016A01FC0117821682838183
:1038100081FF44C39E012F5F3F4F3901F701938120
:10382000F10193FD859193FF81911F01882309F494
:1038300031C3853239F493FD859193FF81911F0146
:10384000853239F4B70190E00E94492256016501A2
:10385000E5CF10E0512C912CFFE1F915D8F08B3217
:1038600079F038F4803279F08332A1F4F92DF061E7
:103870002EC08D3261F0803369F4292D21602DC076
:10388000392D3260932E892D8460982E2AC0E92D1F
:10389000E86015C097FC2DC020ED280F2A3088F471
:1038A00096FE06C03AE0139F200D1124122F19C076
:1038B0008AE0589E200D1124522EE92DE0629E2EA2
:1038C00010C08E3231F496FCE5C2F92DF0649F2EC3
:1038D00008C08C3621F4292D2068922E02C088362B
:1038E00041F4F10193FD859193FF81911F018111B5
:1038F000B3CF9BEB980F933020F4992D9061805EAD
:1039000007C09BE9980F933008F066C1992D9F7E00
:1039100096FF16E09F73992E853619F49064992EC0
:1039200008C0863621F4392F3068932E02C0111159
:10393000115097FE07C01C3350F444244394410EA9
:1039400027E00BC0183038F027E017E005C027E06B
:103950009CE3492E02C0212F412C560184E0A80E81
:10396000B11CF6016081718182819381042DA301D4
:103970000E945B216C01F981FC87F0FF02C0F3FF1C
:1039800006C091FC06C092FE06C000E205C00DE232
:1039900003C00BE201C000E08C858C7019F00111AE
:1039A0005AC29BC297FE10C04C0CFC85F4FF04C0A9
:1039B0008A81813309F44A94141474F528E024159B
:1039C00078F588E0482E2CC096FC2AC0812F90E024
:1039D0008C159D059CF03CEFC3163FEFD30674F0A9
:1039E000892D8068982E0AC0E2E0F0E0EC0FFD1F00
:1039F000E10FF11D8081803319F411501111F4CFC2
:103A000097FE0EC044244394410E812F90E0C816C7
:103A1000D9062CF41C1904C04424439401C010E0BE
:103A200097FE06C01C141D0434F4C601019605C09F
:103A300085E090E002C081E090E001110196112341
:103A400031F0212F30E02F5F3F4F820F931F252D44
:103A500030E08217930714F4581A01C0512C892DB5
:103A6000897049F4552039F0B70180E290E00E9456
:103A700049225A94F7CF002329F0B701802F90E014
:103A80000E94492293FC09C0552039F0B70180E318
:103A900090E00E9449225A94F7CF97FE4CC046010D
:103AA000D7FE02C0812C912CC60188199909F30117
:103AB000E80FF91FFE87ED87960124193109388B2D
:103AC0002F87012F10E01195019511093FEF831603
:103AD000930629F4B7018EE290E00E944922C814AF
:103AE000D9044CF08F8598898815990524F4ED85C3
:103AF000FE85818101C080E3F1E08F1A91082D8558
:103B00003E852F5F3F4F3E872D87801691062CF014
:103B1000B70190E00E944922D9CFC814D90441F4DA
:103B20009A81963320F4953319F43C8534FF81E370
:103B3000B70190E04EC08A81813319F09C859F7E49
:103B40009C87B70190E00E944922111105C094FCA6
:103B500018C085E690E017C0B7018EE290E00E94A1
:103B600049221E5F82E001E0080FF301E80FF11D1A
:103B70008081B70190E00E944922802F0113F3CF8A
:103B8000E6CF85E490E0B7010E944922D7FC06C049
:103B9000C114D10441F4EC85E4FF05C0D194C19473
:103BA000D1088DE201C08BE2B70190E00E9449226A
:103BB00080E32AE0C216D1042CF08F5FFAE0CF1A1E
:103BC000D108F7CFB70190E00E944922B701C601A2
:103BD000C0960E94492254C1833631F0833779F070
:103BE000833509F056C020C0560132E0A30EB11C47
:103BF000F6018081898301E010E0630112C0560163
:103C0000F2E0AF0EB11CF601C080D18096FE03C079
:103C1000612F70E002C06FEF7FEFC6010E943E226D
:103C20008C01F92DFF7714C0560122E0A20EB11CC1
:103C3000F601C080D18096FE03C0612F70E002C003
:103C40006FEF7FEFC6010E9433228C01F92DF068DF
:103C50009F2EF3FD1AC0852D90E008171907A8F4D0
:103C6000B70180E290E00E9449225A94F4CFF60115
:103C700097FC859197FE81916F01B70190E00E94BA
:103C8000492251105A94015011090115110579F773
:103C9000F7C0843611F0893661F5560197FE09C0E8
:103CA00024E0A20EB11CF6016081718182819381B2
:103CB0000AC0F2E0AF0EB11CF60160817181072EDF
:103CC000000C880B990BF92DFF769F2E97FF09C0EA
:103CD00090958095709561957F4F8F4F9F4FF068BD
:103CE0009F2E2AE030E0A3010E94D022C82EC618E1
:103CF0003FC0092D853721F40F7E2AE030E01DC03A
:103D0000097F8F3691F018F4883559F0C3C0803799
:103D100019F0883711F0BEC0006104FF09C00460CB
:103D200007C094FE08C0066006C028E030E005C069
:103D300020E130E002C020E132E0560107FF09C077
:103D400084E0A80EB11CF6016081718182819381AB
:103D500008C0F2E0AF0EB11CF6016081718180E015
:103D600090E0A3010E94D022C82EC6180F77902E93
:103D700096FE0BC0092D0E7FC11650F494FE0AC0AA
:103D800092FC08C0092D0E7E05C0DC2C092D03C055
:103D9000DC2C01C0D12E04FF0DC0FE01EC0DF11D85
:103DA0008081803311F4097E09C002FF06C0D394DC
:103DB000D39404C0802F867809F0D39403FD11C0FA
:103DC00000FF06C01C2DD51480F4150D1D190DC063
:103DD000D51458F4B70180E290E00E944922D394B0
:103DE000F7CFD51410F45D1801C0512C04FF10C09A
:103DF000B70180E390E00E94492202FF17C001FD55
:103E000003C088E790E002C088E590E0B7010CC0ED
:103E1000802F867859F001FF02C08BE201C080E25A
:103E200007FD8DE2B70190E00E944922C11638F4E7
:103E3000B70180E390E00E9449221150F7CFCA9465
:103E4000F301EC0DF11D8081B70190E00E94492241
:103E5000C110F5CF15C0F4E0F51560F584E0581AEF
:103E600093FE1FC0011127C02C8523FF2AC00CE739
:103E700010E0392D3071932EF8018491811124C006
:103E8000552009F4E4CCB70180E290E00E94492279
:103E90005A94F6CFF7018681978126C08FEF9FEF66
:103EA00023C0B70180E290E00E9449225A94511049
:103EB000F8CFD8CF512CB701802F90E00E94492233
:103EC000D3CF00E810E0D5CF91108052B70190E039
:103ED0000E9449220F5F1F4FCFCF23E0251510F41A
:103EE00083E0BDCF512CC0CF6096E2E10C94FC1F63
:103EF00097FB072E16F4009407D077FD09D00E9497
:103F0000172007FC05D03EF4909581959F4F0895AA
:103F1000709561957F4F0895A1E21A2EAA1BBB1BD5
:103F2000FD010DC0AA1FBB1FEE1FFF1FA217B30785
:103F3000E407F50720F0A21BB30BE40BF50B661F9B
:103F4000771F881F991F1A9469F76095709580955F
:103F500090959B01AC01BD01CF010895052E97FB03
:103F60001EF400940E94C51F57FD07D00E948C1FAD
:103F700007FC03D04EF40C94C51F50954095309526
:103F800021953F4F4F4F5F4F0895909580957095C5
:103F900061957F4F8F4F9F4F08950E942B20A59FC3
:103FA000900DB49F900DA49F800D911D1124089534
:103FB000B7FF0C94CD1F0E94CD1F821B930B089559
:103FC0002F923F924F925F926F927F928F929F9229
:103FD000AF92BF92CF92DF92EF92FF920F931F9317
:103FE000CF93DF93CDB7DEB7CA1BDB0B0FB6F894C8
:103FF000DEBF0FBECDBF09942A88398848885F8408
:104000006E847D848C849B84AA84B984C884DF8078
:10401000EE80FD800C811B81AA81B981CE0FD11D5C
:104020000FB6F894DEBF0FBECDBFED010895AA1BF9
:10403000BB1B51E107C0AA1FBB1FA617B70710F093
:10404000A61BB70B881F991F5A95A9F780959095C5
:10405000BC01CD010895A29FB001B39FC001A39FF1
:10406000700D811D1124911DB29F700D811D1124B1
:10407000911D08950F931F93CF93DF938230910585
:1040800010F482E090E0E0918B03F0918C0320E04B
:1040900030E0A0E0B0E0309719F140815181028119
:1040A000138148175907C8F08417950769F41097CA
:1040B00031F012960C93129713961C9327C000931D
:1040C0008B0310938C0322C02115310519F0421780
:1040D000530718F49A01BD01EF01DF01F801DBCFAE
:1040E00021153105F9F0281B390B2430310580F4F6
:1040F0008A819B816115710521F0FB019383828385
:1041000004C090938C0380938B03FE01329644C0CD
:10411000FE01E20FF31F81939193225031093983FD
:1041200028833AC02091890330918A03232B41F4DC
:10413000209102013091030130938A032093890377
:1041400020910001309101012115310541F42DB775
:104150003EB74091040150910501241B350BE091BD
:104160008903F0918A03E217F307A0F42E1B3F0B9B
:104170002817390778F0AC014E5F5F4F24173507D9
:1041800048F04E0F5F1F50938A0340938903819339
:10419000919302C0E0E0F0E0CF01DF91CF911F9159
:1041A0000F910895CF93DF93009709F481C0FC012C
:1041B000329713821282A0918B03B0918C031097D7
:1041C00081F420813181820F931F209189033091E6
:1041D0008A032817390751F5F0938A03E09389037E
:1041E00067C0ED0120E030E0CE17DF0740F44A81E0
:1041F0005B819E0141155105F1F0EA01F5CFD383B2
:10420000C28340815181840F951FC817D90759F483
:1042100088819981840F951F0296918380838A817A
:104220009B81938382832115310529F4F0938C03BC
:10423000E0938B033DC0E901FB83EA8349915991E7
:10424000C40FD51FEC17FD0761F480819181840FA5
:10425000951F0296E90199838883828193819B83CC
:104260008A83E0E0F0E012968D919C91139700977D
:1042700019F0FD01DC01F7CF8D919C9111979D0103
:104280002E5F3F4F820F931F2091890330918A0345
:104290002817390769F4309729F410928C0310928B
:1042A0008B0302C013821282B0938A03A093890306
:1042B000DF91CF910895283008F027E03327DA0105
:1042C000990F311D87FD916000966105710539F4E4
:1042D00032602E5F3D9330E32A95E1F708959F3FCA
:1042E00030F080387105610509F03C5F3C5F3D931B
:1042F000913008F08068911DDF93CF931F930F9347
:10430000FF92EF92192F987F9695E92F96959695A3
:10431000E90FFF27E252FF4F99273327EE24FF24AE
:10432000A701E70105900894079428F4360FE71ECB
:10433000F81E491F511D660F771F881F991F06948D
:10434000A1F70590079428F4E70EF81E491F561FA1
:10435000C11D770F881F991F661F0694A1F705904E
:10436000079428F4F80E491F561FC71FD11D880F48
:10437000991F661F771F0694A1F70590079420F4F4
:10438000490F561FC71FD81F990F661F771F881F19
:104390000694A9F784911095177041F0D695C795AA
:1043A00057954795F794E7941A95C1F7E4E8F0E03C
:1043B00068941590159135916591959105907FE2DE
:1043C0007395E118F10A430B560BC90BD009C0F7DE
:1043D000E10CF11E431F561FC91FD01D7EF4703320
:1043E00011F48A95E6CFE894015030F0080F0AF4F2
:1043F0000027021708F4202F2395022F7A3328F084
:1044000079E37D932A95E9F710C07D932A9589F683
:10441000069497956795379517951794E118F10AC3
:10442000430B560BC90BD00998F023957E917395D9
:104430007A3308F070E37C932013B8F77E917061B3
:104440007D9330F0839571E37D9370E32A95E1F7D6
:104450001124EF90FF900F911F91CF91DF91992739
:1044600087FD90950895FC01059061507040011002
:10447000D8F7809590958E0F9F1F0895FC0161508D
:10448000704001900110D8F7809590958E0F9F1F76
:1044900008950F931F93CF93DF93FB01238121FD99
:1044A00003C08FEF9FEF2CC022FF16C046815781BB
:1044B000248135814217530744F4A081B1819D01C5
:1044C0002F5F3F4F318320838C93268137812F5F6D
:1044D0003F4F3783268314C08B01EC01FB0100841E
:1044E000F185E02D0995892BE1F6D80116968D917D
:1044F0009C911797019617969C938E931697CE01D1
:10450000DF91CF911F910F910895A0E0B0E0EBE80B
:10451000F2E20C94F01FAE014B5F5F4FFA01619124
:104520007191AF0180918F03909190030E94FB1BCA
:10453000E2E00C940C20A0E0B0E0E1EAF2E20C949E
:10454000EE1FAE01495F5F4FDA016D917D91AD01C4
:104550000DE813E0F80182819381DC0113962C9120
:104560001397286013962C930E94FB1BD801129678
:10457000ED91FC9113972381277F2383E4E00C9432
:104580000A20CF93DF93EC018B8188608B83CE016F
:104590000E94FB1B2B81277F2B83DF91CF910895F6
:1045A000FA01AA27283051F1203181F1E8946F9364
:1045B0006E7F6E5F7F4F8F4F9F4FAF4FB1E03ED00A
:1045C000B4E03CD0670F781F891F9A1FA11D680FA8
:1045D000791F8A1F911DA11D6A0F711D811D911DDB
:1045E000A11D20D009F468943F912AE0269F112450
:1045F0003019305D3193DEF6CF010895462F4770B4
:10460000405D4193B3E00FD0C9F7F6CF462F4F700E
:10461000405D4A3318F0495D31FD4052419302D06C
:10462000A9F7EACFB4E0A695979587957795679512
:10463000BA95C9F700976105710508959B01AC0112
:104640000A2E06945795479537952795BA95C9F739
:10465000620F731F841F951FA01D0895DC01CB01FD
:10466000FC01F999FECF06C0F2BDE1BDF89A319682
:1046700000B40D9241505040B8F70895DC01CB01D1
:1046800003C02D910E94492341505040D0F7089516
:10469000262FF999FECF1FBA92BD81BD20BD0FB65E
:1046A000F894FA9AF99A0FBE01960895F894FFCFFC
:1046B00000009303200000000002000000007C1BAB
:1046C0000000000067186618256325326400253352
:1046D000690000000000240C4B0DA60D6A0DF90DB9
:1046E0008E0D0F0CB30FCC0F750CDB0BE50BE60B2F
:1046F000F00B4B105E0DCC100000F10B050DF90E08
:0E470000330EC00E810CFE0F2810C00CF40CFE
:00000001FF
