S011000030312053797374656D2E737265630D
S11300000C9494000C94C5000C94F1000C94B10071
S11300100C94B1000C94B1000C94B1000C94B10098
S11300200C94B1000C94B1000C94B1000C94B10088
S11300300C94B1000C94B1000C94B1000C94B10078
S11300400C9406050C94B1000C94B1000C94B1000E
S11300500C9481050C94AF050C94B1000C94B10080
S11300600C94B1000C94B1000C94B1000C94B10048
S11300700C9446060C9474060C94B1004E414E49FF
S11300804E495459494E46CDCCCC3D0AD7233C1752
S1130090B7D13877CC2B329595E6241FB14F0A009F
S11300A00020410000C84200401C4620BCBE4CCA8F
S11300B01B0E5AAEC59D740A456E636F646572204B
S11300C052696768743A20000A0A456E636F646572
S11300D072204C6566743A200053657420416E6743
S11300E06C653A2000536574204D6F746F72204F15
S11300F066667365743A20000A536574204D6F7404
S11301006F72204761696E3A20000A4C6F77204273
S1130110617474657279202D3E20676F696E672063
S11301205374616E6462790011241FBECFEFD0E175
S1130130DEBFCDBF11E0A0E0B1E0E4E0F5E102C034
S113014005900D92A830B107D9F721E0A8E0B1E0FD
S113015001C01D92A93CB207E1F70E9431020C9440
S1130160800A0C940000E9E6F0E0808185608083D9
S11301708DB383608DBB0895F894E2E9F1E01782B2
S1130180168211861086789408951F920F920FB6E6
S11301900F9211248F939F93EF93FF938091A30168
S11301A085FF16C0809192018370813041F4E2E9A9
S11301B0F1E08681978101969783868309C0823016
S11301C039F4E2E9F1E08681978101979783868388
S11301D0FF91EF919F918F910F900FBE0F901F9001
S11301E018951F920F920FB60F9211248F939F931D
S11301F0EF93FF938091A30185FF16C08091920134
S11302008C70843041F4E2E9F1E0808591850196B7
S11302109187808709C0883039F4E2E9F1E080856C
S11302209185019791878087FF91EF919F918F919D
S11302300F900FBE0F901F901895EF92FF920F939F
S11302401F93CF937C0180E00E94C3038FE79CE05F
S11302500197F1F700C000008701C3E08C2F0E94D2
S11302608303F801819391938F01CF5FC830B1F775
S113027080E00E94E903F70180859185268137811A
S11302803187208797838683CF911F910F91FF90A9
S1130290EF9008951F93CF93DF9300D000D01F9267
S11302A0CDB7DEB788EF90E00E94340610E00E94DC
S11302B0F205811521E09207D1F3E1E0F0E0EC0FC3
S11302C0FD1FE10FF11D80838A3009F067C01F5FB5
S11302D0E1E0F0E0EC0FFD1FE10FF11D1082CE0113
S11302E001960E942506CE0101960E944F08609354
S11302F09E0170939F018093A0019093A10185EECC
S113030090E00E94340610E00E94F205811521E07D
S11303109207D1F3E1E0F0E0EC0FFD1FE10FF11DD6
S113032080838A30E9F51F5FE1E0F0E0EC0FFD1F08
S1130330E10FF11D1082CE0101960E942506CE0127
S113034001960E9453088093A20189ED90E00E94D7
S1130350340610E00E94F205811521E09207D1F3E2
S1130360E1E0F0E0EC0FFD1FE10FF11D80838A3026
S1130370C9F41F5FE1E0F0E0EC0FFD1FE10FF11D98
S11303801082CE0101960E942506CE0101960E949C
S113039053089093B5018093B40106C01F5F87CFC3
S11303A01F5FB2CF1F5FD6CF0F900F900F900F90AB
S11303B00F90DF91CF911F9108950F931F93CF93C7
S11303C0DF93CDB7DEB764970FB6F894DEBF0FBEE8
S11303D0CDBF83E00E94C3030E94BC006091B401BE
S11303E07091B50140E080E00E94E4022FEF83EDBC
S11303F090E3215080409040E1F700C0000083E08A
S11304000E94E90388EC90E00E94340602E911E0BE
S11304104AE0BE016F5F7F4FF801868197810E9499
S11304207108CE0101960E94250687EB90E00E9498
S113043034064AE0BE016F5F7F4FF80180859185E5
S11304400E947108CE0101960E94250664960FB69B
S1130450F894DEBF0FBECDBFDF91CF911F910F91F6
S113046008950E94BC0481E00E94C3031C99FECF3E
S113047080E00E94B203E3EAF1E08081816080833E
S11304802FEF89E698E1215080409040E1F700C0C9
S113049000001B990EC081E00E94B2030E944A0131
S11304A02FEF83ED90E3215080409040E1F700C0AE
S11304B000001C990EC083E00E94B2032FEF83ED6D
S11304C090E3215080409040E1F700C000000E947A
S11304D0DD018AE00E94B2030E94B304DACF8130C6
S11304E049F4439A4498E2E9F1E080818C7F816089
S11304F0808313C0823049F4449A4398E2E9F1E0DE
S113050080818C7F8260808308C088B1877E88B9AF
S1130510E2E9F1E080818C7F8083613049F4429884
S11305205C9AE2E9F1E08081837F846080830895AE
S1130530623049F4429A5C98E2E9F1E08081837F79
S113054088608083089542985C98E2E9F1E08081B4
S1130550837F80830895E2E9F1E0748363832581D6
S1130560820F911D27FD9A958F3F910541F03CF034
S11305708FEF90E090939401809393010BC09923A3
S11305802CF0909394018093930104C010929401F1
S1130590109293016F3F710541F03CF08FEF90E0B2
S11305A0909396018093950106C0772324F41092CA
S11305B0960110929501E2E9F1E081818093B30004
S11305C083818093B4000895BF92CF92DF92EF921B
S11305D0FF920F931F93CF93DF93182FEB01042FF8
S11305E0E2E9F1E0C484D584E684F784B0886AE55E
S11305F070E08AE590E00E94AB02011155C0BE0193
S113060080E090E00E943A07A70196010E94C80783
S11306106B017C016B2D70E080E090E00E943C0750
S11306209B01AC01C701B6010E949F060E940B0703
S1130630EB0111111CC061E082E00E946F02E6EB45
S1130640F1E0108A1786808180688083F89487851A
S1130650908978948C179D07C8F360E080E00E942D
S11306606F02E6EBF1E080818F7780831DC011304B
S1130670D9F462E081E00E946F02E6EBF1E0108AB7
S11306801786808180688083F89487859089789420
S11306908C179D07C8F360E080E00E946F02E6EBD0
S11306A0F1E080818F778083DF91CF911F910F914B
S11306B0FF90EF90DF90CF90BF90089560E080E0CE
S11306C00E946F02E0EBF0E08081836A8083E1EBBB
S11306D0F0E08081826080831092B3001092B400B5
S11306E0E2E9F1E083E393E3ABEAB0E4848795873E
S11306F0A687B78784E6808B83EF85830895089562
S1130700089508950895ECE7F0E09081907E8F714C
S1130710892B8083EAE7F0E0808180648083808194
S113072086FDFDCF8091780090917900089582E054
S11307300E948303A0E0B0E09C01AD01220F331FAF
S1130740441F551FA8E8B3E10E944408DC01CB0113
S1130750072E7AE0B695A795979587957A95D1F760
S1130760702D089595B1936095B9813011F429984D
S11307700895811102C028980895833019F485B131
S11307808C7F85B908958130E9F0A8F0833061F059
S11307908F3FF1F42A98479A4598E3EAF1E0808183
S11307A088628460808308952A98E3EAF1E0808176
S11307B0806280830895479AE3EAF1E0808184604F
S11307C0808308954598E3EAF1E08081886080831E
S11307D008958130E9F0A8F0833061F08F3FF1F49F
S11307E02A9A4798459AE3EAF1E08081877D8B7FD6
S11307F0808308952A9AE3EAF1E080818F7D8083E3
S113080008954798E3EAF1E080818B7F808308951F
S1130810459AE3EAF1E08081877F8083089580919F
S1130820A3018570853049F48AEA91E00E941D0194
S1130830E0910601F091070109950895CF93E6EB45
S1130840F1E080818064808385859685853F914031
S113085090F01092C4011092C3010E9497039093E8
S1130860A5018093A40180399A4128F4E3EAF1E0D8
S11308708081806180838091A30184FF49C0E091DD
S11308800401F0910501099560E080E00E946F0287
S113089083E00E94E90380E00E94E9034698E3EACA
S11308A0F1E080818E7F80838AE00E94B2038AE037
S11308B091E00E943406C4E181E00E94B2038FEF0C
S11308C093EC29E0815090402040E1F700C0000003
S11308D08AE00E94B2038FEF93EC29E081509040AC
S11308E02040E1F700C00000C15031F78FEF0E94B3
S11308F0E9038AE00E94B20383B7817F846083BFE7
S113090083B7816083BF889583B78E7F83BFF8CF19
S1130910CF910895E0910201F091030109950895A2
S11309208091920184FF19C02091C1013091C201CC
S113093080919C0190919D012817390770F060E027
S113094080E00E946F02E2E9F1E080818F7E808383
S1130950E6EBF1E080818F7D8083E0910001F091EE
S11309600101099508950E941E040E948A040E94B0
S11309700F040E9490040895F89484B1876084B9A8
S113098087B18C6F87B98AB1806F8AB985B1886164
S113099085B9ECE7F0E0808180648083EAE7F0E0E9
S11309A0808187688083808180648083808186FDE4
S11309B0FDCF809178009091790084B5826084BDE8
S11309C085B5836085BDEEE6F0E08081826080833A
S11309D089EF87BD0E949703E3EAF1E09283818364
S11309E0138214821582168210828FEF0E94E9030B
S11309F046988AE00E94B2030E945E030E94B300FC
S1130A0080E190E00E94D905789408951F920F9296
S1130A100FB60F9211248F939F93AF93BF93EF93CD
S1130A20FF93E3EAF1E083819481A581B681019685
S1130A30A11DB11D83839483A583B6838091B601E0
S1130A4080FF07C0E6EBF1E08181928101969283F9
S1130A5081838091B60181FF07C0E6EBF1E08381D9
S1130A6094810196948383838091B60182FF07C0A9
S1130A70E6EBF1E0858196810196968385838091EA
S1130A80B60183FF07C0E6EBF1E08781908501960C
S1130A90908787838091B60184FF07C0E6EBF1E07D
S1130AA0818592850196928781878091B60185FF21
S1130AB007C0E6EBF1E083859485019694878387EC
S1130AC08091B60186FF07C0E6EBF1E08585968547
S1130AD00196968785878091B60188233CF4E6EBDE
S1130AE0F1E0878590890196908B8787FF91EF913C
S1130AF0BF91AF919F918F910F900FBE0F901F9058
S1130B0018951F920F920FB60F9211242F938F9363
S1130B109F93EF93FF938091C0002091C6008C7146
S1130B20E0914F01EF5FEF7190914E01E91739F0B9
S1130B30E0934F01F0E0EE5AFE4F208301C082E0C3
S1130B4090914D01892B80934D01FF91EF919F91DD
S1130B508F912F910F900FBE0F901F9018951F9299
S1130B600F920FB60F9211248F939F93EF93FF93DD
S1130B709091510180915001981769F0E0915001D2
S1130B80EF5FEF71E0935001F0E0EE58FE4F80818B
S1130B908093C60005C0E1ECF0E080818F7D808306
S1130BA0FF91EF919F918F910F900FBE0F901F9027
S1130BB01895109251011092500110924F01109209
S1130BC04E0199231CF422E02093C0009078909366
S1130BD0C5008093C40088E98093C10086E08093B7
S1130BE0C200089590914F0180914E019817A9F089
S1130BF090914E019F5F9F71E92FF0E0EE5AFE4FF6
S1130C00208180914D0190934E0110924D0190E00E
S1130C10982F8827820F911D089580E091E0089510
S1130C20209151012F5F2F71909150012917E1F309
S1130C30E22FF0E0EE58FE4F808320935101E1EC67
S1130C40F0E08081806280830895CF93DF93EC018C
S1130C508881882331F021960E94100689918111A0
S1130C60FBCFDF91CF910895CF93DF93EC012196D1
S1130C70FC018491882339F00E941006FE018491BE
S1130C8021968111F9CFDF91CF9108951F920F9290
S1130C900FB60F9211242F938F939F93EF93FF938B
S1130CA08091C8002091CE008C71E0910A01EF5F21
S1130CB0EF7190910901E91739F0E0930A01F0E02E
S1130CC0E35FFE4F208301C082E090910801892BED
S1130CD080930801FF91EF919F918F912F910F9035
S1130CE00FBE0F901F9018951F920F920FB60F9280
S1130CF011248F939F93EF93FF9390910C01809114
S1130D000B01981769F0E0910B01EF5FEF71E0932D
S1130D100B01F0E0E35DFE4F80818093CE0005C0BF
S1130D20E9ECF0E080818F7D8083FF91EF919F91CA
S1130D308F910F900FBE0F901F9018955058BB279E
S1130D40AA270E94B6060C948E070E94800738F0EA
S1130D500E94870720F039F49F3F19F426F40C947D
S1130D607D070EF4E095E7FB0C947707E92F0E94CA
S1130D709F0758F3BA17620773078407950720F093
S1130D8079F4A6F50C94C1070EF4E0950B2EBA2F56
S1130D90A02D0B01B90190010C01CA01A00111247D
S1130DA0FF27591B99F0593F50F4503E68F11A1629
S1130DB0F040A22F232F342F4427585FF3CF4695BA
S1130DC037952795A795F0405395C9F77EF41F16DC
S1130DD0BA0B620B730B840BBAF09150A1F0FF0FA6
S1130DE0BB1F661F771F881FC2F70EC0BA0F621F92
S1130DF0731F841F48F4879577956795B795F79582
S1130E009E3F08F0B0CF9395880F08F09927EE0F16
S1130E109795879508950E94A70788F09F5798F0A3
S1130E20B92F9927B751B0F0E1F0660F771F881FEB
S1130E30991F1AF0BA95C9F714C0B13091F00E9405
S1130E40C107B1E008950C94C107672F782F882754
S1130E50B85F39F0B93FCCF3869577956795B3952C
S1130E60D9F73EF490958095709561957F4F8F4F9B
S1130E709F4F0895E89409C097FB3EF490958095A0
S1130E80709561957F4F8F4F9F4F9923A9F0F92F4C
S1130E9096E9BB279395F695879577956795B795CA
S1130EA0F111F8CFFAF4BB0F11F460FF1BC06F5FB0
S1130EB07F4F8F4F9F4F16C0882311F096E911C0C2
S1130EC0772321F09EE8872F762F05C0662371F0E3
S1130ED096E8862F70E060E02AF09A95660F771FF7
S1130EE0881FDAF7880F9695879597F9089597F9EB
S1130EF09F6780E870E060E008959FEF80EC0895BC
S1130F0000240A94161617061806090608950024E4
S1130F100A9412161306140605060895092E03945E
S1130F20000C11F4882352F0BB0F40F4BF2B11F4D2
S1130F3060FF04C06F5F7F4F8F4F9F4F089557FD31
S1130F409058440F551F59F05F3F71F04795880F33
S1130F5097FB991F61F09F3F79F0879508951216CA
S1130F6013061406551FF2CF4695F1DF08C0161676
S1130F7017061806991FF1CF869571056105089427
S1130F800895E894BB2766277727CB0197F908953E
S1130F900E94DB070C948E070E94800738F00E94A1
S1130FA0870720F0952311F00C9477070C947D07A4
S1130FB011240C94C2070E949F0770F3959FC1F3FC
S1130FC0950F50E0551F629FF001729FBB27F00DF3
S1130FD0B11D639FAA27F00DB11DAA1F649F662748
S1130FE0B00DA11D661F829F2227B00DA11D621F97
S1130FF0739FB00DA11D621F839FA00D611D221F51
S1131000749F3327A00D611D231F849F600D211D34
S1131010822F762F6A2F11249F5750409AF0F1F0B7
S113102088234AF0EE0FFF1FBB1F661F771F881F20
S113103091505040A9F79E3F510580F00C947707DA
S11310400C94C2075F3FE4F3983ED4F386957795FA
S11310506795B795F795E7959F5FC1F7FE2B880FC6
S1131060911D9695879597F90895A29FB001B39F16
S1131070C001A39F700D811D1124911DB29F700D9D
S1131080811D1124911D08950E943508A59F900D7E
S1131090B49F900DA49F800D911D1124089566277F
S11310A077270C949E08FC0188279927E8942191BE
S11310B02032E9F3293010F02E30C8F32B3241F0FE
S11310C02D3239F4689404C00E947C08820F911D6B
S11310D0219120532A30C0F31EF4909581959F4F9F
S11310E00895BB274A3031F4992322F4BDE2909548
S11310F081959F4F0C9485087AE0979F902D879F48
S1131100802D910D11240895BB27FB015527AA2793
S1131110880F991FAA1FA41710F0A41B8395505180
S1131120B9F7A05DAA3308F0A95DA193009779F7F8
S1131130B111B1931192CB010C940D0AA0E0B0E06F
S1131140E4EAF8E00C944F0AEC016B0161157105B7
S113115019F0FB01918380837E01FFEFEF1AFF0AF0
S11311600881802F90E00E94EC09892B11F0E7019F
S1131170F3CF0D3239F47E0182E0E80EF11C0981CF
S113118011E008C00B3229F47E0192E0E90EF11C53
S1131190098110E0E701219743E050E064E870E042
S11311A0CE010E94F509892BC1F4239645E050E055
S11311B06FE770E0CE010E94F509892B09F42596AA
S11311C0C114D10419F0F601D183C0831111F6C002
S11311D060E070E080E89FE7FAC043E050E06CE72D
S11311E070E0CE010E94F509892B59F4C114D10491
S11311F009F4E9C0F2E0EF0EF11CF601F182E0829D
S1131200E2C020E030E0A901C0E0D0E0F70180EDC9
S1131210A82EA00E89E08A1530F1912F9260B92E84
S1131220812F887012FF04C0811124C0219622C02E
S113123081112197A5E0B0E00E944408DC01CB01B4
S1131240880F991FAA1FBB1F9C01AD012A0D311DD8
S1131250411D511D283989E93807480789E1580794
S113126048F0166006C09EEFA9120AC013FD40C0E4
S11312701860B12E8FEFE81AF80A00811B2DC6CF33
S1131280802F8F7D8534A1F580818D3211F410611A
S113129006C08B3221F0319661E070E004C0818198
S11312A0329662E070E080538A3018F0E61BF70B48
S11312B01FC060E070E060389CE079075CF4DB01FB
S11312C0AA0FBB1FAA0FBB1F6A0F7B1F660F771FD6
S11312D0680F711D3196DF0111978C9180538A300C
S11312E050F314FF03C0719561957109C60FD71FA0
S11312F011FF08C0C114D10429F0CF010197F601F0
S113130091838083CA01B9010E943A07212F237077
S1131310233019F04B015C0106C04B015C01B7FAA4
S1131320B094B7F8B09420E030E0A901C501B4014D
S11313300E941D0A882309F43EC0D7FF06C0D19538
S1131340C195D1090BE910E002C003EB10E068017C
S1131350F8E1CF1AD10890E2E92EF12CCE15DF0581
S113136074F0F8012591359145915491C501B4016A
S11313700E94C8074B015C01CE19DF09EFCF04506E
S11313801109F594E7940C151D0541F78A2D880F72
S11313908B2D881F8F3F49F020E030E0A901C50163
S11313A0B4010E941D0A811106C082E290E090936C
S11313B0C8018093C701C501B40109C060E070E0B1
S11313C080E89FEF04C060E070E080EC9FE7CDB759
S11313D0DEB7ECE00C946B0A91110C94460A80324F
S11313E019F089508550C8F70895FB01DC0141507C
S11313F0504088F08D9181341CF08B350CF4805E64
S1131400659161341CF06B350CF4605E861B6111D0
S113141071F3990B0895881BFCCFDC01FC01672F45
S113142071917723E1F7329704C07C916D937083B7
S11314306291AE17BF07C8F308950E94220A08F408
S113144081E00895990F0008550FAA0BE0E8FEEF1C
S113145016161706E807F907C0F012161306E40774
S1131460F50798F0621B730B840B950B39F40A266D
S113147061F0232B242B252B21F408950A2609F44B
S1131480A140A6958FEF811D811D08959927882776
S113149008952F923F924F925F926F927F928F9214
S11314A09F92AF92BF92CF92DF92EF92FF920F93EF
S11314B01F93CF93DF93CDB7DEB7CA1BDB0B0FB6F9
S11314C0F894DEBF0FBECDBF09942A8839884888B6
S11314D05F846E847D848C849B84AA84B984C8844C
S11314E0DF80EE80FD800C811B81AA81B981CE0F43
S11314F0D11D0FB6F894DEBF0FBECDBFED01089528
S1071500F894FFCF89
S10B15048203810380037F03CD
S9030000FC
