S00E000053797374656D2E7372656391
S11300000C9494010C94BC010C94E8010C94B1017F
S11300100C94B1010C94B1010C94B1010C94B10194
S11300200C94B1010C94B1010C94B1010C94B10184
S11300300C94B1010C94B1010C94B1010C94B10174
S11300400C949E040C94B1010C94B1010C94B10174
S11300500C9427050C9455050C94B1010C94B10132
S11300600C94B1010C94B1010C94B1010C94B10144
S11300700C94AD050C94DB050C94B1016E616E001B
S1130080696E660000407A10F35A00A0724E180997
S11300900010A5D4E80000E87648170000E40B54EB
S11300A0020000CA9A3B000000E1F50500008096BA
S11300B09800000040420F000000A08601000000EC
S11300C0102700000000E8030000000064000000A6
S11300D000000A00000000000100000000002C766F
S11300E0D888DC674F0823DFC1DFAE59E1B1B7968A
S11300F0E5E3E453C63AE651997696E8E6C28426E7
S1130100EB898C9B62ED407C6FFCEFBC9C9F40F2C2
S1130110BAA56FA5F490055A2AF75C936B6CF9673E
S11301206DC11BFCE0E40D47FEF520E6B500D0ED03
S1130130902E0300943577050080841E080000206B
S11301404E0A000000C80C333333330F986E128309
S11301501141EF8D2114893BE65516CFFEE6DB18DD
S1130160D1844B381BF77C1D901DA4BBE4242032A2
S113017084725E228100C9F124ECA1E53D27F1647B
S11301808585AF658165686F6E086F618F6E088FB6
S11301906E058F6E0A6E0C8E0B6E0A9E0885886A39
S11301A086686581836E0C8F618F6E088F6E058FF4
S11301B06E0A6E0C8E0B6E0A9E0885886A866865C8
S11301C081836E0C6F888786848F858F8E098E0A53
S11301D0818F8E0A81836F888786848F858F8E2195
S11301E08F8E218E214F888786848F858F8E098EEE
S11301F00A818F8E0A81836F846F836F8100F07D03
S11302004586682E11438506488A6C2E164A8C4E04
S1130210114E134E154586680E114E138E152E166B
S113022048884E154E13884E154E13884E164E159B
S11302308E132E1100F170AE0CAFACAFA7AFA4AF0C
S1130240ACA78F848FA1AFAE21AFA8AFA5AFAE216D
S1130250A88F858FAE0CAFACAFA7AFA4AFACA78F00
S1130260848FA4A5A6AFA6A7A8AFA8A9AAAFBC00CF
S1130270F1A0456E0C61638583616E0C4E0A6E0AB3
S1130280614563614E0C6E0C614345414E0A2E0A72
S11302906F43664A68664565614563614E0C6E0C42
S11302A0614345414E0A4E0A00F0C4686868246FF1
S11302B0666666236F68686864696969686E146E47
S11302C0146E142E116F66666663696969686E162A
S11302D06E166E162E136F6E186E186E162E146E22
S11302E0116E186E186E162E146E116E186E186E2E
S11302F0162E142E112E1800767069635E58534F13
S11303004A46423E3B3734312E2C29272523211FD0
S11303101D1B1A18171514131211100F0E0D0C0CA7
S11303200B0A0A090808070711241FBECFEFD0E102
S1130330DEBFCDBF11E0A0E0B1E0ECE5F7E102C023
S113034005900D92A031B107D9F722E0A0E1B1E008
S113035001C01D92AC3BB207E1F70E9427020C9446
S1130360AC0B0C940000E9E6F0E0808185608083AA
S11303708DB383608DBB08951F920F920FB60F92B9
S113038011248F939F93EF93FF9380916B0284FFCB
S113039016C080915A028370813041F4EAE5F2E09C
S11303A08681978101969783868309C0823039F4C8
S11303B0EAE5F2E086819781019797838683FF912E
S11303C0EF919F918F910F900FBE0F901F901895F2
S11303D01F920F920FB60F9211248F939F93EF9356
S11303E0FF9380916B0284FF16C080915A028C7037
S11303F0843041F4EAE5F2E08085918501969187A5
S1130400808709C0883039F4EAE5F2E08085918577
S1130410019791878087FF91EF919F918F910F9022
S11304200FBE0F901F901895CF93DF93C2E7D2E0D1
S113043018824AE050E060E070E08DE792E00E94AC
S11304409C0B888181608883DF91CF9108950E94FD
S11304503C0481E00E9400041C992AC083E00E94AD
S1130460EF0380910001811105C085E392E00E94B1
S1130470D2021BC0813029F489EA92E00E94D202A0
S113048014C0823029F480E792E00E94D2020DC0A9
S1130490833029F48EEF91E00E94D20206C08430AA
S11304A021F48EE791E00E94D20280E00E94EF03E3
S11304B01B990AC0809100018F5F853018F48093E6
S11304C0000102C0109200012FEF82E597E0215055
S11304D080409040E1F700C00000BECF813049F475
S11304E0439A4498EAE5F2E080818C7F81608083BE
S11304F013C0823049F4449A4398EAE5F2E08081DB
S11305008C7F8260808308C088B1877E88B9EAE5E1
S1130510F2E080818C7F8083613049F442985C9A58
S1130520EAE5F2E08081837F84608083089562300D
S113053049F4429A5C98EAE5F2E08081837F88601E
S11305408083089542985C98EAE5F2E08081837F95
S11305508083089560E080E00E946E02E0EBF0E0AA
S11305608081836A8083E1EBF0E08081876080830F
S11305701092B3001092B40083EF80935F02089549
S1130580E0E8F0E0808180648083E1E8F0E080814D
S113059088608083109289001092880080818B7F0C
S11305A0808308958F929F92AF92BF92DF92EF92D1
S11305B0FF921F93CF93DF93EC01FC0114911F7002
S11305C03196249130E040E050E060E67AEE80E03D
S11305D090E00E94A409FE0132968491882309F4D4
S11305E06EC062E070E0D12E0F2EF4E8EF2EF12CF5
S11305F0F02D0F2EF8E88F2E912CF02DA1E8B0E00D
S11306005B014FEFA41AB40AE4918E2F829586956C
S11306108770A90102C0569547958A95E2F7CA01E9
S1130620E4FF06C0440F551F840F951F96958795C8
S11306304E2F4F704E3051F46E5F7F4FFE01EA0D26
S1130640FB1DE4914E2F42954F7002C04D2DB50114
S11306501E2F1F701F30D1F0F7011182108250E05D
S1130660FA01EE0FFF1FE40FF51FEE0FFF1FEE0F51
S1130670FF1FE10FF11DE950FD4FE4914E2F50E0B3
S1130680F401518340834C9144604C93019741F0B1
S1130690EFE7FEE33197F1F700C000000197C1F7DF
S11306A08C918B7F8C938FE79EE30197F1F700C0C9
S11306B00000FE01E60FF71F84918111A1CFDF91A5
S11306C0CF911F91FF90EF90DF90BF90AF909F90DC
S11306D08F900895833020F081E080938C020895F8
S11306E0282F30E097E0899FF0011124E357FD4F54
S11306F080819181892B29F482E080938C0281E0AE
S113070001C080E0F901EE0FFF1FEE0FFF1FEE0F97
S1130710FF1FE21BF30BE357FD4F1182108213827C
S11307201282158214821682089580E00E946A0360
S113073081E00E946A0382E00E946A0310928C02A4
S11307400895EDE8F2E022EA32E041E0808191810F
S1130750892B89F0868181110EC082819381019752
S113076093838283892B39F446838481958100970E
S113077011F0938382833796E217F30739F70895CC
S1130780ECE7F0E09081907E8F71892B8083EAE71B
S1130790F0E0808180648083808186FDFDCF80913C
S11307A0780090917900089582E00E94C003A0E04F
S11307B0B0E09C01AD01220F331F441F551FA8E870
S11307C0B3E10E94D209DC01CB01072E7AE0B69591
S11307D0A795979587957A95D1F7702D089595B13A
S11307E0936095B9813011F429980895811102C05C
S11307F028980895833019F485B18C7F85B90895BC
S1130800833071F08F3F19F08130B9F410C02A9809
S11308104598EBE6F2E080818460806180830895EE
S11308202A98EBE6F2E08081806180830895459800
S1130830EBE6F2E08081846080830895833071F078
S11308408F3F19F08130B9F410C02A9A459AEBE62B
S1130850F2E080818B7F8F7E808308952A9AEBE675
S1130860F2E080818F7E80830895459AEBE6F2E082
S113087080818B7F80830895CF93DF93F89484B134
S1130880876084B987B18C6F87B98AB1806F8AB960
S113089085B1886185B981E00E94000483E00E94EB
S11308A01E04ECE7F0E0808180648083EAE7F0E0F6
S11308B0808187688083808180648083808186FDD5
S11308C0FDCF809178009091790084B5826084BDD9
S11308D085B5836085BDEEE6F0E08081826080832B
S11308E089EF87BD0E94D403CBE6D2E09A83898343
S11308F01B821C821D821E821882109272020E9428
S1130900140246988AE00E94EF030E94AA020E9401
S1130910B30180E190E00E947F0581E091E0909333
S1130920B9028093B8020E94C0020E949503888194
S1130930816088837894DF91CF9108951F920F92FC
S11309400FB60F9211242F933F934F935F936F939E
S11309507F938F939F93AF93BF93EF93FF93EBE6B4
S1130960F2E083819481A581B6810196A11DB11D18
S113097083839483A583B6838091A30280FF07C0F9
S1130980E3EAF2E0818192810196928381838091EE
S1130990A30281FF07C0E3EAF2E083819481019618
S11309A0948383838091A30282FF07C0E3EAF2E089
S11309B0858196810196968385838091A30283FF26
S11309C007C0E3EAF2E087819085019690878783E8
S11309D08091A30284FF07C0E3EAF2E08185928557
S11309E00196928781878091A30285FF07C0E3EA7D
S11309F0F2E0838594850196948783878091A3028E
S1130A0086FF07C0E3EAF2E085859685019696871E
S1130A1085878091A30288233CF4E3EAF2E087858A
S1130A2090890196908B87870E94A103FF91EF9193
S1130A30BF91AF919F918F917F916F915F914F91F2
S1130A403F912F910F900FBE0F901F9018951F92FA
S1130A500F920FB60F9211242F938F939F93EF93BE
S1130A60FF938091C0002091C6008C71E091B70182
S1130A70EF5FEF719091B601E91739F0E093B70198
S1130A80F0E0E654FE4F208301C082E09091B5016E
S1130A90892B8093B501FF91EF919F918F912F91B5
S1130AA00F900FBE0F901F9018951F920F920FB6C4
S1130AB00F9211248F939F93EF93FF939091B90119
S1130AC08091B801981769F0E091B801EF5FEF7772
S1130AD0E093B801F0E0E652FE4F80818093C600B7
S1130AE005C0E1ECF0E080818F7D8083FF91EF9180
S1130AF09F918F910F900FBE0F901F901895109299
S1130B00B9011092B8011092B7011092B60199235D
S1130B101CF422E02093C00090789093C500809349
S1130B20C40088E98093C10086E08093C2000895E0
S1130B302091B9012F5F2F779091B8012917E1F324
S1130B40E22FF0E0E652FE4F80832093B901E1ECFE
S1130B50F0E080818062808308951F920F920FB627
S1130B600F9211242F938F939F93EF93FF93809170
S1130B70C8002091CE008C71E0911201EF5FEF71FB
S1130B8090911101E91739F0E0931201F0E0EB5E66
S1130B90FE4F208301C082E090911001892B809345
S1130BA01001FF91EF919F918F912F910F900FBEA4
S1130BB00F901F9018951F920F920FB60F92112449
S1130BC08F939F93EF93FF9390911401809113015E
S1130BD0981769F0E0911301EF5FEF77E093130149
S1130BE0F0E0EB5CFE4F80818093CE0005C0E9EC21
S1130BF0F0E080818F7D8083FF91EF919F918F91B1
S1130C000F900FBE0F901F901895A0E1B0E0EBE09D
S1130C10F6E00C94DD097C011B016A01FC011782DA
S1130C201682838181FF44C39E012F5F3F4F3901A8
S1130C30F7019381F10193FD859193FF81911F0148
S1130C40882309F431C3853239F493FD859193FFE8
S1130C5081911F01853239F4B70190E00E94020BA3
S1130C6056016501E5CF10E0512C912CFFE1F915F7
S1130C70D8F08B3279F038F4803279F08332A1F4F1
S1130C80F92DF0612EC08D3261F0803369F4292D85
S1130C9021602DC0392D3260932E892D8460982EC9
S1130CA02AC0E92DE86015C097FC2DC020ED280F5F
S1130CB02A3088F496FE06C03AE0139F200D1124D2
S1130CC0122F19C08AE0589E200D1124522EE92DAE
S1130CD0E0629E2E10C08E3231F496FCE5C2F92DEE
S1130CE0F0649F2E08C08C3621F4292D2068922EA2
S1130CF002C0883641F4F10193FD859193FF8191FF
S1130D001F018111B3CF9BEB980F933020F4992DE1
S1130D109061805E07C09BE9980F933008F066C12C
S1130D20992D9F7E96FF16E09F73992E853619F4B0
S1130D309064992E08C0863621F4392F3068932E9A
S1130D4002C01111115097FE07C01C3350F4442403
S1130D504394410E27E00BC0183038F027E017E029
S1130D6005C027E09CE3492E02C0212F412C5601E7
S1130D7084E0A80EB11CF6016081718182819381A7
S1130D80042DA3010E94140A6C01F981FC87F0FF71
S1130D9002C0F3FF06C091FC06C092FE06C000E24A
S1130DA005C00DE203C00BE201C000E08C858C702D
S1130DB019F001115AC29BC297FE10C04C0CFC855D
S1130DC0F4FF04C08A81813309F44A94141474F53D
S1130DD028E0241578F588E0482E2CC096FC2AC01B
S1130DE0812F90E08C159D059CF03CEFC3163FEFDE
S1130DF0D30674F0892D8068982E0AC0E2E0F0E0F2
S1130E00EC0FFD1FE10FF11D8081803319F41150A7
S1130E101111F4CF97FE0EC044244394410E812F48
S1130E2090E0C816D9062CF41C1904C04424439439
S1130E3001C010E097FE06C01C141D0434F4C60162
S1130E40019605C085E090E002C081E090E00111C8
S1130E500196112331F0212F30E02F5F3F4F820F95
S1130E60931F252D30E08217930714F4581A01C0FC
S1130E70512C892D897049F4552039F0B70180E24D
S1130E8090E00E94020B5A94F7CF002329F0B70197
S1130E90802F90E00E94020B93FC09C0552039F08A
S1130EA0B70180E390E00E94020B5A94F7CF97FEBB
S1130EB04CC04601D7FE02C0812C912CC601881972
S1130EC09909F301E80FF91FFE87ED8796012419AC
S1130ED03109388B2F87012F10E0119501951109E5
S1130EE03FEF8316930629F4B7018EE290E00E9447
S1130EF0020BC814D9044CF08F859889881599057C
S1130F0024F4ED85FE85818101C080E3F1E08F1A30
S1130F1091082D853E852F5F3F4F3E872D87801694
S1130F2091062CF0B70190E00E94020BD9CFC814AF
S1130F30D90441F49A81963320F4953319F43C850D
S1130F4034FF81E3B70190E04EC08A81813319F008
S1130F509C859F7E9C87B70190E00E94020B111133
S1130F6005C094FC18C085E690E017C0B7018EE276
S1130F7090E00E94020B1E5F82E001E0080FF30183
S1130F80E80FF11D8081B70190E00E94020B802FD1
S1130F900113F3CFE6CF85E490E0B7010E94020B82
S1130FA0D7FC06C0C114D10441F4EC85E4FF05C0AC
S1130FB0D194C194D1088DE201C08BE2B70190E0D5
S1130FC00E94020B80E32AE0C216D1042CF08F5F4A
S1130FD0FAE0CF1AD108F7CFB70190E00E94020BD4
S1130FE0B701C601C0960E94020B54C1833631F08A
S1130FF0833779F0833509F056C020C0560132E0BA
S1131000A30EB11CF6018081898301E010E0630125
S113101012C05601F2E0AF0EB11CF601C080D180BF
S113102096FE03C0612F70E002C06FEF7FEFC60130
S11310300E94F70A8C01F92DFF7714C0560122E0B3
S1131040A20EB11CF601C080D18096FE03C0612FB0
S113105070E002C06FEF7FEFC6010E94EC0A8C01C2
S1131060F92DF0689F2EF3FD1AC0852D90E0081726
S11310701907A8F4B70180E290E00E94020B5A9489
S1131080F4CFF60197FC859197FE81916F01B7012A
S113109090E00E94020B51105A940150110901155D
S11310A0110579F7F7C0843611F0893661F55601D8
S11310B097FE09C024E0A20EB11CF6016081718183
S11310C0828193810AC0F2E0AF0EB11CF601608107
S11310D07181072E000C880B990BF92DFF769F2E3A
S11310E097FF09C090958095709561957F4F8F4FBC
S11310F09F4FF0689F2E2AE030E0A3010E943E0B30
S1131100C82EC6183FC0092D853721F40F7E2AE06A
S113111030E01DC0097F8F3691F018F4883559F0FE
S1131120C3C0803719F0883711F0BEC0006104FFD6
S113113009C0046007C094FE08C0066006C028E029
S113114030E005C020E130E002C020E132E0560189
S113115007FF09C084E0A80EB11CF601608171810B
S11311608281938108C0F2E0AF0EB11CF601608168
S1131170718180E090E0A3010E943E0BC82EC61846
S11311800F77902E96FE0BC0092D0E7FC11650F4DA
S113119094FE0AC092FC08C0092D0E7E05C0DC2C0A
S11311A0092D03C0DC2C01C0D12E04FF0DC0FE01AB
S11311B0EC0DF11D8081803311F4097E09C002FF1A
S11311C006C0D394D39404C0802F867809F0D394B6
S11311D003FD11C000FF06C01C2DD51480F4150DAD
S11311E01D190DC0D51458F4B70180E290E00E9497
S11311F0020BD394F7CFD51410F45D1801C0512C11
S113120004FF10C0B70180E390E00E94020B02FFCC
S113121017C001FD03C088E790E002C088E590E0B4
S1131220B7010CC0802F867859F001FF02C08BE211
S113123001C080E207FD8DE2B70190E00E94020B3D
S1131240C11638F4B70180E390E00E94020B1150FC
S1131250F7CFCA94F301EC0DF11D8081B70190E042
S11312600E94020BC110F5CF15C0F4E0F51560F52E
S113127084E0581A93FE1FC0011127C02C8523FF58
S11312802AC00CE710E0392D3071932EF8018491B7
S1131290811124C0552009F4E4CCB70180E290E028
S11312A00E94020B5A94F6CFF7018681978126C0DB
S11312B08FEF9FEF23C0B70180E290E00E94020B02
S11312C05A945110F8CFD8CF512CB701802F90E009
S11312D00E94020BD3CF00E810E0D5CF91108052CA
S11312E0B70190E00E94020B0F5F1F4FCFCF23E0A6
S11312F0251510F483E0BDCF512CC0CF6096E2E1F8
S11313000C94F909A1E21A2EAA1BBB1BFD010DC006
S1131310AA1FBB1FEE1FFF1FA217B307E407F507A1
S113132020F0A21BB30BE40BF50B661F771F881F7D
S1131330991F1A9469F760957095809590959B0113
S1131340AC01BD01CF010895052E97FB1EF4009456
S11313500E94BB0957FD07D00E94820907FC03D0F5
S11313604EF40C94BB0950954095309521953F4F10
S11313704F4F5F4F089590958095709561957F4F7D
S11313808F4F9F4F0895A29FB001B39FC001A39FA9
S1131390700D811D1124911DB29F700D811D1124AA
S11313A0911D08950E94C309A59F900DB49F900DAF
S11313B0A49F800D911D112408952F923F924F9266
S11313C05F926F927F928F929F92AF92BF92CF92D1
S11313D0DF92EF92FF920F931F93CF93DF93CDB7DA
S11313E0DEB7CA1BDB0B0FB6F894DEBF0FBECDBF52
S11313F009942A88398848885F846E847D848C8423
S11314009B84AA84B984C884DF80EE80FD800C812B
S11314101B81AA81B981CE0FD11D0FB6F894DEBF0E
S11314200FBECDBFED010895283008F027E0332723
S1131430DA01990F311D87FD9160009661057105F0
S113144039F432602E5F3D9330E32A95E1F7089535
S11314509F3F30F080387105610509F03C5F3C5FC7
S11314603D93913008F08068911DDF93CF931F93D3
S11314700F93FF92EF92192F987F9695E92F9695E7
S11314809695E90FFF27E252FF4F99273327EE2461
S1131490FF24A701E70105900894079428F4360F68
S11314A0E71EF81E491F511D660F771F881F991FDD
S11314B00694A1F70590079428F4E70EF81E491F37
S11314C0561FC11D770F881F991F661F0694A1F729
S11314D00590079428F4F80E491F561FC71FD11D05
S11314E0880F991F661F771F0694A1F7059007942C
S11314F020F4490F561FC71FD81F990F661F771F67
S1131500881F0694A9F784911095177041F0D69519
S1131510C79557954795F794E7941A95C1F7E4E86A
S1131520F0E0689415901591359165919591059029
S11315307FE27395E118F10A430B560BC90BD009EE
S1131540C0F7E10CF11E431F561FC91FD01D7EF4C6
S1131550703311F48A95E6CFE894015030F0080F07
S11315600AF40027021708F4202F2395022F7A3358
S113157028F079E37D932A95E9F710C07D932A95A5
S113158089F6069497956795379517951794E118FA
S1131590F10A430B560BC90BD00998F023957E91A1
S11315A073957A3308F070E37C932013B8F77E9137
S11315B070617D9330F0839571E37D9370E32A9598
S11315C0E1F71124EF90FF900F911F91CF91DF91DC
S11315D0992787FD90950895FC010590615070400E
S11315E00110D8F7809590958E0F9F1F0895FC01E8
S11315F06150704001900110D8F7809590958E0F3E
S11316009F1F08950F931F93CF93DF93FB012381B3
S113161021FD03C08FEF9FEF2CC022FF16C046812F
S11316205781248135814217530744F4A081B18145
S11316309D012F5F3F4F318320838C932681378117
S11316402F5F3F4F3783268314C08B01EC01FB01CE
S11316500084F185E02D0995892BE1F6D8011696D1
S11316608D919C911797019617969C938E9316973C
S1131670CE01DF91CF911F910F910895FA01AA270E
S1131680283051F1203181F1E8946F936E7F6E5FC1
S11316907F4F8F4F9F4FAF4FB1E03ED0B4E03CD06F
S11316A0670F781F891F9A1FA11D680F791F8A1F52
S11316B0911DA11D6A0F711D811D911DA11D20D0B9
S11316C009F468943F912AE0269F11243019305D73
S11316D03193DEF6CF010895462F4770405D419364
S11316E0B3E00FD0C9F7F6CF462F4F70405D4A33B1
S11316F018F0495D31FD4052419302D0A9F7EACF79
S1131700B4E0A6959795879577956795BA95C9F7A7
S113171000976105710508959B01AC010A2E06949A
S11317205795479537952795BA95C9F7620F731F53
S1131730841F951FA01D0895DC01CB01FC01F999BC
S1131740FECF06C0F2BDE1BDF89A319600B40D9209
S10F175041505040B8F70895F894FFCFC2
S113175C04000000020000000098050000000000D6
S9030000FC
