:100000000C948A010C9436090C9462090C94A70193
:100010000C94A7010C94A7010C94A7010C94A701C0
:100020000C94A7010C94A7010C94A7010C94A701B0
:100030000C94A7010C94A7010C94A7010C94A701A0
:100040000C94F7060C94A7010C94A7010C94A7013B
:100050000C943D080C946B080C94A7010C94A70118
:100060000C94A7010C94A7010C94A7010C94A70170
:100070000C94D5080C9403090C94A7014C4344201C
:100080004D656E752054657374006D656E755F7394
:100090007472696E6730310005010000F7000E02CE
:1000A000EB000902DD000A02CF000B02C1000C02C6
:1000B000B4000D023E436F6E666967205379732E5C
:1000C000003E4D617A6520536F6C762E4949003EA3
:1000D0004D617A6520536F6C762E2049003E4C6945
:1000E0006E6520466F6C6C776572003E536F756E5F
:1000F000642054657374003E52656D6F74652043CF
:100100006F6E742E002A537065656479426F745661
:10011000322A00000000000000005F00000007001D
:100120000700147F147F14242A7F2A1223130864E3
:100130006236495522500005030000001C22410090
:100140000041221C0014083E081408083E0808005C
:100150005030000008080808080060600000201007
:100160000804023E5149453E00427F400042615131
:1001700049462141454B311814127F10274545450A
:10018000393C4A4949300171090503364949493624
:10019000064949291E003636000000563600000880
:1001A00014224100141414141400412214080201F2
:1001B000510906324979413E7E1111117E7F49492C
:1001C00049363E414141227F4141221C7F494949F4
:1001D000417F090909013E4149497A7F0808087FA2
:1001E00000417F41002040413F017F081422417FB0
:1001F000404040407F020C027F7F0408107F3E4158
:1002000041413E7F090909063E4151215E7F09199E
:100210002946464949493101017F01013F4040409B
:100220003F1F2040201F3F4038403F6314081463A5
:1002300007087008076151494543007F41410002AA
:10024000040810200041417F0004020102044040E4
:10025000404040000102040020545454787F484438
:1002600044383844444420384444487F3854545433
:1002700018087E0901020C5252523E7F080404788D
:1002800000447D40002040443D007F102844000091
:10029000417F40007C041804787C080404783844CA
:1002A0004444387C14141408081414187C7C080482
:1002B00004084854545420043F4440203C4040200B
:1002C0007C1C2040201C3C4030403C4428102844EA
:1002D0000C5050503C4464544C44000836410000DB
:1002E000007F0000004136080010080810080000D8
:1002F0000000002D4552524F522D20002D494E46F0
:100300004F2D20004C6F7720426174746572793AEA
:100310002569000011241FBECFEFD0E1DEBFCDBFA5
:1003200011E0A0E0B1E0E6E3FAE102C005900D9231
:10033000A631B107D9F724E0A6E1B1E001C01D92D2
:10034000A53FB207E1F70E94DD010C94190D0C9452
:10035000000081E70E94C8070E94320880936B0466
:100360000E9417080895942F990F990F990F969F3F
:10037000602D1124982F990F890F880F849F802D4D
:1003800011240E946F0408950E94DB028FEF809376
:100390006B0480E70E94EF0780916B040E942008A5
:1003A0000E94170844E650E06AE070E089EA91E0B4
:1003B0000E94D8048093D50408950E9496060E9456
:1003C000C4014AE050E060E070E081E996E00E94FC
:1003D000D804C4EDD4E0888344EF51E064E170E0D8
:1003E00087E192E00E94D8048A8344E650E06AE004
:1003F00070E08CE792E00E94D8048B838CE790E059
:100400009F938F930E948E040F900F900E944B0534
:10041000FDCF089508950895089508958AE890E01D
:100420009F938F930E948E040F900F900895CF9208
:10043000DF92EF92FF920F931F93CF93DF93CDB78D
:10044000DEB760970FB6F894DEBF0FBECDBF8091C8
:10045000030186301CF01BEF180F01C010E00E9452
:100460002103C12E110FDD08C601880F991F880FC7
:10047000991F9C0128563F4F790100E010E041E0B0
:10048000602F80E00E94B301F70165917491CE0165
:1004900001960E942B0A80910301082E000C990BF3
:1004A00098012C0D3D1D8217930739F440E061E05F
:1004B000CE0101960E94580406C041E061E0CE01E1
:1004C00001960E9458040F5F1F4F34E0E30EF11CA9
:1004D00006301105A1F60E94740460960FB6F894D8
:1004E000DEBF0FBECDBFDF91CF911F910F91FF9067
:1004F000EF90DF90CF90089580916B0481FD10C044
:1005000080910201882361F0E091030184E0E80218
:10051000F0011124E656FF4F85919491FC01099555
:1005200080916B0482FD09C090910101992329F00B
:10053000909103019F5F9093030183FD09C0809117
:100540000001882329F080910301815080930301E9
:1005500080910301873024F081E08093030105C07E
:1005600018161CF086E08093030180916B0481FBD8
:10057000992790F99093020182FB992790F9909323
:10058000010183FB882780F98093000108958EBDC7
:100590000DB407FEFDCF8EB508952C98662311F09B
:1005A000119A01C011980E94C7022C9A089560E028
:1005B0000E94CD020895CF93DF93089A099A249A56
:1005C000259A279A80E58CBD109A2C9A8FE39CE996
:1005D0000197F1F700C0000010989FEF2AE683E032
:1005E000915020408040E1F700C00000109A2C9804
:1005F00081E20E94D70283E10E94D70286E00E9436
:10060000D70282EC0E94D70280E20E94D70289E0E2
:100610000E94D70280E80E94D70280E40E94D7029D
:10062000C8EFD1E061E080E00E94CD022197D1F7D0
:1006300088E00E94D7028CE00E94D702DF91CF9120
:10064000089580E80E94D70280E40E94D7021092A9
:100650000E0310920F03E6E1F1E08EE093E01192B9
:10066000E817F907E1F70895262F26952695269590
:1006700090E034E5239F800D911D1124442379F0EF
:10068000FC01EA5EFE4F677081E090E002C0880FD7
:10069000991F6A95E2F79081892B80830895FC0168
:1006A000EA5EFE4F677081E090E002C0880F991FFC
:1006B0006A95E2F7809590818923808308953F921F
:1006C0004F925F926F927F928F929F92AF92BF9262
:1006D000CF92DF92EF92FF920F931F93CF93DF930E
:1006E00000D000D0CDB7DEB7562E442E262F30E0F6
:1006F0003A8329834901880C991C880C991C820E25
:10070000931E181419040CF063C08901000F111F07
:10071000000F111F000F111F021B130B612CA82EBD
:10072000B12CC50180975C01AA0CBB1CAA0CBB1C98
:10073000A80EB91E0F2EFFE0CF2EF3E0DF2EF02D16
:100740000F2EFEE0EF2EF3E0FF2EF02D81E0342E91
:1007500038262EC0EB81FC81249130E0872D652D59
:100760000E94050A02C0359527958A95E2F720FF79
:100770000AC0F6016081670DF7018081442D860D66
:100780000E94340309C0F6016081670DF701808182
:10079000432D860D0E9434037394872D90E08017BB
:1007A0009107C4F26394862D90E08815990584F42E
:1007B00010161106BCF7862D652D0E94050A9501BD
:1007C000280F311D2D5E3E4F3C832B83712CC2CFF1
:1007D000411034C009811A81000F111F000F111F31
:1007E000000F111F89819A81081B190B1016110621
:1007F0002CF5952D990F990F950D9B8319820F2E2E
:10080000FFE0CF2EF3E0DF2EF02D0F2EFEE0EF2ED7
:10081000F3E0FF2EF02DF6016081F9816F0FF701F3
:10082000808141E0FB818F0F0E94340329812F5F7B
:100830002983822F90E0801791076CF380910E033B
:1008400091E0980F852D880F880F850D890F8435CD
:1008500018F480930E030EC010920E03EFE0F3E045
:10086000808191E0980F852D880F880F880F85195A
:10087000890F808380910F03803320F010920E0344
:1008800010920F030F900F900F900F90DF91CF9168
:100890001F910F91FF90EF90DF90CF90BF90AF909E
:1008A0009F908F907F906F905F904F903F900895B2
:1008B0000F931F93CF93DF93EC018881882351F02E
:1008C000042F162F2196402F612F0E945F038991DC
:1008D0008111F9CFDF91CF911F910F9108958093EE
:1008E0000E0360930F0308950F931F93CF93DF932D
:1008F00080E80E94D70280E40E94D702C6E1D1E0DE
:100900000EE013E061E089910E94CD02C017D1078B
:10091000C9F7DF91CF911F910F910895EF92FF9248
:100920000F931F93CF93DF93CDB7DEB78E01075F91
:100930001F4FF801E190F1908F018CEF92E00E943F
:10094000C308A801B7018091F1049091F2040E94BC
:10095000320A8AE00E94AE08DF91CF911F910F9179
:10096000FF90EF900895EF92FF920F931F93CF9314
:10097000DF93CDB7DEB78E01075F1F4FF801E1901F
:10098000F1908F0183EF92E00E94C308A801B701A4
:100990008091F1049091F2040E94320A8AE00E9450
:1009A000AE08DF91CF911F910F91FF90EF900895C6
:1009B0000F931F93CF93DF938C0180918E049091BE
:1009C0008F04892BA1F0EEE8F4E021E030E0922FD3
:1009D000E901A781B0852F5F3F4F3796AB2BB9F761
:1009E0009A3041F481E080938D048AE018C0C0E021
:1009F000D0E090E0FE01EE0FFF1FEE0FFF1FEE0FA5
:100A0000FF1FEC1BFD0BE257FB4F118300836F5F51
:100A10007F4F73836283558344831682892FDF91CE
:100A2000CF911F910F9108958A3020F081E080933B
:100A30008D040895282F30E097E0899FF00111245C
:100A4000E257FB4F80819181892B29F482E08093CA
:100A50008D0481E001C080E0F901EE0FFF1FEE0F71
:100A6000FF1FEE0FFF1FE21BF30BE257FB4F11823C
:100A70001082138212821582148216820895CF93F7
:100A8000C0E08C2F0E941405CF5FCA30D1F71092BE
:100A90008D04CF9108951F93CF93DF93CEE8D4E0D8
:100AA00010E08E81882369F0E881F98109958E81B3
:100AB00081508E838C819D81892B19F4812F0E9416
:100AC00014051F5F27961A3061F7DF91CF911F91B0
:100AD0000895EEE8F4E024ED34E041E08081918176
:100AE000892B89F0868181110EC0828193810197C3
:100AF00093838283892B39F446838481958100977F
:100B000011F0938382833796E217F30739F708953C
:100B100008950895ECE7F0E09081907E8F71892B25
:100B20008083EAE7F0E0808180648083808186FDB5
:100B3000FDCF8091780090917900089582E00E9425
:100B40008A05A0E0B0E09C01AD01220F331F441FD5
:100B5000551FA8E8B3E10E94200ADC01CB01072E53
:100B60007AE0B695A795979587957A95D1F7702DE8
:100B7000089595B1936095B9813011F4299808953D
:100B8000811102C028980895833019F485B18C7FB3
:100B900085B90895833071F08F3F19F08130B9F431
:100BA00010C02A984598ECE6F4E08081846080616A
:100BB000808308952A98ECE6F4E080818061808348
:100BC00008954598ECE6F4E0808184608083089580
:100BD000833071F08F3F19F08130B9F410C02A9A38
:100BE000459AECE6F4E080818B7F8F7E80830895C8
:100BF0002A9AECE6F4E080818F7E80830895459AFE
:100C0000ECE6F4E080818B7F80830895CF930E948F
:100C10009E0590936E0480936D0480399A4128F468
:100C2000ECE6F4E080818860808380916C0483FF2F
:100C300050C0E0911401F0911501099560E080E049
:100C40000E94A10983E00E94E8054698ECE6F4E0E2
:100C500080818E7F80838AE00E94B9050E949E0574
:100C60009F938F9384E093E09F938F930E94B304AC
:100C70000F900F900F900F90C4E181E00E94B90592
:100C80008FEF93EC29E0815090402040E1F700C0C5
:100C900000008AE00E94B9058FEF93EC29E08150B3
:100CA00090402040E1F700C00000C15031F78FEFC5
:100CB0000E94E8058AE00E94B90583B7817F8460BD
:100CC00083BF83B7816083BF889583B78E7F83BFDF
:100CD000F8CFCF91089580915A0484FF1CC0809171
:100CE0006C0480FF18C080E80E9480072091640493
:100CF000309165048217930770F060E080E00E94F5
:100D0000A109EAE5F4E080818F7E8083EEEDF4E0D6
:100D100080818F778083E0911201F0911301099512
:100D200008950E9406060E946B060895CF93DF93F4
:100D3000F89484B1876084B987B18C6F87B98AB120
:100D4000806F8AB981E00E94CA0583E00E94E805AD
:100D5000ECE7F0E0808180648083EAE7F0E0808166
:100D600087688083808180648083808186FDFDCF59
:100D7000809178009091790084B5826084BD85B5BA
:100D8000836085BDEEE6F0E080818260808389EF3C
:100D900087BD0E949E05CCE6D4E09A8389831B829E
:100DA0001C821D821E821882109273040E948E097A
:100DB00046988AE00E94B9050E94DD090E942D092B
:100DC00088E090E00E94950884E091E09093F2041E
:100DD0008093F1040E94F3090E943F050E94C2071C
:100DE0008881816088837894DF91CF9108951F92E4
:100DF0000F920FB60F9211242F933F934F935F934F
:100E00006F937F938F939F93AF93BF93EF93FF93D2
:100E1000ECE6F4E083819481A581B6810196A11D61
:100E2000B11D83839483A583B6838091DE0480FF04
:100E300007C0EEEDF4E08181928101969283818377
:100E40008091DE0481FF07C0EEEDF4E083819481A0
:100E50000196948383838091DE0482FF07C0EEEDC8
:100E6000F4E0858196810196968385838091DE04E6
:100E700083FF07C0EEEDF4E08781908501969087AF
:100E800087838091DE0484FF07C0EEEDF4E0818566
:100E900092850196928781878091DE0485FF07C045
:100EA000EEEDF4E0838594850196948783878091A5
:100EB000DE0486FF07C0EEEDF4E085859685019699
:100EC000968785878091DE0488233CF4EEEDF4E07C
:100ED000878590890196908B87870E946905FF918D
:100EE000EF91BF91AF919F918F917F916F915F91A2
:100EF0004F913F912F910F900FBE0F901F9018951B
:100F0000F894883011F138F48230A9F08430C1F0BF
:100F10008130A1F50BC0803211F118F48031D1F08D
:100F20002DC0803409F1803821F128C08091DF0480
:100F30009091E00425C08091E1049091E20420C0EA
:100F40008091E3049091E4041BC08091E5049091AA
:100F5000E60416C08091E7049091E80411C08091E6
:100F6000E9049091EA040CC08091EB049091EC04A8
:100F700007C08091ED049091EE0402C080E090E003
:100F8000789408951092B90088E48093B800089589
:100F900094EA9093BC00ECEBF0E090819923ECF79D
:100FA0009091B900987F983011F09031A1F480931E
:100FB000BB0084E88093BC00ECEBF0E080818823E8
:100FC000ECF79091B900987F983139F081E0903436
:100FD00029F480E0089581E0089580E00895CF939A
:100FE000DF93ECEBF0E024EAA9EBB0E0CBEBD0E050
:100FF00034E844E9208390819923ECF79C91987F11
:10100000983011F09031B1F7888330839081992323
:10101000ECF79C91987F903211F0983529F4408339
:10102000908194FDFDCFE6CFDF91CF91089584E9C3
:101030008093BC00ECEBF0E0808184FDFDCF08954F
:101040008093BB0084E88093BC00ECEBF0E08081EF
:101050008823ECF79091B900987F81E0983209F4E9
:1010600080E0089584E88093BC00ECEBF0E08081A0
:101070008823ECF78091BB0008951F920F920FB662
:101080000F9211242F938F939F93EF93FF9380914F
:10109000C0002091C6008C71E091B703EF5FEF7143
:1010A0009091B603E91739F0E093B703F0E0E65406
:1010B000FC4F208301C082E09091B503892B80937F
:1010C000B503FF91EF919F918F912F910F900FBEDC
:1010D0000F901F9018951F920F920FB60F92112428
:1010E0008F939F93EF93FF939091B9038091B803EF
:1010F000981769F0E091B803EF5FEF77E093B803DA
:10110000F0E0E652FC4F80818093C60005C0E1EC20
:10111000F0E080818F7D8083FF91EF919F918F918F
:101120000F900FBE0F901F9018951092B903109258
:10113000B8031092B7031092B60399231CF422E06F
:101140002093C00090789093C5008093C40088E9F4
:101150008093C10086E08093C20008952091B90376
:101160002F5F2F779091B8032917E1F3E22FF0E07A
:10117000E652FC4F80832093B903E1ECF0E08081DC
:10118000806280830895CF93DF93EC012196FC0168
:101190008491882339F00E94AE08FE018491219643
:1011A0008111F9CFDF91CF9108951F920F920FB661
:1011B0000F9211242F938F939F93EF93FF9380911E
:1011C000C8002091CE008C71E0911203EF5FEF71A7
:1011D00090911103E91739F0E0931203F0E0EB5E10
:1011E000FC4F208301C082E090911003892B8093F3
:1011F0001003FF91EF919F918F912F910F900FBE50
:101200000F901F9018951F920F920FB60F921124F6
:101210008F939F93EF93FF93909114038091130307
:10122000981769F0E0911303EF5FEF77E0931303F2
:10123000F0E0EB5CFC4F80818093CE0005C0E9ECD0
:10124000F0E080818F7D8083FF91EF919F918F915E
:101250000F900FBE0F901F901895E9E6F0E0808187
:10126000856080838DB383608DBB08951F920F923C
:101270000FB60F9211248F939F93EF93FF9380915A
:101280006C0484FF16C080915A048370813041F44D
:10129000EAE5F4E08681978101969783868309C009
:1012A000823039F4EAE5F4E08681978101979783EB
:1012B0008683FF91EF919F918F910F900FBE0F90BA
:1012C0001F9018951F920F920FB60F9211248F93B3
:1012D0009F93EF93FF9380916C0484FF16C08091DD
:1012E0005A048C70843041F4EAE5F4E080859185FD
:1012F00001969187808709C0883039F4EAE5F4E0E7
:1013000080859185019791878087FF91EF919F91CB
:101310008F910F900FBE0F901F901895CF93DF9372
:10132000C3E7D4E018824AE050E060E070E08EE766
:1013300094E00E94D20C888181608883DF91CF91F4
:101340000895813049F4439A4498EAE5F4E08081B5
:101350008C7F8160808313C0823049F4449A439823
:10136000EAE5F4E080818C7F8260808308C088B1E8
:10137000877E88B9EAE5F4E080818C7F80836130E4
:1013800049F442985C9AEAE5F4E08081837F8460C6
:1013900080830895623049F4429A5C98EAE5F4E06B
:1013A0008081837F88608083089542985C98EAE515
:1013B000F4E08081837F8083089560E080E00E9474
:1013C000A109E0EBF0E08081836A8083E1EBF0E04B
:1013D0008081876080831092B3001092B40083EF05
:1013E00080935F040895E0E8F0E08081806480836A
:1013F000E1E8F0E08081886080831092890010929B
:10140000880080818B7F80830895991B79E004C0D8
:10141000991F961708F0961B881F7A95C9F7809533
:101420000895A29FB001B39FC001A39F700D811DBD
:101430001124911DB29F700D811D1124911D0895DD
:101440000E94110AA59F900DB49F900DA49F800D3E
:10145000911D11240895FB01DC0105900D920020DF
:10146000E1F70895CF93DF93EC018B8188608B8344
:10147000CE010E94410A2B81277F2B83DF91CF91E0
:101480000895ABE0B0E0E7E4FAE00C94E20C6C0104
:101490007B018A01FC0117821682838181FFCCC106
:1014A000CE0101963C01F6019381F70193FD8591F0
:1014B00093FF81917F01882309F4BAC1853239F401
:1014C00093FD859193FF81917F01853229F4B601C7
:1014D00090E00E94380CE7CF912C212C312CFFE1B9
:1014E000F315D8F08B3279F038F4803279F083320A
:1014F000A1F4232D20611DC08D3261F0803369F489
:10150000232D216016C0832D8260382EE32DE460E8
:101510003E2E2AC0F32DF8601DC037FC2DC020EDF3
:10152000280F2A3040F08E32B9F436FC81C1232DC9
:101530002064322E19C036FE06C08AE0989E200D27
:101540001124922E11C0EAE02E9E200D1124222E8D
:10155000F32DF0623F2E08C08C3621F4832D806875
:10156000382E02C0883641F4F70193FD859193FF30
:1015700081917F018111B3CF982F9F7D9554933036
:1015800028F40C5F1F4F9FE399830DC0833631F021
:10159000833771F0833509F059C021C0F80180818B
:1015A00089830E5F1F4F88248394912C530113C0AD
:1015B0002801F2E04F0E511CF801A080B18036FEE8
:1015C00003C0692D70E002C06FEF7FEFC5010E947C
:1015D0002D0C4C018201F32DFF773F2E16C0280100
:1015E00022E0420E511CF801A080B18036FE03C0FB
:1015F000692D70E002C06FEF7FEFC5010E94220CE1
:101600004C01F32DF0683F2E820133FC1BC0822D6C
:1016100090E088169906B0F4B60180E290E00E944E
:10162000380C2A94F4CFF50137FC859137FE81916F
:101630005F01B60190E00E94380C21102A9421E04D
:10164000821A91088114910471F7E8C0843611F070
:10165000893641F5F80137FE07C0608171818281CA
:1016600093810C5F1F4F08C060817181072E000CB1
:10167000880B990B0E5F1F4FF32DFF763F2E97FFC0
:1016800009C090958095709561957F4F8F4F9F4FC2
:10169000F0683F2E2AE030E0A3010E94740C882EEF
:1016A000861845C0853731F4232D2F7EB22E2AE0CF
:1016B00030E025C0932D997FB92E8F36C1F018F4F4
:1016C000883579F0B5C0803719F0883721F0B0C07F
:1016D000E92FE061BE2EB4FE0DC0FB2DF460BF2EDD
:1016E00009C034FE0AC0292F2660B22E06C028E0A9
:1016F00030E005C020E130E002C020E132E0F80136
:10170000B7FE07C060817181828193810C5F1F4F9A
:1017100006C06081718180E090E00E5F1F4FA301E1
:101720000E94740C882E8618FB2DFF773F2E36FE04
:101730000DC0232D2E7FA22E891458F434FE0BC029
:1017400032FC09C0832D8E7EA82E05C0B82CA32C98
:1017500003C0B82C01C0B92CA4FE0FC0FE01E80DD7
:10176000F11D8081803321F49A2D997EA92E09C024
:10177000A2FE06C0B394B39404C08A2D867809F003
:10178000B394A3FC11C0A0FE06C0B21488F4280CC8
:10179000922C9B180EC0B21460F4B60180E290E067
:1017A0000E94380CB394F7CFB21418F42B1802C06F
:1017B000982C212CA4FE10C0B60180E390E00E947A
:1017C000380CA2FE17C0A1FC03C088E790E002C05D
:1017D00088E590E0B6010CC08A2D867859F0A1FE0C
:1017E00002C08BE201C080E2A7FC8DE2B60190E06E
:1017F0000E94380C891438F4B60180E390E00E940E
:10180000380C9A94F7CF8A94F301E80DF11D80818A
:10181000B60190E00E94380C8110F5CF222009F427
:1018200042CEB60180E290E00E94380C2A94F6CFB6
:10183000F6018681978102C08FEF9FEF2B96E2E140
:101840000C94FE0CFC010590615070400110D8F71B
:10185000809590958E0F9F1F0895FC0161507040F8
:1018600001900110D8F7809590958E0F9F1F0895D5
:101870000F931F93CF93DF93FB01238121FD03C0BF
:101880008FEF9FEF2CC022FF16C046815781248125
:1018900035814217530744F4A081B1819D012F5F28
:1018A0003F4F318320838C93268137812F5F3F4FB9
:1018B0003783268314C08B01EC01FB010084F18582
:1018C000E02D0995892BE1F6D80116968D919C9112
:1018D0001797019617969C938E931697CE01DF91DA
:1018E000CF911F910F910895FA01AA27283051F145
:1018F000203181F1E8946F936E7F6E5F7F4F8F4F41
:101900009F4FAF4FB1E03ED0B4E03CD0670F781F9F
:10191000891F9A1FA11D680F791F8A1F911DA11D84
:101920006A0F711D811D911DA11D20D009F46894BD
:101930003F912AE0269F11243019305D3193DEF665
:10194000CF010895462F4770405D4193B3E00FD01B
:10195000C9F7F6CF462F4F70405D4A3318F0495D06
:1019600031FD4052419302D0A9F7EACFB4E0A695E9
:101970009795879577956795BA95C9F7009761050B
:10198000710508959B01AC010A2E06945795479561
:1019900037952795BA95C9F7620F731F841F951F56
:1019A000A01D0895DC01CB01FC01F999FECF06C012
:1019B000F2BDE1BDF89A319600B40D92415050400D
:1019C000B8F708952F923F924F925F926F927F9255
:1019D0008F929F92AF92BF92CF92DF92EF92FF923F
:1019E0000F931F93CF93DF93CDB7DEB7CA1BDB0BEB
:1019F0000FB6F894DEBF0FBECDBF09942A88398890
:101A000048885F846E847D848C849B84AA84B98496
:101A1000C884DF80EE80FD800C811B81AA81B981A2
:101A2000CE0FD11D0FB6F894DEBF0FBECDBFED01B6
:061A30000895F894FFCFB9
:101A3600010101010000000200000000AE080000E4
:061A46000000890588057F
:00000001FF
