:100000000C9482020C94810A0C94AD0A0C949F0209
:100010000C949F020C949F020C949F020C949F02DC
:100020000C949F020C949F020C949F020C949F02CC
:100030000C949F020C949F020C949F020C949F02BC
:100040000C9445110C949F020C949F020C949F02F7
:100050000C9455120C9483120C949F020C949F02E2
:100060000C949F020C949F020C949F020C949F028C
:100070000C94ED120C941B130C949F02D008F708FB
:1000800004091109EA081E092B09DD0862095C0947
:100090005E0958095A095409560952096E616E00E1
:1000A000696E660000407A10F35A00A0724E18097B
:1000B0000010A5D4E80000E87648170000E40B54CF
:1000C000020000CA9A3B000000E1F505000080969E
:1000D0009800000040420F000000A08601000000D0
:1000E000102700000000E80300000000640000008A
:1000F00000000A00000000000100000000002C7653
:10010000D888DC674F0823DFC1DFAE59E1B1B7966D
:10011000E5E3E453C63AE651997696E8E6C28426CA
:10012000EB898C9B62ED407C6FFCEFBC9C9F40F2A6
:10013000BAA56FA5F490055A2AF75C936B6CF96722
:100140006DC11BFCE0E40D47FEF520E6B500D0EDE7
:10015000902E0300943577050080841E080000204F
:100160004E0A000000C80C333333330F986E1283ED
:100170001141EF8D2114893BE65516CFFEE6DB18C1
:10018000D1844B381BF77C1D901DA4BBE424203286
:1001900084725E228100C9F124ECA1E53D27426111
:1001A00074743A256900556E6B6E6F776E204572D8
:1001B000726F720050617468204D656D6F727920A6
:1001C00046756C6C2E00496E746572736563746954
:1001D0006F6E20526561642D4572726F722E0049F8
:1001E0006E74657273656374696F6E20646F657396
:1001F0006E2774206D6174636820746F2073746F50
:10020000726564205475726E20696E205061746846
:100210002D4D656D6F7279210053746174652045B1
:1002200072726F723A2025690050726573732053A1
:10023000746172742D427574746F6E20746F2073C4
:10024000746172742074686520537065656472759A
:100250006E20616761696E0A0A00426174743A2512
:10026000690A000A2A2A2A2A2A2A2A2A2A2A2A2A19
:100270002A4D617A6520536F6C76652066696E69D8
:1002800073686564212A2A2A2A2A2A2A2A2A2A2ADB
:100290002A2A2A2A2A0A005072657373205374612D
:1002A00072742D427574746F6E20746F2073746154
:1002B00072742074686520537065656472756E0A87
:1002C00000426174743A25690A0050617468204FD5
:1002D0007074696D697A65643A2025730A0050610B
:1002E0007468204D656D6F72793A2025730A000A93
:1002F0002A2A2A2A2A2A2A2A2A2A4D617A6520535A
:1003000065617263682066696E6973686564212A35
:100310002A2A2A2A2A2A2A2A2A2A2A2A2A2A2A0A5D
:100320000050617468204D656D6F72793A202573B5
:100330000A0041637475616C20496E74657273655F
:100340006374696F6E20547970653A2025730A00D2
:10035000546573742046696E69736865642E007411
:100360003A25696D7320453A256920732530356437
:100370000054696C652044657465637465642E007F
:100380004C696E69656E73656E736F722054696D2A
:10039000696E672054657374005374617274204DE4
:1003A000617A6520736561726368210A0043616C3C
:1003B0006962726174696F6E2066696E69736865DF
:1003C000642E0A002D5072657373205354415254A9
:1003D00020666F72204D617A652053656172636893
:1003E0002E0A2D5072657373205553455220666F47
:1003F00072206E65772063616C6962726174696FE7
:100400006E0A00426174746572793A2569200A00A7
:100410005049442D506172616D3D204B503A253159
:100420002E326620204B493A25312E326620204B51
:10043000443A25312E3266200A000A0A50726F674C
:1004400072616D6D204D617A6520536561726368DC
:100450002E0A00556E6B6E6F776E00537472616971
:1004600067687420526967687400537472616967C1
:100470006874204C65667400542D57617900526988
:10048000676874004C65667400466F75722057612A
:10049000790046696E697368004465616420456E41
:1004A000640052555200525553004C5552004C5561
:1004B000530052554C005355530053554C004C5566
:1004C0004C0025693A202569004B616C69627261B4
:1004D00074696F6E20446174610A002D4552524F59
:1004E000522D20002D494E464F2D20002D444542CF
:1004F00055472D20004C6F772042617474657279E6
:100500003A25690011241FBECFEFD0E1DEBFCDBF79
:1005100011E0A0E0B1E0EEE0F3E302C005900D923F
:10052000AA34B107D9F722E0AAE4B1E001C01D92D4
:10053000A138B207E1F70E9442080C9485190C9487
:100540000000FC011082469820E132E046E650E0CF
:1005500060E070E086E690E00E944B0E83E00E942F
:10056000361081E00895FC01808180FD0EC082E29A
:1005700092E09F938F9381E293E09F938F930E94E9
:10058000A8180F900F900F900F900895CF93DF93BE
:10059000EC0160E070E081E090E00E94CE11EAE6BC
:1005A000F2E080818160808388818B7F877F888370
:1005B000DF91CF9108958AE394E00E94DB1220E15D
:1005C00032E046E650E060E070E086E690E00E94AF
:1005D0004B0E3FE33F932CE42F939CEC9F938DECC9
:1005E0008F931F921F921F921F923F932F939F935F
:1005F0008F9380E194E09F938F930E94A8180E94AC
:10060000EC0F9F938F9383E094E09F938F930E94CE
:10061000A81860E070E081E090E00E94CE1160E0F8
:1006200070E082E090E00E94CE1181E00E941810FC
:1006300080E00E940710ECEEF1E080818160808311
:10064000E3EFF1E080818160808384EC93E09F930D
:100650008F930E94A8188DB79EB744960FB6F89452
:100660009EBF0FBE8DBF089589E993E09F938F933E
:100670000E94A8188AE00E940710EAE6F2E0808152
:100680008E7F80830F900F900895EAE6F2E08081DC
:100690008E7F808360E070E081E090E00E94CE1168
:1006A0008AE00E94071008958AE00E940710EAE697
:1006B000F2E080818E7F808380818D7F80830895AA
:1006C0008AE00E9407104698EAE6F2E080818E7F79
:1006D000808308951F93CF93DF93EC018091DB011A
:1006E00084FD05C0EAE6F2E080818160808381E0DC
:1006F0000E941312C29710F013E001C016E082E0CE
:100700000E94131285369105C0F0888184FB222750
:1007100020F991E0922790FB84F9888384FF04C03C
:1007200080E00E94071003C08AE00E94071060E08A
:1007300070E082E090E00E94CE11812FDF91CF9196
:100740001F910895CF93DF93EC0182E00E94131272
:10075000853F9140A0F0888184FB222720F991E019
:10076000922790FB84F9888384FF02C0469A01C0D7
:10077000469860E070E082E090E00E94CE111C9903
:1007800009C0EAE6F2E0808181608083469A81E0D8
:100790000E94071081E00E941312813D974010F0E3
:1007A00083E001C087E0DF91CF91089581E00E944E
:1007B0001312853F914048F081E00E94071060E0ED
:1007C00070E081E090E00E94CE1188E00895CF9320
:1007D0001C9908C0EAE6F2E080818160808383E0B2
:1007E0000E9407101B9908C0EAE6F2E0808182604F
:1007F000808383E00E94071081E00E941312813DF4
:10080000974028F081E00E940710C3E001C0C1E0DA
:1008100082E00E9413128D3D9540A8F00E946E0B5D
:100820008DEA93E09F938F930E94A818EAE6F2E086
:1008300080818D7F808360E070E082E090E00E94A4
:10084000CE110F900F908C2FCF91089580E593E0FB
:100850009F938F930E94D70C60E070E080E090E05F
:100860000E94820D60E080E00E94460DEAE6F2E020
:1008700080818E7F808380818D7F808380818B7F4C
:1008800080838081877F808380818F7E80830F90AB
:100890000F90089568E770E088E790E00E94820D6D
:1008A000EAE6F2E080818E7F808380818D7F808385
:1008B00080818B7F80838AE00E9407100895CF9308
:1008C000DF93EC0180E893E09F938F930E94D70C15
:1008D00061E081E00E94460D68E770E088E790E003
:1008E0000E94820D80E192E00E94240F83E00E942A
:1008F000071088818D7F888360E070E081E090E060
:100900000E94CE11CAE6D2E088818160888360E0CF
:1009100070E082E090E00E94CE118881826088833E
:1009200088818B7F888360E070E084E090E00E94A3
:10093000CE1188818860888360E070E088E090E074
:100940000E94CE1188818F7E888360E070E080E114
:1009500090E00E94CE110E94D90A0F900F90DF9173
:10096000CF910895CF93DF93EC0161E081E00E9485
:10097000460D68E770E088E790E00E94820D80E114
:1009800092E00E94240F83E00E94071088818D7FEF
:10099000888360E070E081E090E00E94CE11CAE6BA
:1009A000D2E088818160888360E070E082E090E03E
:1009B0000E94CE11888182608883888184608883C8
:1009C0000E94D90ADF91CF910895EF92FF921F9371
:1009D000CF93DF93EC0182E00E9413128A3F9105CE
:1009E00038F180910802811104C080910C028823A3
:1009F00049F08881826088838091080281111AC041
:100A000014E001C013E080910902811114C08091AB
:100A10000A02811110C080910B0281110CC08091DB
:100A20000C02811108C088818260888314E003C0B1
:100A300013E001C014E081E00E9413128897F8F0DF
:100A4000888181FD1CC00E94D90A0E941E0B7C0176
:100A500060E070E081E090E00E94CE11B7016A5042
:100A6000710940E152E080E090E00E94760E68E774
:100A700070E0681B790B88589F4F0E94820D84E0BC
:100A80000E94131285369105C0F0888184FB2227CD
:100A900020F991E0922790FB84F9888384FF04C0B9
:100AA00083E00E94071003C08AE00E94071060E004
:100AB00070E084E090E00E94CE11812FDF91CF9111
:100AC0001F91FF90EF900895CF93DF93EC01888101
:100AD00082FD0DC081E00E941312C29740F00E9477
:100AE000D90A0E94810889838881846088838881EB
:100AF00083FD0EC081E00E941312883C910540F0F6
:100B00000E94D90A0E9481088A838881886088832C
:100B100081E00E9413128C32914030F060E080E05E
:100B20000E94460D85E001C084E0DF91CF910895D9
:100B3000EF92FF920F931F93CF93DF93EC01888185
:100B400081FD26C080910802811104C080910C02B1
:100B50008823F1F083E00E94181081E793E09F93CF
:100B60008F930E94D70C68E770E088E790E00E94BE
:100B7000820DEAE6F2E0808184608083808180617A
:100B800080838881826088830E94780A0F900F900A
:100B900081E00E9413128897F8F0888181FD1CC0C3
:100BA0000E94D90A0E941E0B8C0160E070E081E077
:100BB00090E00E94CE11B8016A50710940E152E004
:100BC00080E090E00E94760E68E770E0681B790B89
:100BD00088589F4F0E94820D84E00E941312449710
:100BE000F0F1888181FF3DC060E070E084E090E03A
:100BF0000E94CE110E94D90A0E948108898390E048
:100C00000E945B08F82EE92EEBEDF1E006811781DA
:100C100080859185080F191F80E10E941312EF92C1
:100C2000FF921F930F939F938F938FE593E09F9372
:100C30008F930E94D70C80E10E9413122DB73EB70C
:100C4000285F3F4F0FB6F8943EBF0FBE2DBF853FC4
:100C5000914048F083E00E94361010E005C012E099
:100C600003C012E001C012E088E00E941312853632
:100C70009105C0F0888184FB222720F991E092271A
:100C800090FB84F9888384FF04C083E00E940710EE
:100C900003C08AE00E94071060E070E088E090E006
:100CA0000E94CE11812FDF91CF911F910F91FF9064
:100CB000EF900895EF92FF920F931F93CF93DF93DE
:100CC000CDB7DEB72F970FB6F894DEBF0FBECDBFFE
:100CD0008C01FC01628181810E949908F801838363
:100CE000682FCE0101967C010E94C108FF92EF920D
:100CF00082E393E09F938F930E94A818F801838169
:100D00000E944909F801848390810F900F900F9001
:100D10000F9090FD2DC093819150923008F458C0EF
:100D2000E0910F0291E09E0F90930F02F0E0EE5DD4
:100D3000FD4F8083E92FF0E0EE5DFD4F108291338F
:100D400028F082E0F801858388E045C0F8018481BD
:100D5000811105C00F2EF7E0FF2EF02D04C00F2EDD
:100D6000F6E0FF2EF02DF801808180FF29C004C03D
:100D70000F2EF6E0FF2EF02DF80163818FEF860F26
:100D8000823000F1E0910F02F0E0EE5DFD4F8081D6
:100D90008823D1F00E94460A882371F0E0910F0267
:100DA00081E08E0F80930F02F0E0EE5DFD4F8081B9
:100DB000F80184838F2D0FC0F801158288E00BC0E5
:100DC0008F2D09C08F2D07C087E005C086E003C0C6
:100DD0008111FCCF87E02F960FB6F894DEBF0FBECF
:100DE000CDBFDF91CF911F910F91FF90EF900895AC
:100DF000CF93DF93EC0180E00E9407108C818C344C
:100E000039F441E062E771E080E00E94BB0D11C05F
:100E1000823539F441E062E771E081E00E94BB0D68
:100E200008C0853531F441E060E273E081E00E9462
:100E3000BB0DCAE6D2E088818E7F888360E070E0D7
:100E400081E090E00E94CE11888182608883DF91EA
:100E5000CF9108950F931F93CF93DF93EC01888177
:100E600080FD39C08FEE92E09F938F930E94A81867
:100E700002E212E01F930F938EED92E09F938F9307
:100E80000E94A818C8010E94A9091F930F938AEC19
:100E900092E09F938F930E94A81810920F020E94D5
:100EA000EC0F9F938F9381EC92E09F938F930E941E
:100EB000A81887E992E09F938F930E94A8188881D1
:100EC000816088838DB79EB740960FB6F8949EBF19
:100ED0000FBE8DBF20C083E692E09F938F930E9448
:100EE000A8180E94EC0F9F938F938AE592E09F933E
:100EF0008F930E94A81889E292E09F938F930E949B
:100F0000A81810920F028DB79EB708960FB6F894E6
:100F10009EBF0FBE8DBF469A80E00E94071060E022
:100F200070E081E090E00E94CE11CAE6D2E08881B4
:100F30008E7F888360E070E082E090E00E94CE11B6
:100F4000888182608883DF91CF911F910F910895EE
:100F5000CF93DF93EC0146988D811F928F9389E1A7
:100F600092E09F938F930E94210D0F900F900F900E
:100F70000F908D81813069F018F0823099F01BC09C
:100F80008FED91E09F938F930E94210D0F900F9012
:100F90001AC086EC91E09F938F930E94210D0F90D1
:100FA0000F9011C084EB91E09F938F930E94210DCD
:100FB0000F900F9008C086EA91E09F938F930E9454
:100FC000210D0F900F900E94EC0F9F938F938EE94D
:100FD00091E09F938F930E94FC0CEAE6F2E08081FF
:100FE0008160808360E070E081E090E00E94CE113B
:100FF0000F900F900F900F90DF91CF910895EF9287
:10100000FF920F931F93CF93DF93E82E8B01C82F8E
:10101000D0E0FE01EE0FFF1FE85CFE4F0190F08173
:10102000E02DCB010995F82EE816D9F0CC0FDD1F85
:10103000CC0FDD1FCC5EDE4FEA81FB81309711F0D3
:10104000C8010995EF2DF0E0EE0FFF1FEE0FFF1F17
:10105000EC5EFE4F0190F081E02D309711F0C80159
:1010600009958F2DDF91CF911F910F91FF90EF90F8
:1010700008956AE471E0809150010E94FF07809317
:10108000500108950E94EC104AE050E06AE070E0E0
:1010900089E398E00E942A0FCDE0D2E0888345E002
:1010A00050E060E070E085EE90E10E942A0F8983B5
:1010B0000E94980FFDCF009701F121E030E040E061
:1010C00050E0FC01E170FF2796958795E29FB00103
:1010D000E39F700DF29F700D1124460F571FB90149
:1010E000660F771F220F331F220F331F220F331F6C
:1010F000260F371F009729F702C040E050E0CA01D1
:101100000895E8E0F2E020E030E080E061E070E0A7
:101110009191992341F0AB01022E02C0440F551F5B
:101120000A94E2F7842B2F5F3F4F2530310581F77A
:101130000895282F2170982F9171913189F02111F4
:1011400014C084FD17C090E005C094E003C095E092
:1011500001C092E08F3199F46F3189F497E00FC0AC
:10116000962F9E7091F793E0F5CF962F9E7079F7AA
:1011700091E0F0CF962F9E7061F396E0EBCF892F30
:101180000895CF93DF93D82FC92F862F90E0883012
:10119000910508F06DC0FC01E25CFF4F0C94D6167F
:1011A00089E994E09F938F93CF93DF930E94CE18A9
:1011B0000F900F900F900F9067C082E994E09F937B
:1011C0008F93CF93DF930E94CE180F900F900F90C4
:1011D0000F905AC089E894E09F938F93CF93DF9349
:1011E0000E94CE180F900F900F900F904DC084E882
:1011F00094E09F938F93CF93DF930E94CE180F902C
:101200000F900F900F9040C08EE794E09F938F93C4
:10121000CF93DF930E94CE180F900F900F900F90F6
:1012200033C088E794E09F938F93CF93DF930E941E
:10123000CE180F900F900F900F9026C08AE694E082
:101240009F938F93CF93DF930E94CE180F900F90B0
:101250000F900F9019C08BE594E09F938F93CF93DD
:10126000DF930E94CE180F900F900F900F900CC03C
:1012700083E594E09F938F93CF93DF930E94CE18E2
:101280000F900F900F900F908D2F9C2FDF91CF918B
:10129000089590E08830910598F4FC01EA5BFF4FD7
:1012A0000C94D61680E008958CE4089583E50895A3
:1012B0008CE408958CE408958CE4089582E5089503
:1012C00088E5089585E508959F92AF92BF92CF92E9
:1012D000DF92EF92FF920F931F93CF93DF93CDB7DF
:1012E000DEB77C01942EADB6BEB68DB79EB7821B1D
:1012F000930B0FB6F8949EBF0FBE8DBFEDB7FEB730
:1013000031966F01C7010E9452188C01009779F045
:10131000BC016D5F7F4FC6010E944018F8019082AA
:101320001182B601C7010E94351881E001C080E03A
:101330000FB6F894BEBE0FBEADBEDF91CF911F9128
:101340000F91FF90EF90DF90CF90BF90AF909F9064
:101350000895CF92DF92EF92FF921F93CF93DF9386
:1013600000D000D01F92CDB7DEB76C01FC01019018
:101370000020E9F731977F01E81AF90A44E050E0CC
:101380006EEB74E0CE0101960E942118970143E5AF
:10139000BC01C6010E946409182F44E050E06AEBCA
:1013A00074E0CE0101960E942118970142E5BC012C
:1013B000C6010E946409182B44E050E066EB74E01B
:1013C000CE0101960E942118970145E5BC01C60196
:1013D0000E946409182B44E050E062EB74E0CE01F7
:1013E00001960E942118970145E5BC01C6010E94A3
:1013F0006409182B44E050E06EEA74E0CE010196D7
:101400000E942118970142E5BC01C6010E946409AF
:10141000182B44E050E06AEA74E0CE0101960E9485
:101420002118970145E5BC01C6010E946409182BEB
:1014300044E050E066EA74E0CE0101960E94211873
:1014400097014CE4BC01C6010E946409182B44E0DA
:1014500050E062EA74E0CE0101960E9421189701E3
:1014600043E5BC01C6010E946409111187CF8111B7
:1014700085CF0F900F900F900F900F90DF91CF912D
:101480001F91FF90EF90DF90CF900895823591F0FB
:1014900018F48C3439F004C08335A9F08535C9F0CF
:1014A00080E008956130B9F0635081E06330B0F0BE
:1014B00080E008958EEF860F833078F081E066300B
:1014C00069F080E00895645081E0633038F080E096
:1014D000089581E0089581E0089581E00895E9E6A6
:1014E000F0E08081856080838DB383608DBB08953B
:1014F000F894EBEDF1E0178216821186108678944D
:1015000008951F920F920FB60F9211248F939F93FD
:10151000EF93FF938091EC0184FF16C08091DB0173
:101520008370813041F4EBEDF1E086819781019683
:101530009783868309C0823039F4EBEDF1E0868130
:101540009781019797838683FF91EF919F918F9168
:101550000F900FBE0F901F9018951F920F920FB60D
:101560000F9211248F939F93EF93FF938091EC013F
:1015700084FF16C08091DB018C70843041F4EBED68
:10158000F1E08085918501969187808709C0883038
:1015900039F4EBEDF1E080859185019791878087A3
:1015A000FF91EF919F918F910F900FBE0F901F9021
:1015B0001895EF92FF920F931F93CF93479A8FE75F
:1015C0009CE00197F1F700C0000004EF11E0780102
:1015D000C3E08C2F0E94D80FD7018D939D937D017E
:1015E000CF5FC830B1F74798E3EFF1E0818592858E
:1015F000278130853287218790878783808180FF8C
:1016000017C04EEF51E061E0D8018D919D918D01A1
:1016100088539F4F18962D913C9119972817390799
:1016200014F4658B01C0158A31960417150761F70C
:10163000CF911F910F91FF90EF900895E3EFF1E0AC
:101640008381948127813085821B930B95958795A3
:10165000959587950895CF93DF93C3EFD1E01882D6
:101660004AE050E060E070E08EEF91E00E945D198A
:10167000888181608883DF91CF9108950F931F93B4
:10168000CF93DF93C82F8B0162E370E082E390E099
:101690000E94820DC11105C061E082E00E94460DEA
:1016A00006C0C13021F462E081E00E94460DCBED1E
:1016B000D1E088818061888360E070E080E890E01C
:1016C0000E94CE11EAE6F2E08081806880831B8769
:1016D0000A87DF91CF911F910F9108954F925F92EA
:1016E0006F927F928F929F92AF92BF92CF92DF9232
:1016F000EF92FF920F931F93CF93DF93CDB7DEB797
:1017000064970FB6F894DEBF0FBECDBFE3EFF1E0F4
:1017100080818E7F808381E00E9407100E94D90A19
:101720000F2EF4EF8F2EF1E09F2EF02D8E01055F2E
:101730001F4FCE0101967C010F2EFEEFAF2EF1E080
:10174000BF2EF02D9C01A801F40181919191DA0145
:101750008D939D93AD01D9018D939D939D01EA15C4
:10176000FB0599F760E273E080E00E943E0B8091F8
:10177000DB0184FF31C06E01B5E1CB0ED11C0F2E11
:10178000FBED6F2EF1E07F2EF02D0E94D90A27018C
:10179000A401F801DA012D913D91AD01C9016081EB
:1017A00071812617370710F431832083D2016D91A0
:1017B0007C9111976817790710F42D933C9332961A
:1017C000B2E04B0E511CEC15FD0521F70E94E5100F
:1017D000F301808184FDD9CFFFEF23EC89E0F15044
:1017E00020408040E1F700C0000060E476E081E046
:1017F0000E943E0B8091DB0184FF31C06E0195E1B8
:10180000C90ED11C0F2EFBED6F2EF1E07F2EF02DB7
:101810000E94D90A2701A401F801DA012D913D9116
:10182000AD01C901608171812617370710F431833A
:101830002083D2016D917C9111976817790710F47C
:101840002D933C933296B2E04B0E511CEC15FD05E6
:1018500021F70E94E510F301808184FDD9CFFFEFCD
:1018600023EC89E0F15020408040E1F700C0000007
:1018700060E273E080E00E943E0B8091DB0184FF18
:1018800031C06E0195E1C90ED11C0F2EFBED6F2EFC
:10189000F1E07F2EF02D0E94D90A2701A401F80162
:1018A000DA012D913D91AD01C90160817181261749
:1018B000370710F431832083D2016D917C91119709
:1018C0006817790710F42D933C933296B2E04B0ED3
:1018D000511CEC15FD0521F70E94E510F3018081F4
:1018E00084FDD9CF8AE00E94071089EC94E09F9391
:1018F0008F930E94FC0C0F900F90C12CD12C0F2EB7
:10190000F2EC8F2EF4E09F2EF02DD7012D913D911A
:101910007D01F801819191918F01820F931F96951E
:101920008795D5018D939D935D019F938F93DF9252
:10193000CF929F928F920E94FC0CBFEFCB1ADB0AD2
:101940000F900F900F900F900F900F90E5E0CE1634
:10195000D104D9F6FFEF23ED80E3F1502040804021
:10196000E1F700C000004AE050E060E070E08EEF78
:1019700091E00E946D19E3EFF1E080818160808346
:1019800064960FB6F894DEBF0FBECDBFDF91CF9146
:101990001F910F91FF90EF90DF90CF90BF90AF908D
:1019A0009F908F907F906F905F904F900895EF92EF
:1019B000FF920F931F93CF93DF93CDB7DEB78E01C6
:1019C000075F1F4FF801E190F1908F018CEE94E0DA
:1019D0000E94DB12A801B70180917D0290917E02E6
:1019E0000E94F0188AE00E94C612DF91CF911F91E9
:1019F0000F91FF90EF900895EF92FF920F931F9336
:101A0000CF93DF93CDB7DEB78E01075F1F4FF8018D
:101A1000E190F1908F0184EE94E00E94DB12A80126
:101A2000B70180917D0290917E020E94F0188AE0B9
:101A30000E94C612DF91CF911F910F91FF90EF90FE
:101A40000895EF92FF920F931F93CF93DF93CDB73B
:101A5000DEB78E01075F1F4FF801E190F1908F0113
:101A60008BED94E00E94DB12A801B70180917D020A
:101A700090917E020E94F0188AE00E94C612DF91C7
:101A8000CF911F910F91FF90EF900895813049F40D
:101A9000439A4498EBEDF1E080818C7F81608083F4
:101AA00013C0823049F4449A4398EBEDF1E0808111
:101AB0008C7F8260808308C088B1877E88B9EBED17
:101AC000F1E080818C7F8083613049F442985C9A98
:101AD000EBEDF1E08081837F846080830895623044
:101AE00049F4429A5C98EBEDF1E08081837F886055
:101AF0008083089542985C98EBEDF1E08081837FCC
:101B000080830895EBEDF1E0748363832581820F78
:101B1000911D27FD9A958F3F910541F03CF08FEF85
:101B200090E09093DD018093DC010BC099232CF0B1
:101B30009093DD018093DC0104C01092DD011092CE
:101B4000DC016F3F710541F03CF08FEF90E0909326
:101B5000DF018093DE0106C0772324F41092DF01B9
:101B60001092DE01EBEDF1E081818093B30083817F
:101B70008093B40008950F931F93CF93DF93082FA2
:101B8000EB01142F64E670E084E690E00E94820D81
:101B9000111143C001111FC061E082E00E94460D97
:101BA00060E070E080E890E00E94CE11EAE6F2E0AA
:101BB00080818068808380E80E9413128C179D07C3
:101BC000D0F360E080E00E94460DEAE6F2E080811A
:101BD0008F77808345C0013009F042C062E081E028
:101BE0000E94460D60E070E080E890E00E94CE1117
:101BF000EAE6F2E080818068808380E80E94131228
:101C00008C179D07D0F360E080E00E94460DEAE665
:101C1000F2E080818F77808323C0113009F50111B4
:101C200005C061E082E00E94460D06C0013021F44B
:101C300062E081E00E94460D0BED11E0F801808129
:101C40008061808360E070E080E890E00E94CE11C7
:101C5000EAE6F2E0808180688083F801D387C2875A
:101C6000DF91CF911F910F91089560E080E00E9475
:101C7000460DE0EBF0E08081836A8083E1EBF0E0E9
:101C80008081876080831092B3001092B40083EF4C
:101C90008093E0010895CF93DF93EB01F901128265
:101CA0001382148215821182108297838683718732
:101CB000608753874287BC016F5F7F4F8FEF9FE73D
:101CC0000E94C21675876487BE016F5F7F4F8FEFDA
:101CD0009FE30E94C216CB01770FAA0BBB0B86872E
:101CE0009787A08BB18BDF91CF910895EF92FF92F0
:101CF0000F931F93CF93DF938B01FA01861B970BF2
:101D0000248535852817390784F0319521953109C7
:101D1000821793076CF026813781829FE001839FB1
:101D2000D00D929FD00D112405C0CFEFDFE702C088
:101D3000C1E0D0E8092E000CAA0BBB0B42815381F5
:101D4000648175819A01AB01280F391F4A1F5B1FFF
:101D500086859785A089B18982179307A407B5075F
:101D60004CF482839383A483B5836FEF7FE380E099
:101D700090E01DC0B095A095909581959F4FAF4F75
:101D8000BF4F281739074A075B074CF482839383B8
:101D9000A483B58361E070EC8FEF9FEF08C02283CE
:101DA000338344835583A085B1850E94F616208134
:101DB0003181201B310BA285B3852A9F70012B9F97
:101DC000F00C3A9FF00C1124118300838E01DD0F7B
:101DD000220B330BAB01BC01400F511F621F731F5D
:101DE000C701FF0CAA0BBB0B480F591F6A1F7B1FB3
:101DF000DB01CA01772324F481589F4FAF4FBF4FB7
:101E0000689416F8B595A795979587951694D1F788
:101E1000813020E892072FEFA207B20724F481E077
:101E200090E8AFEFBFEF811520E89207A105B1055B
:101E300024F08FEF9FE7A0E0B0E0DF91CF911F91FA
:101E40000F91FF90EF900895FC011282138214828B
:101E5000158208952091550230915602232B81F06E
:101E600020915C0230915D02232B71F0209163027E
:101E700030916402232B61F022E030E0A2E00BC03D
:101E800020E030E0A0E007C0A1E021E030E003C0A6
:101E9000A2E022E030E0F901EE0FFF1FEE0FFF1F7E
:101EA000EE0FFF1FE21BF30BEB5AFD4F9183808374
:101EB0006F5F7F4F738362835583448316828A2FBB
:101EC0000895833020F081E0809354020895282FF4
:101ED00030E097E0899FF0011124EB5AFD4F80819B
:101EE0009181892B29F482E08093540281E001C022
:101EF00080E0F901EE0FFF1FEE0FFF1FEE0FFF1F37
:101F0000E21BF30BEB5AFD4F1182108213821282F7
:101F1000158214821682089580E00E94610F81E08C
:101F20000E94610F82E00E94610F10925402089596
:101F30001F93CF93DF93C5E5D2E010E08E81882315
:101F400069F0E881F98109958E8181508E838C81B9
:101F50009D81892B19F4812F0E94610F1F5F2796A5
:101F6000133061F7DF91CF911F910895E5E5F2E01D
:101F70002AE632E041E080819181892B89F08681D7
:101F800081110EC082819381019793838283892B73
:101F900039F4468384819581009711F0938382837D
:101FA0003796E217F30739F70895089508950895CD
:101FB000ECE7F0E09081907E8F71892B8083EAE7D7
:101FC000F0E0808180648083808186FDFDCF8091F8
:101FD000780090917900089582E00E94D80FA0E0E7
:101FE000B0E09C01AD01220F331F441F551FA8E82C
:101FF000B3E10E94EB16DC01CB01072E7AE0B69527
:10200000A795979587957A95D1F7702D089595B1F5
:10201000936095B9813011F429980895811102C017
:1020200028980895833019F485B18C7F85B9089577
:10203000833071F08F3F19F08130B9F410C02A98C5
:102040004598ECEEF1E080818460806180830895A2
:102050002A98ECEEF1E080818061808308954598B4
:10206000ECEEF1E08081846080830895833071F02C
:102070008F3F19F08130B9F410C02A9A459AECEEDE
:10208000F1E080818B7F8F7E808308952A9AECEE29
:10209000F1E080818F7E80830895459AECEEF1E037
:1020A00080818B7F80830895CF930E94EC0F909363
:1020B000EE018093ED0180399A4128F4ECEEF1E0D5
:1020C0008081886080838091EC0183FF50C0E09123
:1020D0001201F0911301099560E080E00E94460D25
:1020E00083E00E9436104698ECEEF1E080818E7F0E
:1020F00080838AE00E9407100E94EC0F9F938F93C9
:1021000085EF94E09F938F930E94210D0F900F9085
:102110000F900F90C4E181E00E9407108FEF93ECC5
:1021200029E0815090402040E1F700C000008AE0A3
:102130000E9407108FEF93EC29E0815090402040DF
:10214000E1F700C00000C15031F78FEF0E94361058
:102150008AE00E94071083B7817F846083BF83B7C2
:10216000816083BF889583B78E7F83BFF8CFCF917F
:102170000895E0911001F091110109950895809161
:10218000DB0184FF1CC08091EC0180FF18C080E857
:102190000E9413122091E5013091E6018217930706
:1021A00070F060E080E00E94460DEBEDF1E0808190
:1021B0008F7E8083EAE6F2E080818F778083E091F2
:1021C0000E01F0910F01099508950E9454100E948C
:1021D000B9100E94BF100895F89484B1876084B943
:1021E00087B18C6F87B98AB1806F8AB985B18861F0
:1021F00085B981E00E94181083E00E943610ECE758
:10220000F0E0808180648083EAE7F0E08081876885
:102210008083808180648083808186FDFDCF809172
:1022200078009091790084B5826084BD85B5836023
:1022300085BDEEE6F0E080818260808389EF87BD16
:102240000E94EC0FECEEF1E0928381831382148202
:102250001582168210821092F3010E942B0B469871
:102260008AE00E9407100E94350E0E946F0A80E1EA
:1022700090E00E94AD1280E091E090937E02809306
:102280007D020E948C0F789408951F920F920FB6D2
:102290000F9211242F933F934F935F936F937F93EC
:1022A0008F939F93AF93BF93EF93FF93ECEEF1E087
:1022B00083819481A581B6810196A11DB11D83837F
:1022C0009483A583B68380916A0280FF07C0EAE603
:1022D000F2E08181928101969283818380916A02EA
:1022E00081FF07C0EAE6F2E083819481019694833E
:1022F000838380916A0282FF07C0EAE6F2E085816B
:10230000968101969683858380916A0283FF07C038
:10231000EAE6F2E087819085019690878783809135
:102320006A0284FF07C0EAE6F2E0818592850196A1
:102330009287818780916A0285FF07C0EAE6F2E012
:102340008385948501969487838780916A0286FFAE
:1023500007C0EAE6F2E0858596850196968785872F
:1023600080916A0288233CF4EAE6F2E0878590894E
:102370000196908B87870E94B60FFF91EF91BF91D6
:10238000AF919F918F917F916F915F914F913F910D
:102390002F910F900FBE0F901F901895F8948830D2
:1023A000910539F148F482309105C9F084309105E6
:1023B000D9F00197B1F50EC08032910521F118F4E2
:1023C0004097E1F02EC08034910511F180389105DD
:1023D00021F127C070936C0260936B0222C070934E
:1023E0006E0260936D021DC07093700260936F0265
:1023F00018C0709372026093710213C070937402DC
:10240000609373020EC0709376026093750209C0E8
:10241000709378026093770204C070937A0260939D
:10242000790278940895F894883011F138F4823064
:10243000A9F08430C1F08130A1F50BC0803211F1D8
:1024400018F48031D1F02DC0803409F1803821F1A9
:1024500028C080916B0290916C0225C080916D0222
:1024600090916E0220C080916F02909170021BC00B
:10247000809171029091720216C0809173029091C6
:10248000740211C080917502909176020CC0809107
:1024900077029091780207C08091790290917A0238
:1024A00002C080E090E0789408951F920F920FB6DA
:1024B0000F9211242F938F939F93EF93FF9380910B
:1024C000C0002091C6008C71E0919801EF5FEF7120
:1024D00090919701E91739F0E0939801F0E0E55603
:1024E000FE4F208301C082E090919601892B80935A
:1024F0009601FF91EF919F918F912F910F900FBEB9
:102500000F901F9018951F920F920FB60F921124E3
:102510008F939F93EF93FF9390919A0180919901EC
:10252000981769F0E0919901EF5FEF71E0939901DD
:10253000F0E0E554FE4F80818093C60005C0E1ECD9
:10254000F0E080818F7D8083FF91EF919F918F914B
:102550000F900FBE0F901F90189510929A01109235
:102560009901109298011092970199231CF422E08E
:102570002093C00090789093C5008093C40088E9B0
:102580008093C10086E08093C200089520919A0153
:102590002F5F2F71909199012917E1F3E22FF0E05D
:1025A000E554FE4F808320939A01E1ECF0E08081B6
:1025B000806280830895CF93DF93EC012196FC0124
:1025C0008491882339F00E94C612FE0184912196DD
:1025D0008111F9CFDF91CF9108951F920F920FB61D
:1025E0000F9211242F938F939F93EF93FF938091DA
:1025F000C8002091CE008C71E0915301EF5FEF7124
:1026000090915201E91739F0E0935301F0E0EA5A52
:10261000FE4F208301C082E090915101892B80936D
:102620005101FF91EF919F918F912F910F900FBECC
:102630000F901F9018951F920F920FB60F921124B2
:102640008F939F93EF93FF93909155018091540145
:10265000981769F0E0915401EF5FEF71E093540136
:10266000F0E0EA58FE4F80818093CE0005C0E9EC8F
:10267000F0E080818F7D8083FF91EF919F918F911A
:102680000F900FBE0F901F901895A0E1B0E0EBE403
:10269000F3E10C94FE167C011B016A01FC01178218
:1026A0001682838181FF44C39E012F5F3F4F390112
:1026B000F7019381F10193FD859193FF81911F01B2
:1026C000882309F431C3853239F493FD859193FF52
:1026D00081911F01853239F4B70190E00E946C1896
:1026E00056016501E5CF10E0512C912CFFE1F91561
:1026F000D8F08B3279F038F4803279F08332A1F45B
:10270000F92DF0612EC08D3261F0803369F4292DEE
:1027100021602DC0392D3260932E892D8460982E32
:102720002AC0E92DE86015C097FC2DC020ED280FC8
:102730002A3088F496FE06C03AE0139F200D11243B
:10274000122F19C08AE0589E200D1124522EE92D17
:10275000E0629E2E10C08E3231F496FCE5C2F92D57
:10276000F0649F2E08C08C3621F4292D2068922E0B
:1027700002C0883641F4F10193FD859193FF819168
:102780001F018111B3CF9BEB980F933020F4992D4B
:102790009061805E07C09BE9980F933008F066C196
:1027A000992D9F7E96FF16E09F73992E853619F41A
:1027B0009064992E08C0863621F4392F3068932E04
:1027C00002C01111115097FE07C01C3350F444246D
:1027D0004394410E27E00BC0183038F027E017E093
:1027E00005C027E09CE3492E02C0212F412C560151
:1027F00084E0A80EB11CF601608171818281938111
:10280000042DA3010E9449176C01F981FC87F0FF98
:1028100002C0F3FF06C091FC06C092FE06C000E2B3
:1028200005C00DE203C00BE201C000E08C858C7096
:1028300019F001115AC29BC297FE10C04C0CFC85C6
:10284000F4FF04C08A81813309F44A94141474F5A6
:1028500028E0241578F588E0482E2CC096FC2AC084
:10286000812F90E08C159D059CF03CEFC3163FEF47
:10287000D30674F0892D8068982E0AC0E2E0F0E05B
:10288000EC0FFD1FE10FF11D8081803319F4115011
:102890001111F4CF97FE0EC044244394410E812FB2
:1028A00090E0C816D9062CF41C1904C044244394A3
:1028B00001C010E097FE06C01C141D0434F4C601CC
:1028C000019605C085E090E002C081E090E0011132
:1028D0000196112331F0212F30E02F5F3F4F820FFF
:1028E000931F252D30E08217930714F4581A01C066
:1028F000512C892D897049F4552039F0B70180E2B7
:1029000090E00E946C185A94F7CF002329F0B70189
:10291000802F90E00E946C1893FC09C0552039F07C
:10292000B70180E390E00E946C185A94F7CF97FEAD
:102930004CC04601D7FE02C0812C912CC6018819DB
:102940009909F301E80FF91FFE87ED879601241915
:102950003109388B2F87012F10E01195019511094E
:102960003FEF8316930629F4B7018EE290E00E94B0
:102970006C18C814D9044CF08F859889881599056E
:1029800024F4ED85FE85818101C080E3F1E08F1A9A
:1029900091082D853E852F5F3F4F3E872D878016FE
:1029A00091062CF0B70190E00E946C18D9CFC814A2
:1029B000D90441F49A81963320F4953319F43C8577
:1029C00034FF81E3B70190E04EC08A81813319F072
:1029D0009C859F7E9C87B70190E00E946C18111126
:1029E00005C094FC18C085E690E017C0B7018EE2E0
:1029F00090E00E946C181E5F82E001E0080FF30176
:102A0000E80FF11D8081B70190E00E946C18802FC3
:102A10000113F3CFE6CF85E490E0B7010E946C1874
:102A2000D7FC06C0C114D10441F4EC85E4FF05C015
:102A3000D194C194D1088DE201C08BE2B70190E03E
:102A40000E946C1880E32AE0C216D1042CF08F5F3C
:102A5000FAE0CF1AD108F7CFB70190E00E946C18C6
:102A6000B701C601C0960E946C1854C1833631F07C
:102A7000833779F0833509F056C020C0560132E023
:102A8000A30EB11CF6018081898301E010E063018F
:102A900012C05601F2E0AF0EB11CF601C080D18029
:102AA00096FE03C0612F70E002C06FEF7FEFC6019A
:102AB0000E9447188C01F92DFF7714C0560122E0BF
:102AC000A20EB11CF601C080D18096FE03C0612F1A
:102AD00070E002C06FEF7FEFC6010E942A188C01E0
:102AE000F92DF0689F2EF3FD1AC0852D90E0081790
:102AF0001907A8F4B70180E290E00E946C185A947C
:102B0000F4CFF60197FC859197FE81916F01B70193
:102B100090E00E946C1851105A940150110901154F
:102B2000110579F7F7C0843611F0893661F5560141
:102B300097FE09C024E0A20EB11CF60160817181EC
:102B4000828193810AC0F2E0AF0EB11CF601608170
:102B50007181072E000C880B990BF92DFF769F2EA3
:102B600097FF09C090958095709561957F4F8F4F25
:102B70009F4FF0689F2E2AE030E0A3010E94FF18CB
:102B8000C82EC6183FC0092D853721F40F7E2AE0D4
:102B900030E01DC0097F8F3691F018F4883559F068
:102BA000C3C0803719F0883711F0BEC0006104FF40
:102BB00009C0046007C094FE08C0066006C028E093
:102BC00030E005C020E130E002C020E132E05601F3
:102BD00007FF09C084E0A80EB11CF6016081718175
:102BE0008281938108C0F2E0AF0EB11CF6016081D2
:102BF000718180E090E0A3010E94FF18C82EC618E2
:102C00000F77902E96FE0BC0092D0E7FC11650F443
:102C100094FE0AC092FC08C0092D0E7E05C0DC2C73
:102C2000092D03C0DC2C01C0D12E04FF0DC0FE0114
:102C3000EC0DF11D8081803311F4097E09C002FF83
:102C400006C0D394D39404C0802F867809F0D3941F
:102C500003FD11C000FF06C01C2DD51480F4150D16
:102C60001D190DC0D51458F4B70180E290E00E9400
:102C70006C18D394F7CFD51410F45D1801C0512C03
:102C800004FF10C0B70180E390E00E946C1802FFBF
:102C900017C001FD03C088E790E002C088E590E01E
:102CA000B7010CC0802F867859F001FF02C08BE27B
:102CB00001C080E207FD8DE2B70190E00E946C1830
:102CC000C11638F4B70180E390E00E946C181150EF
:102CD000F7CFCA94F301EC0DF11D8081B70190E0AC
:102CE0000E946C18C110F5CF15C0F4E0F51560F521
:102CF00084E0581A93FE1FC0011127C02C8523FFC2
:102D00002AC00CE910E0392D3071932EF80184911E
:102D1000811124C0552009F4E4CCB70180E290E091
:102D20000E946C185A94F6CFF7018681978126C0CD
:102D30008FEF9FEF23C0B70180E290E00E946C18F4
:102D40005A945110F8CFD8CF512CB701802F90E072
:102D50000E946C18D3CF00EA10E0D5CF91108052BA
:102D6000B70190E00E946C180F5F1F4FCFCF23E098
:102D7000251510F483E0BDCF512CC0CF6096E2E161
:102D80000C941A1797FB072E16F4009407D077FDC2
:102D900009D00E94351707FC05D03EF49095819527
:102DA0009F4F0895709561957F4F0895EE0FFF1F17
:102DB0000590F491E02D0994A29FB001B39FC0014A
:102DC000A39F700D811D1124911DB29F700D811D57
:102DD0001124911D08950E94DC16A59F900DB49FAB
:102DE000900DA49F800D911D11240895B7FF0C94A0
:102DF000EB160E94EB16821B930B08952F923F92C5
:102E00004F925F926F927F928F929F92AF92BF92FA
:102E1000CF92DF92EF92FF920F931F93CF93DF93A6
:102E2000CDB7DEB7CA1BDB0B0FB6F894DEBF0FBE03
:102E3000CDBF09942A88398848885F846E847D8450
:102E40008C849B84AA84B984C884DF80EE80FD8052
:102E50000C811B81AA81B981CE0FD11D0FB6F894C8
:102E6000DEBF0FBECDBFED010895AA1BBB1B51E114
:102E700007C0AA1FBB1FA617B70710F0A61BB70BEA
:102E8000881F991F5A95A9F780959095BC01CD018F
:102E90000895283008F027E03327DA01990F311D13
:102EA00087FD916000966105710539F432602E5FEF
:102EB0003D9330E32A95E1F708959F3F30F0803845
:102EC0007105610509F03C5F3C5F3D93913008F06E
:102ED0008068911DDF93CF931F930F93FF92EF9222
:102EE000192F987F9695E92F96959695E90FFF27CC
:102EF000E250FF4F99273327EE24FF24A701E70173
:102F000005900894079428F4360FE71EF81E491F11
:102F1000511D660F771F881F991F0694A1F7059012
:102F2000079428F4E70EF81E491F561FC11D770F9E
:102F3000881F991F661F0694A1F70590079428F42F
:102F4000F80E491F561FC71FD11D880F991F661FF6
:102F5000771F0694A1F70590079420F4490F561F98
:102F6000C71FD81F990F661F771F881F0694A9F7E0
:102F700084911095177041F0D695C7955795479550
:102F8000F794E7941A95C1F7E4EAF0E06894159095
:102F9000159135916591959105907FE27395E118B2
:102FA000F10A430B560BC90BD009C0F7E10CF11E17
:102FB000431F561FC91FD01D7EF4703311F48A952C
:102FC000E6CFE894015030F0080F0AF4002702170A
:102FD00008F4202F2395022F7A3328F079E37D938C
:102FE0002A95E9F710C07D932A9589F6069497955E
:102FF0006795379517951794E118F10A430B560B0F
:10300000C90BD00998F023957E9173957A3308F017
:1030100070E37C932013B8F77E9170617D9330F05C
:10302000839571E37D9370E32A95E1F71124EF9086
:10303000FF900F911F91CF91DF91992787FD909578
:103040000895FB01DC0102C005900D9241505040F3
:10305000D8F70895FC010590615070400110D8F731
:10306000809590958E0F9F1F0895FB01DC010D90B8
:103070000020E9F7119701900D920020E1F70895E3
:10308000FB01DC0101900D920020E1F70895FC01A5
:103090006150704001900110D8F7809590958E0F87
:1030A0009F1F0895FB0151915523A9F0BF01DC0139
:1030B0004D9145174111E1F759F4CD0101900020E0
:1030C00049F04D9140154111C9F3FB014111EFCF7A
:1030D00081E090E0019708950F931F93CF93DF93C2
:1030E000FB01238121FD03C08FEF9FEF2CC022FF46
:1030F00016C046815781248135814217530744F415
:10310000A081B1819D012F5F3F4F318320838C933C
:10311000268137812F5F3F4F3783268314C08B0171
:10312000EC01FB010084F185E02D0995892BE1F686
:10313000D80116968D919C911797019617969C939E
:103140008E931697CE01DF91CF911F910F91089525
:10315000A0E0B0E0EEEAF8E10C940C17AE01495F94
:103160005F4FDA016D917D91AD010BE712E0F8013F
:1031700082819381DC0113962C911397286013961A
:103180002C930E944513D8011296ED91FC91139750
:103190002381277F2383E4E00C942817AEE0B0E07E
:1031A000E4EDF8E10C940C170D891E898EE08C83F8
:1031B0001A8309838FEF9FE79E838D83AE01475E5D
:1031C0005F4F6F89788DCE0101960E944513EF8184
:1031D000F885E00FF11F10822E96E4E00C9428177A
:1031E000CF93DF93EC018B8188608B83CE010E94AB
:1031F00045132B81277F2B83DF91CF910895FA010F
:10320000AA27283051F1203181F1E8946F936E7F25
:103210006E5F7F4F8F4F9F4FAF4FB1E03ED0B4E016
:103220003CD0670F781F891F9A1FA11D680F791F57
:103230008A1F911DA11D6A0F711D811D911DA11D68
:1032400020D009F468943F912AE0269F1124301978
:10325000305D3193DEF6CF010895462F4770405D13
:103260004193B3E00FD0C9F7F6CF462F4F70405DC2
:103270004A3318F0495D31FD4052419302D0A9F71D
:10328000EACFB4E0A6959795879577956795BA9517
:10329000C9F700976105710508959B01AC010A2EDD
:1032A00006945795479537952795BA95C9F7620FB4
:1032B000731F841F951FA01D0895DC01CB01FC0125
:1032C000F999FECF06C0F2BDE1BDF89A319600B47F
:1032D0000D9241505040B8F70895DC01CB0103C076
:1032E0002D910E94781941505040D0F70895262F13
:1032F000F999FECF1FBA92BD81BD20BD0FB6F894DB
:0E330000FA9AF99A0FBE01960895F894FFCF3D
:10330E000000000200000000C61200000000D70FEF
:10331E00D60FD50F00000000DB0234035F04260435
:10332E00B2044A04C60245030000B302F806540371
:10333E002A076003A8070000A102E7039805E50429
:0A334E0064055A066A03A203D603C1
:00000001FF
