:100000000C94BF000C94CC0B0C94F80B0C94DC00FB
:100010000C94DC000C94DC000C94DC000C94DC00F0
:100020000C94DC000C94DC000C94DC000C94DC00E0
:100030000C94DC000C94DC000C94DC000C94DC00D0
:100040000C94490A0C94DC000C94DC000C94DC0049
:100050000C94C40A0C94F20A0C94DC000C94DC009E
:100060000C94DC000C94DC000C94DC000C94DC00A0
:100070000C946B0B0C94990B0C94DC006E059E0594
:10008000AE05BE058E05CE05DE057E050A0A507258
:100090006F6772616D6D2054696C6520646574656D
:1000A0006374696F6E2E000A44727565636B652018
:1000B00053746172746B6E6F706620756D207A7503
:1000C000207374617274656E2E000A4472697665DD
:1000D00020466F7277617264000A4D6F76653A2030
:1000E000000A4572726F722073746174652E000A83
:1000F000426174743A000A5061747465726E3A20F9
:10010000000A496E74657273656374696F6E3A2094
:10011000004465616420456E640046696E697368D9
:1001200000466F757220576179004C656674005205
:100130006967687400542D5761790053747261695E
:10014000676874204C6566740053747261696768EF
:100150007420526967687400556E6B6E6F776E001D
:100160000A4C6F772042617474657279202D3E20AD
:10017000676F696E67205374616E64627900112441
:100180001FBECFEFD0E1DEBFCDBF11E0A0E0B1E0F8
:10019000EEE6F2E202C005900D92A233B107D9F764
:1001A00022E0A2E3B1E001C01D92A031B207E1F765
:1001B0000E9492040C9435110C940000CF93DF93AD
:1001C00000D000D000D0CDB7DEB78C837E836D83A6
:1001D0008C81882F90E0880F991F885F9E4FFC01CB
:1001E000208131818D819E81F901099589839C81CE
:1001F0008981981781F18C81882F90E0880F991F51
:10020000880F991F885E9E4FFC01808191819B839E
:100210008A838A819B81892B31F08D819E812A81FD
:100220003B81F90109958981882F90E0880F991FFA
:10023000880F991F8A5E9E4FFC01808191819B836C
:100240008A838A819B81892B31F08D819E812A81CD
:100250003B81F9010995898126960FB6F894DEBF96
:100260000FBECDBFDF91CF910895CF93DF93CDB770
:10027000DEB78091320163E371E00E94DE0080937B
:1002800032010000DF91CF910895CF93DF9300D02A
:10029000CDB7DEB79A83898389819A81FC01108268
:1002A00088E290E028E230E0F90120812F7BFC0118
:1002B00020832DEE31E040E450E060E070E080E427
:1002C00090E00E94880781E00E94DE0881E00F90A4
:1002D0000F90DF91CF910895CF93DF9300D0CDB7EA
:1002E000DEB79A8389838CE890E00E94590B87EAF5
:1002F00090E00E94590B2DEE31E040E450E060E0C8
:1003000070E080E490E00E94880710920102109251
:10031000000281E00E94DE080E94AB0800000F90FE
:100320000F90DF91CF910895CF93DF9300D01F926C
:10033000CDB7DEB79B838A8381E089838091D60124
:100340008170882341F083E00E949A088091FF0128
:1003500081608093FF0180910002909101028D3DA8
:10036000954010F082E0898389810F900F900F9063
:10037000DF91CF910895CF93DF9300D0CDB7DEB753
:100380009A8389838AE00E949A088091FF018E7F78
:100390008093FF0100000F900F90DF91CF9108959F
:1003A000CF93DF9300D0CDB7DEB79A83898361E026
:1003B00081E00E945D0660E570E080E590E00E94CB
:1003C00099068AEC90E00E94590B8DEE91E00E9414
:1003D000610889819A81FC01108281E00E949A085B
:1003E0008091FF0181608093FF0100000F900F90CA
:1003F000DF91CF910895CF93DF93CDB7DEB72B97E1
:100400000FB6F894DEBF0FBECDBF9B878A8782E010
:1004100089838091000290910102C297C8F18A8578
:100420009B85FC0180818470882391F50E944C0695
:100430009B838A8310920102109200028A819B8121
:100440004DEE51E0BC0180E090E00E94B3079D8337
:100450008C838C819D8195958795959587959D83B6
:100460008C838C819D81805B9F4F9F838E8320E551
:1004700030E08C819D81A901481B590BCA019987E5
:100480008887288539858E819F81B9010E949906C8
:100490008091E801882321F48091EC01882349F0C0
:1004A00083E089838A859B85FC0120812460FC018F
:1004B00020838A859B85FC0180818470882339F59F
:1004C0009091E80181E08927882309F19091E90161
:1004D00081E089278823D9F09091EA0181E089277A
:1004E0008823A9F09091EB0181E08927882379F096
:1004F0009091EC0181E08927882349F08A859B85CA
:10050000FC0120812460FC01208383E089838981B0
:100510002B960FB6F894DEBF0FBECDBFDF91CF9103
:100520000895CF93DF9300D0CDB7DEB79A83898348
:100530008AE00E949A0860E570E080E590E00E9401
:1005400099068091FF018E7F8093FF0100000F903C
:100550000F90DF91CF910895CF93DF9300D0CDB767
:10056000DEB79A8389831092010210920002809173
:10057000FF0181608093FF0110920302109202023A
:100580008091FF018D7F8093FF0189819A81FC0119
:10059000108280E00E949A0800000F900F90DF9177
:1005A000CF910895CF93DF9300D01F92CDB7DEB7E0
:1005B0009B838A8383E089838A819B81FC0180817C
:1005C00088708823A9F480910002909101028436FA
:1005D000910570F00E949D04282F8A819B81FC0167
:1005E00023838A819B81FC0120812860FC01208378
:1005F0008A819B81FC01808180718823A9F480918C
:100600000002909101028C32914070F00E949D0492
:10061000282F8A819B81FC0124838A819B81FC0194
:1006200020812061FC0120838091000290910102D1
:100630008835924048F060E080E00E945D0680913D
:10064000FF0182608093FF0180910202909103027A
:10065000853F914010F084E0898389810F900F904D
:100660000F90DF91CF910895CF93DF9300D0CDB756
:10067000DEB79A8389838091FF018E7F8093FF018B
:10068000109201021092000200000F900F90DF9173
:10069000CF910895CF93DF9300D0CDB7DEB79A8383
:1006A00089838AE00E949A0800000F900F90DF91E2
:1006B000CF910895CF93DF9300D01F92CDB7DEB7CF
:1006C0009B838A8385E089838A819B81FC012481C5
:1006D0008A819B81FC018381622F0E94EE04282F76
:1006E0008A819B81FC0125838A819B81FC01858114
:1006F000813029F48A819B812CE4FC0126838A8144
:100700009B81FC018581823029F48A819B8122E5CD
:10071000FC0126838A819B81FC0183810E94C8049D
:100720008A819B81FC0184810E94C8048A819B810B
:10073000FC0185810E94490589810F900F900F90DF
:10074000DF91CF910895CF93DF9300D0CDB7DEB77F
:100750009A8389838091FF018E7F8093FF0100003F
:100760000F900F90DF91CF910895CF93DF9300D03A
:10077000CDB7DEB79A83898389ED90E00E94590B4B
:1007800089819A81FC0186810E94350B89819A8139
:10079000FC0186818C3439F441E06AE570E080E048
:1007A0000E94D2060CC089819A81FC018681823523
:1007B00031F441E06AE570E081E00E94D206809168
:1007C000FF018E7F8093FF011092010210920002C0
:1007D00000000F900F90DF91CF910895CF93DF939A
:1007E00000D01F92CDB7DEB79B838A8385E08983D3
:1007F0008091C5018071882329F48091FF01816077
:100800008093FF018091000290910102843F91400A
:1008100010F086E0898389810F900F900F90DF910F
:10082000CF910895CF93DF9300D0CDB7DEB79A83F1
:1008300089838091FF018E7F8093FF0100000F90DC
:100840000F90DF91CF910895CF93DF9300D0CDB774
:10085000DEB79A83898388E290E028E230E0F901EC
:1008600020812F7BFC01208381EE90E00E94590BB8
:100870008FEE90E00E94590B8091D7019091D801A2
:100880000E9434098091FF0181608093FF011092E2
:1008900001021092000200000F900F90DF91CF91A3
:1008A0000895CF93DF9300D000D0CDB7DEB79C83FF
:1008B0008B8386E08A83198223C080910002909105
:1008C0000102853F9140E0F0998181E08927882FDE
:1008D00090E021E0892B09F420E029838981882395
:1008E00041F081E00E949A080E949D040E94C80481
:1008F00003C08AE00E949A0810920102109200023E
:1009000083E290E0FC018081882F90E0807199273C
:10091000892B99F68A810F900F900F900F90DF919D
:10092000CF910895CF93DF93CDB7DEB70E94FF0933
:100930000E94F6090E943501FBCFCF93DF9300D0D0
:10094000CDB7DEB719821A821AC08A81882F90E04B
:1009500088519E4FFC018081882371F08A81282F65
:1009600030E081E090E002C0880F991F2A95E2F7FD
:10097000982F8981892B89838A818F5F8A838A81D5
:10098000853018F389810F900F90DF91CF910895F2
:10099000CF93DF9300D000D000D0CDB7DEB78E83E9
:1009A00086EF90E00E94590B8E81882F90E042E004
:1009B00050E09E012F5F3F4FB9010E940B0E1E8237
:1009C000CE0101960E944A0B000026960FB6F894BD
:1009D000DEBF0FBECDBFDF91CF910895CF93DF93E0
:1009E00000D01F92CDB7DEB78A836B838A81882FB0
:1009F00090E081709927892B51F08A81882F90E0AF
:100A000080719927892B19F083E0898315C08A8129
:100A1000882F90E081709927892B19F081E08983D4
:100A20000BC08A81882F90E080719927892B19F05B
:100A300082E0898301C019828981833051F48B81DE
:100A4000882F90E08E709927892B19F084E0898394
:100A500019C08981813051F48B81882F90E08E708C
:100A60009927892B19F085E089830CC08981823010
:100A700049F48B81882F90E08E709927892B11F093
:100A800086E0898389810F900F900F90DF91CF913D
:100A90000895CF93DF93CDB7DEB765970FB6F8947F
:100AA000DEBF0FBECDBF8D8B81E091E00E94590B60
:100AB0008D89882F90E0092E000CAA0BBB0B40E01B
:100AC00050E027E030E0841B950B2817390708F425
:100AD00085C0825C9F4FFC010C94CF0D81E191E0B9
:100AE000292F2F938F93CE0101969F938F930E946E
:100AF0003B0E0F900F900F900F9080C08AE191E015
:100B0000292F2F938F93CE0101969F938F930E944D
:100B10003B0E0F900F900F900F9070C081E291E00C
:100B2000292F2F938F93CE0101969F938F930E942D
:100B30003B0E0F900F900F900F9060C08AE291E0F3
:100B4000292F2F938F93CE0101969F938F930E940D
:100B50003B0E0F900F900F900F9050C08FE291E0DE
:100B6000292F2F938F93CE0101969F938F930E94ED
:100B70003B0E0F900F900F900F9040C085E391E0D7
:100B8000292F2F938F93CE0101969F938F930E94CD
:100B90003B0E0F900F900F900F9030C08BE391E0C1
:100BA000292F2F938F93CE0101969F938F930E94AD
:100BB0003B0E0F900F900F900F9020C089E491E0B2
:100BC000292F2F938F93CE0101969F938F930E948D
:100BD0003B0E0F900F900F900F9010C088E591E0A2
:100BE000292F2F938F93CE0101969F938F930E946D
:100BF0003B0E0F900F900F900F900000CE010196CA
:100C00000E944A0B000065960FB6F894DEBF0FBE37
:100C1000CDBFDF91CF910895EF92FF920F931F9375
:100C2000CF9380E00E94DE088FE79CE00197F1F708
:100C300000C000000EED11E07801C3E08C2F0E948F
:100C40006B08D7018D939D937D01CF5FC830B1F7BD
:100C500080E00E940909EDEDF1E081859285278110
:100C60003085328721879087878322EE31E041E00B
:100C7000D8018D919D918D018B38924014F043875E
:100C800001C013863196E217F30791F7CF911F91B8
:100C90000F91FF90EF900895EDEDF1E02181328109
:100CA00083819481820F931F27813085821B930B50
:100CB00021853285821B930B0895813049F4439A34
:100CC0004498E5ECF1E080818C7F8160808313C0E3
:100CD000823049F4449A4398E5ECF1E080818C7FBE
:100CE0008260808308C088B1877E88B9E5ECF1E036
:100CF00080818C7F8083613049F442985C9AE5EC76
:100D0000F1E08081837F846080830895623049F4BC
:100D1000429A5C98E5ECF1E08081837F8860808373
:100D2000089542985C98E5ECF1E08081837F8083B0
:100D30000895E5ECF1E0748363832581820F911DB2
:100D400027FD9A958F3F910541F03CF08FEF90E0A1
:100D50009093C7018093C6010BC099232CF0909308
:100D6000C7018093C60104C01092C7011092C6014A
:100D70006F3F710541F03CF08FEF90E09093C90117
:100D80008093C80106C0772324F41092C901109201
:100D9000C801E5ECF1E081818093B3008381809309
:100DA000B4000895CF92DF92EF92FF920F931F93BA
:100DB000CF93DF93082F142FC5ECD1E080E090E0B3
:100DC0000E94C00C2C853D854E855F850E944E0D8E
:100DD0006B017C01688970E080E090E00E94C20CA9
:100DE0009B01AC01C701B6010E94250C0E94910C29
:100DF0006B017C01EB016AE570E08AE590E00E94FE
:100E0000990611113CC001111CC061E082E00E94F2
:100E10005D06EFEFF1E0108A17868081806880839D
:100E2000F8948785908978948C179D07C8F360E0C3
:100E300080E00E945D06EFEFF1E080818F77808394
:100E40003DC00130D9F562E081E00E945D06EFEF20
:100E5000F1E0108A1786808180688083F894878506
:100E6000908978948C179D07C8F360E080E00E9419
:100E70005D06EFEFF1E080818F7780831FC0113036
:100E8000E9F4011105C061E082E00E945D0606C040
:100E9000013021F462E081E00E945D06E5ECF1E0C2
:100EA000808180618083AFEFB1E01C961C921E921E
:100EB0001B978C9180628C93D386C286DF91CF91F1
:100EC0001F910F91FF90EF90DF90CF90089560E019
:100ED00080E00E945D06E0EBF0E08081836A808321
:100EE000E1EBF0E08081826080831092B300109289
:100EF000B400E5ECF1E083E393E3ABEAB0E484878C
:100F00009587A687B78784E6808B83EF85830895CE
:100F1000CF93DF93EB01F9011282138214821582C1
:100F200011821082978386837187608753874287F7
:100F3000BC016F5F7F4F8FEF9FE70E94BB0D7587EE
:100F40006487BE016F5F7F4F8FEF9FE30E94BB0DF1
:100F5000CB01770FAA0BBB0B86879787A08BB18B32
:100F6000DF91CF910895EF92FF920F931F93CF934C
:100F7000DF938B01FA01861B970B24853585281793
:100F8000390784F0319521953109821793076CF068
:100F900026813781829FE001839FD00D929FD00DE3
:100FA000112405C0CFEFDFE702C0C1E0D0E8092E71
:100FB000000CAA0BBB0B42815381648175819A019D
:100FC000AB01280F391F4A1F5B1F86859785A089B3
:100FD000B18982179307A407B5074CF482839383E2
:100FE000A483B5836FEF7FE380E090E01DC0B095F0
:100FF000A095909581959F4FAF4FBF4F2817390708
:101000004A075B074CF482839383A483B58361E032
:1010100070EC8FEF9FEF08C02283338344835583A6
:10102000A085B1850E94EF0D20813181201B310BFD
:10103000A285B3852A9F70012B9FF00C3A9FF00C7C
:101040001124118300838E01DD0F220B330BAB01C2
:10105000BC01400F511F621F731FC701FF0CAA0B79
:10106000BB0B480F591F6A1F7B1FDB01CA01772387
:1010700024F481589F4FAF4FBF4F689416F8B59531
:10108000A795979587951694D1F7813020E8920718
:101090002FEFA207B20724F481E090E8AFEFBFEF93
:1010A000811520E89207A105B10524F08FEF9FE795
:1010B000A0E0B0E0DF91CF911F910F91FF90EF90F2
:1010C0000895FC01128213821482158208950895F6
:1010D000089508950895ECE7F0E09081907E8F7177
:1010E000892B8083EAE7F0E08081806480838081BF
:1010F00086FDFDCF8091780090917900089582E07F
:101100000E946B08A0E0B0E09C01AD01220F331FEC
:10111000441F551FA8E8B3E10E94E40DDC01CB0198
:10112000072E7AE0B695A795979587957A95D1F78A
:10113000702D089595B1936095B9813011F4299877
:101140000895811102C028980895833019F485B15B
:101150008C7F85B908950F931F93CF93DF93EFEFA3
:10116000F1E080818160808310E0EF0101E010C038
:1011700089819A81853F914058F0102721F080E0C5
:101180000E949A0803C08AE00E949A081A82198273
:101190001C99EECFE6EDF1E0808181608083EFEF76
:1011A000F1E01282118280818E7F80838AE00E942A
:1011B0009A08DF91CF911F910F910895813011F11D
:1011C000D0F0833089F08F3F19F52A98479A4598D7
:1011D000E6EDF1E08081846080618083EDEDF1E0F7
:1011E00080818260808308952A98E6EDF1E0808115
:1011F000806180830895479AEDEDF1E080818260FF
:10120000808308954598E6EDF1E0808184608083D5
:101210000895813011F1D0F0833089F08F3F19F5B6
:101220002A9A4798459AE6EDF1E080818B7F8F7E80
:101230008083EDEDF1E080818D7F808308952A9A8F
:10124000E6EDF1E080818F7E808308954798EDED93
:10125000F1E080818D7F80830895459AE6EDF1E08D
:1012600080818B7F80830895CF93DF93CDB7DEB7E6
:101270002A970FB6F894DEBF0FBECDBF4AE0BE017D
:101280006F5F7F4F0E94160ECE0101960E944A0B9F
:101290002A960FB6F894DEBF0FBECDBFDF91CF9177
:1012A00008958091D60180FF07C00E940C06E0914E
:1012B0000601F091070109950895CF93EFEFF1E052
:1012C00080818064808385859685853F914090F0FC
:1012D00010920D0210920C020E947F089093D80188
:1012E0008093D70180399A4128F4E6EDF1E08081BE
:1012F000886080838091D60183FF49C0E09104011A
:10130000F0910501099560E080E00E945D0683E0B0
:101310000E94090980E00E9409094698E6EDF1E083
:1013200080818E7F80838AE00E949A0880E691E027
:101330000E94590BC4E181E00E949A088FEF93EC60
:1013400029E0815090402040E1F700C000008AE091
:101350000E949A088FEF93EC29E081509040204042
:10136000E1F700C00000C15031F78FEF0E9409097A
:101370008AE00E949A0883B7817F846083BF83B725
:10138000816083BF889583B78E7F83BFF8CFCF916D
:101390000895E0910201F09103010995089580916B
:1013A000C50184FF1DC08091D60180FF19C0209126
:1013B0000A0230910B028091CF019091D001281741
:1013C000390770F060E080E00E945D06E5ECF1E036
:1013D00080818F7E8083EFEFF1E080818F7D80833D
:1013E000E0910001F0910101099508950E945D09C5
:1013F0000E94C9090E9451090E94CF090895F894DA
:1014000084B1876084B987B18C6F87B98AB1806FE6
:101410008AB985B1886185B9ECE7F0E080818064A4
:101420008083EAE7F0E08081876880838081806440
:101430008083808186FDFDCF809178009091790036
:1014400084B5826084BD85B5836085BDEEE6F0E03D
:1014500080818260808389EF87BD0E947F08E6EDEE
:10146000F1E09283818313821482158216821082A6
:101470008FEF0E94090946988AE00E949A080E940C
:1014800067070E94C30B80E190E00E941C0B7894D8
:1014900008951F920F920FB60F9211248F939F936E
:1014A000AF93BF93EF93FF93E6EDF1E083819481D7
:1014B000A581B6810196A11DB11D83839483A58367
:1014C000B6838091FF0180FF07C0EFEFF1E08181DB
:1014D00092810196928381838091FF0181FF07C0F1
:1014E000EFEFF1E08381948101969483838380916F
:1014F000FF0182FF07C0EFEFF1E085819681019641
:10150000968385838091FF0183FF07C0EFEFF1E0B1
:10151000878190850196908787838091FF0184FF62
:1015200007C0EFEFF1E08185928501969287818770
:101530008091FF0185FF07C0EFEFF1E0838594857F
:101540000196948783878091FF0186FF07C0EFEFA4
:10155000F1E0858596850196968785878091FF01C4
:1015600088233CF4EFEFF1E0878590890196908B1A
:101570008787FF91EF91BF91AF919F918F910F90CE
:101580000FBE0F901F9018951F920F920FB60F92DB
:1015900011242F938F939F93EF93FF938091C0001B
:1015A0002091C6008C71E0918201EF5FEF71909104
:1015B0008101E91739F0E0938201F0E0EB57FE4F2B
:1015C000208301C082E090918001892B809380016B
:1015D000FF91EF919F918F912F910F900FBE0F90E0
:1015E0001F9018951F920F920FB60F9211248F9390
:1015F0009F93EF93FF9390918401809183019817BB
:1016000069F0E0918301EF5FEF71E0938301F0E017
:10161000EB55FE4F80818093C60005C0E1ECF0E001
:1016200080818F7D8083FF91EF919F918F910F90AB
:101630000FBE0F901F901895109284011092830195
:10164000109282011092810199231CF422E02093D0
:10165000C00090789093C5008093C40088E980937F
:10166000C10086E08093C2000895209184012F5F1D
:101670002F71909183012917E1F3E22FF0E0EB55F0
:10168000FE4F808320938401E1ECF0E08081806252
:1016900080830895CF93DF93EC018881882331F014
:1016A00021960E94350B89918111FBCFDF91CF915B
:1016B0000895CF93DF93EC012196FC018491882358
:1016C00039F00E94350BFE01849121968111F9CFEA
:1016D000DF91CF9108951F920F920FB60F921124B0
:1016E0002F938F939F93EF93FF938091C800209146
:1016F000CE008C71E0913D01EF5FEF7190913C0164
:10170000E91739F0E0933D01F0E0E05CFE4F208303
:1017100001C082E090913B01892B80933B01FF91B6
:10172000EF919F918F912F910F900FBE0F901F906F
:1017300018951F920F920FB60F9211248F939F93BB
:10174000EF93FF9390913F0180913E01981769F0CC
:10175000E0913E01EF5FEF71E0933E01F0E0E05A6F
:10176000FE4F80818093CE0005C0E9ECF0E08081DF
:101770008F7D8083FF91EF919F918F910F900FBE8E
:101780000F901F901895E9E6F0E0808185608083D6
:101790008DB383608DBB08951F920F920FB60F9289
:1017A00011248F939F93EF93FF938091D60184FF31
:1017B00016C08091C5018370813041F4E5ECF1E001
:1017C0008681978101969783868309C0823039F498
:1017D000E5ECF1E086819781019797838683FF91FD
:1017E000EF919F918F910F900FBE0F901F901895C2
:1017F0001F920F920FB60F9211248F939F93EF9326
:10180000FF938091D60184FF16C08091C5018C7032
:10181000843041F4E5ECF1E0808591850196918773
:10182000808709C0883039F4E5ECF1E08085918546
:10183000019791878087FF91EF919F918F910F90F2
:101840000FBE0F901F9018955058BB27AA270E94D3
:101850003C0C0C94140D0E94060D38F00E940D0DE6
:1018600020F039F49F3F19F426F40C94030D0EF484
:10187000E095E7FB0C94FD0CE92F0E94250D58F331
:10188000BA17620773078407950720F079F4A6F565
:101890000C94470D0EF4E0950B2EBA2FA02D0B01E2
:1018A000B90190010C01CA01A0011124FF27591BA5
:1018B00099F0593F50F4503E68F11A16F040A22FAB
:1018C000232F342F4427585FF3CF4695379527951C
:1018D000A795F0405395C9F77EF41F16BA0B620B1B
:1018E000730B840BBAF09150A1F0FF0FBB1F661F62
:1018F000771F881FC2F70EC0BA0F621F731F841FA5
:1019000048F4879577956795B795F7959E3F08F0CA
:10191000B0CF9395880F08F09927EE0F979587958C
:1019200008950E942D0D88F09F5798F0B92F9927A0
:10193000B751B0F0E1F0660F771F881F991F1AF0BA
:10194000BA95C9F714C0B13091F00E94470DB1E0CB
:1019500008950C94470D672F782F8827B85F39F0CA
:10196000B93FCCF3869577956795B395D9F73EF453
:1019700090958095709561957F4F8F4F9F4F0895FB
:10198000E89409C097FB3EF4909580957095619519
:101990007F4F8F4F9F4F9923A9F0F92F96E9BB27CF
:1019A0009395F695879577956795B795F111F8CF4B
:1019B000FAF4BB0F11F460FF1BC06F5F7F4F8F4FB6
:1019C0009F4F16C0882311F096E911C0772321F0AC
:1019D0009EE8872F762F05C0662371F096E8862F44
:1019E00070E060E02AF09A95660F771F881FDAF79B
:1019F000880F9695879597F9089597F99F6780E8DE
:101A000070E060E008959FEF80EC089500240A9450
:101A10001616170618060906089500240A941216C9
:101A20001306140605060895092E0394000C11F4FC
:101A3000882352F0BB0F40F4BF2B11F460FF04C0A9
:101A40006F5F7F4F8F4F9F4F089557FD9058440F02
:101A5000551F59F05F3F71F04795880F97FB991F0D
:101A600061F09F3F79F087950895121613061406CA
:101A7000551FF2CF4695F1DF08C016161706180657
:101A8000991FF1CF86957105610508940895E89432
:101A9000BB2766277727CB0197F908950E94610D30
:101AA0000C94140D0E94060D38F00E940D0D20F0CC
:101AB000952311F00C94FD0C0C94030D11240C943F
:101AC000480D0E94250D70F3959FC1F3950F50E0CE
:101AD000551F629FF001729FBB27F00DB11D639FE0
:101AE000AA27F00DB11DAA1F649F6627B00DA11D86
:101AF000661F829F2227B00DA11D621F739FB00D2C
:101B0000A11D621F839FA00D611D221F749F33279B
:101B1000A00D611D231F849F600D211D822F762F34
:101B20006A2F11249F5750409AF0F1F088234AF011
:101B3000EE0FFF1FBB1F661F771F881F915050407D
:101B4000A9F79E3F510580F00C94FD0C0C94480DB4
:101B50005F3FE4F3983ED4F3869577956795B79504
:101B6000F795E7959F5FC1F7FE2B880F911D96951E
:101B7000879597F9089597FB072E16F4009407D0E0
:101B800077FD09D00E94F70D07FC05D03EF4909533
:101B900081959F4F0895709561957F4F0895EE0F41
:101BA000FF1F0590F491E02D0994A29FB001B39F0F
:101BB000C001A39F700D811D1124911DB29F700D56
:101BC000811D1124911D08950E94D50DA59F900D92
:101BD000B49F900DA49F800D911D11240895B7FF0F
:101BE0000C94E40D0E94E40D821B930B0895AA1B34
:101BF000BB1B51E107C0AA1FBB1FA617B70710F0F8
:101C0000A61BB70B881F991F5A95A9F78095909529
:101C1000BC01CD0108954532510520F4423010F049
:101C20000C94160EFB011082CB010895BB274A309D
:101C300031F4992322F4BDE2909581959F4F0C9445
:101C4000220EBB27FB015527AA27880F991FAA1F21
:101C5000A41710F0A41B83955051B9F7A05DAA33C7
:101C600008F0A95DA193009779F7B111B193119292
:101C7000CB010C945410AEE0B0E0E1E4FEE00C9433
:101C80000C110D891E898EE08C831A8309838FEFD6
:101C90009FE79E838D83AE01475E5F4F6F89788D8E
:101CA000CE0101960E945D0EEF81F885E00FF11FD5
:101CB00010822E96E4E00C942811ABE0B0E0E3E64D
:101CC000FEE00C94FE106C017B018A01FC0117827E
:101CD0001682838181FFCCC1CE0101963C01F601C1
:101CE0009381F70193FD859193FF81917F01882373
:101CF00009F4BAC1853239F493FD859193FF81913E
:101D00007F01853229F4B60190E00E946410E7CF8C
:101D1000912C212C312CFFE1F315D8F08B3279F086
:101D200038F4803279F08332A1F4232D20611DC074
:101D30008D3261F0803369F4232D216016C0832D2C
:101D40008260382EE32DE4603E2E2AC0F32DF86029
:101D50001DC037FC2DC020ED280F2A3040F08E32F8
:101D6000B9F436FC81C1232D2064322E19C036FE11
:101D700006C08AE0989E200D1124922E11C0EAE040
:101D80002E9E200D1124222EF32DF0623F2E08C02E
:101D90008C3621F4832D8068382E02C0883641F4B9
:101DA000F70193FD859193FF81917F018111B3CF5D
:101DB000982F9F7D9554933028F40C5F1F4F9FE31D
:101DC00099830DC0833631F0833771F0833509F084
:101DD00059C021C0F801808189830E5F1F4F88247C
:101DE0008394912C530113C02801F2E04F0E511C33
:101DF000F801A080B18036FE03C0692D70E002C0FA
:101E00006FEF7FEFC5010E9449104C018201F32D55
:101E1000FF773F2E16C0280122E0420E511CF80128
:101E2000A080B18036FE03C0692D70E002C06FEF64
:101E30007FEFC5010E943E104C01F32DF0683F2E4C
:101E4000820133FC1BC0822D90E088169906B0F405
:101E5000B60180E290E00E9464102A94F4CFF5016C
:101E600037FC859137FE81915F01B60190E00E94B9
:101E7000641021102A9421E0821A9108811491049F
:101E800071F7E8C0843611F0893641F5F80137FE64
:101E900007C060817181828193810C5F1F4F08C0F0
:101EA00060817181072E000C880B990B0E5F1F4F0C
:101EB000F32DFF763F2E97FF09C090958095709582
:101EC00061957F4F8F4F9F4FF0683F2E2AE030E0A3
:101ED000A3010E94A010882E861845C0853731F4D2
:101EE000232D2F7EB22E2AE030E025C0932D997F3E
:101EF000B92E8F36C1F018F4883579F0B5C0803727
:101F000019F0883721F0B0C0E92FE061BE2EB4FE91
:101F10000DC0FB2DF460BF2E09C034FE0AC0292F6E
:101F20002660B22E06C028E030E005C020E130E097
:101F300002C020E132E0F801B7FE07C06081718184
:101F4000828193810C5F1F4F06C06081718180E0A8
:101F500090E00E5F1F4FA3010E94A010882E8618EC
:101F6000FB2DFF773F2E36FE0DC0232D2E7FA22E98
:101F7000891458F434FE0BC032FC09C0832D8E7EC8
:101F8000A82E05C0B82CA32C03C0B82C01C0B92CB6
:101F9000A4FE0FC0FE01E80DF11D8081803321F405
:101FA0009A2D997EA92E09C0A2FE06C0B394B394BF
:101FB00004C08A2D867809F0B394A3FC11C0A0FE5A
:101FC00006C0B21488F4280C922C9B180EC0B214D0
:101FD00060F4B60180E290E00E946410B394F7CF01
:101FE000B21418F42B1802C0982C212CA4FE10C097
:101FF000B60180E390E00E946410A2FE17C0A1FC2D
:1020000003C088E790E002C088E590E0B6010CC00C
:102010008A2D867859F0A1FE02C08BE201C080E2D1
:10202000A7FC8DE2B60190E00E946410891438F498
:10203000B60180E390E00E9464109A94F7CF8A94EE
:10204000F301E80DF11D8081B60190E00E9464105B
:102050008110F5CF222009F442CEB60180E290E053
:102060000E9464102A94F6CFF6018681978102C0FF
:102070008FEF9FEF2B96E2E10C941A11FC01059073
:10208000615070400110D8F7809590958E0F9F1F7A
:102090000895FC016150704001900110D8F78095BF
:1020A00090958E0F9F1F0895DC01FC01672F7191A1
:1020B0007723E1F7329704C07C916D93708362912E
:1020C000AE17BF07C8F308950F931F93CF93DF9305
:1020D000FB01238121FD03C08FEF9FEF2CC022FF66
:1020E00016C046815781248135814217530744F435
:1020F000A081B1819D012F5F3F4F318320838C935D
:10210000268137812F5F3F4F3783268314C08B0191
:10211000EC01FB010084F185E02D0995892BE1F6A6
:10212000D80116968D919C911797019617969C93BE
:102130008E931697CE01DF91CF911F910F91089545
:10214000FA01AA27283051F1203181F1E8946F93E8
:102150006E7F6E5F7F4F8F4F9F4FAF4FB1E03ED08E
:10216000B4E03CD0670F781F891F9A1FA11D680F2C
:10217000791F8A1F911DA11D6A0F711D811D911D5F
:10218000A11D20D009F468943F912AE0269F1124D4
:102190003019305D3193DEF6CF010895462F477038
:1021A000405D4193B3E00FD0C9F7F6CF462F4F7093
:1021B000405D4A3318F0495D31FD4052419302D0F1
:1021C000A9F7EACFB4E0A695979587957795679597
:1021D000BA95C9F700976105710508959B01AC0197
:1021E0000A2E06945795479537952795BA95C9F7BE
:1021F000620F731F841F951FA01D08952F923F9299
:102200004F925F926F927F928F929F92AF92BF9206
:10221000CF92DF92EF92FF920F931F93CF93DF93B2
:10222000CDB7DEB7CA1BDB0B0FB6F894DEBF0FBE0F
:10223000CDBF09942A88398848885F846E847D845C
:102240008C849B84AA84B984C884DF80EE80FD805E
:102250000C811B81AA81B981CE0FD11D0FB6F894D4
:0E226000DEBF0FBECDBFED010895F894FFCF95
:10226E006A0869086808670845019401FB01D202F3
:10227E005A03EE035104000000006C01BB01D001B3
:10228E009102AC0234034A03A303B50312042404DF
:02229E0000003E
:00000001FF
