:100000000C9440000C945D000C945D000C945D0019
:100010000C945D000C945D000C945D000C945D00EC
:100020000C945D000C945D000C945D000C945D00DC
:100030000C945D000C945D000C945D000C945D00CC
:100040000C945D000C945D000C945D000C945D00BC
:100050000C945D000C945D000C945D000C945D00AC
:100060000C945D000C945D000C945D000C945D009C
:100070000C945D000C945D000C945D007D0082008A
:1000800011241FBECFEFD0E1DEBFCDBF21E0A0E045
:10009000B1E001C01D92A131B207E1F710E0CFE35A
:1000A000D0E004C02197FE010E940C01CE33D1079D
:1000B000C9F70E945F000C9412010C94000044E602
:1000C00050E064E670E080E091E00E94E00041E0F2
:1000D00061E080E091E00E948E002FEF83ED90E3DD
:1000E000215080409040E1F700C0000040E060E017
:1000F00080E091E00E948E00FFCF80E091E00E94BE
:10010000BF00089580E091E00E948700089587B1C4
:10011000837E87B98AB18F728AB90895FC016130F4
:1001200039F4439A449880818C7F816080830FC02A
:10013000623039F4449A439880818C7F8260808356
:1001400006C088B1877E88B980818C7F80834130EA
:1001500039F442985C9A8081837F8460808308951B
:10016000423039F4429A5C988081837F8860808332
:10017000089542985C988081837F80830895CF930F
:10018000DF93EC0187B18C6187B98AB1806D8AB940
:1001900040E060E0CE010E948E00E0EBF0E0808164
:1001A000836A8083E1EBF0E0808187608083109236
:1001B000B3001092B40083EF8D83DF91CF91089547
:1001C000FC01548343838581680F711D87FD7A95F7
:1001D0006F3F710531F02CF08FEF90E092838183B7
:1001E00007C077231CF07283618302C012821182E0
:1001F0004F3F510531F02CF08FEF90E094838383D3
:1002000004C0552314F41482138281818093B300B7
:1002100083818093B4000895EE0FFF1F0590F49141
:10022000E02D099410E0CFE3D0E004C0FE010E946D
:0E0230000C012196C034D107C9F7F894FFCF16
:00000001FF
